{
    "contractName": "NFTPuzzlePieces",
    "abi": [
        {
            "inputs": [
                {
                    "internalType": "address",
                    "name": "_proxyRegistryAddress",
                    "type": "address"
                }
            ],
            "stateMutability": "nonpayable",
            "type": "constructor"
        },
        {
            "anonymous": false,
            "inputs": [
                {
                    "indexed": true,
                    "internalType": "address",
                    "name": "_owner",
                    "type": "address"
                },
                {
                    "indexed": true,
                    "internalType": "address",
                    "name": "_operator",
                    "type": "address"
                },
                {
                    "indexed": false,
                    "internalType": "bool",
                    "name": "_approved",
                    "type": "bool"
                }
            ],
            "name": "ApprovalForAll",
            "type": "event"
        },
        {
            "anonymous": false,
            "inputs": [
                {
                    "indexed": true,
                    "internalType": "address",
                    "name": "previousOwner",
                    "type": "address"
                },
                {
                    "indexed": true,
                    "internalType": "address",
                    "name": "newOwner",
                    "type": "address"
                }
            ],
            "name": "OwnershipTransferred",
            "type": "event"
        },
        {
            "anonymous": false,
            "inputs": [
                {
                    "indexed": true,
                    "internalType": "address",
                    "name": "_operator",
                    "type": "address"
                },
                {
                    "indexed": true,
                    "internalType": "address",
                    "name": "_from",
                    "type": "address"
                },
                {
                    "indexed": true,
                    "internalType": "address",
                    "name": "_to",
                    "type": "address"
                },
                {
                    "indexed": false,
                    "internalType": "uint256[]",
                    "name": "_ids",
                    "type": "uint256[]"
                },
                {
                    "indexed": false,
                    "internalType": "uint256[]",
                    "name": "_amounts",
                    "type": "uint256[]"
                }
            ],
            "name": "TransferBatch",
            "type": "event"
        },
        {
            "anonymous": false,
            "inputs": [
                {
                    "indexed": true,
                    "internalType": "address",
                    "name": "_operator",
                    "type": "address"
                },
                {
                    "indexed": true,
                    "internalType": "address",
                    "name": "_from",
                    "type": "address"
                },
                {
                    "indexed": true,
                    "internalType": "address",
                    "name": "_to",
                    "type": "address"
                },
                {
                    "indexed": false,
                    "internalType": "uint256",
                    "name": "_id",
                    "type": "uint256"
                },
                {
                    "indexed": false,
                    "internalType": "uint256",
                    "name": "_amount",
                    "type": "uint256"
                }
            ],
            "name": "TransferSingle",
            "type": "event"
        },
        {
            "anonymous": false,
            "inputs": [
                {
                    "indexed": false,
                    "internalType": "string",
                    "name": "_uri",
                    "type": "string"
                },
                {
                    "indexed": true,
                    "internalType": "uint256",
                    "name": "_id",
                    "type": "uint256"
                }
            ],
            "name": "URI",
            "type": "event"
        },
        {
            "inputs": [
                {
                    "internalType": "uint256",
                    "name": "",
                    "type": "uint256"
                }
            ],
            "name": "GroupStructs",
            "outputs": [
                {
                    "internalType": "string",
                    "name": "title",
                    "type": "string"
                },
                {
                    "internalType": "uint256",
                    "name": "weight",
                    "type": "uint256"
                },
                {
                    "internalType": "bool",
                    "name": "isActive",
                    "type": "bool"
                }
            ],
            "stateMutability": "view",
            "type": "function"
        },
        {
            "inputs": [
                {
                    "internalType": "uint256",
                    "name": "",
                    "type": "uint256"
                }
            ],
            "name": "PuzzleStructs",
            "outputs": [
                {
                    "internalType": "string",
                    "name": "title",
                    "type": "string"
                },
                {
                    "internalType": "uint256",
                    "name": "width",
                    "type": "uint256"
                },
                {
                    "internalType": "uint256",
                    "name": "height",
                    "type": "uint256"
                },
                {
                    "internalType": "bool",
                    "name": "isActive",
                    "type": "bool"
                },
                {
                    "internalType": "uint256",
                    "name": "balance",
                    "type": "uint256"
                },
                {
                    "internalType": "uint256",
                    "name": "group",
                    "type": "uint256"
                },
                {
                    "internalType": "uint256",
                    "name": "minTokenId",
                    "type": "uint256"
                },
                {
                    "internalType": "uint256",
                    "name": "maxTokenId",
                    "type": "uint256"
                },
                {
                    "internalType": "uint256",
                    "name": "weight",
                    "type": "uint256"
                }
            ],
            "stateMutability": "view",
            "type": "function"
        },
        {
            "inputs": [
                {
                    "internalType": "uint256",
                    "name": "",
                    "type": "uint256"
                },
                {
                    "internalType": "uint256",
                    "name": "",
                    "type": "uint256"
                },
                {
                    "internalType": "uint256",
                    "name": "",
                    "type": "uint256"
                }
            ],
            "name": "PuzzlesToClassToTokens",
            "outputs": [
                {
                    "internalType": "uint256",
                    "name": "",
                    "type": "uint256"
                }
            ],
            "stateMutability": "view",
            "type": "function"
        },
        {
            "inputs": [
                {
                    "internalType": "string",
                    "name": "_title",
                    "type": "string"
                },
                {
                    "internalType": "uint256",
                    "name": "_width",
                    "type": "uint256"
                },
                {
                    "internalType": "uint256",
                    "name": "_height",
                    "type": "uint256"
                },
                {
                    "internalType": "bool",
                    "name": "_isActive",
                    "type": "bool"
                },
                {
                    "internalType": "uint256",
                    "name": "_group",
                    "type": "uint256"
                },
                {
                    "internalType": "uint256",
                    "name": "_weight",
                    "type": "uint256"
                }
            ],
            "name": "addPuzzle",
            "outputs": [],
            "stateMutability": "nonpayable",
            "type": "function"
        },
        {
            "inputs": [
                {
                    "internalType": "bool",
                    "name": "_isNew",
                    "type": "bool"
                },
                {
                    "internalType": "uint256",
                    "name": "_id",
                    "type": "uint256"
                },
                {
                    "internalType": "string",
                    "name": "_title",
                    "type": "string"
                },
                {
                    "internalType": "uint256",
                    "name": "_weight",
                    "type": "uint256"
                },
                {
                    "internalType": "bool",
                    "name": "_isActive",
                    "type": "bool"
                }
            ],
            "name": "addUpdateGroup",
            "outputs": [],
            "stateMutability": "nonpayable",
            "type": "function"
        },
        {
            "inputs": [
                {
                    "internalType": "address",
                    "name": "_owner",
                    "type": "address"
                },
                {
                    "internalType": "uint256",
                    "name": "_id",
                    "type": "uint256"
                }
            ],
            "name": "balanceOf",
            "outputs": [
                {
                    "internalType": "uint256",
                    "name": "",
                    "type": "uint256"
                }
            ],
            "stateMutability": "view",
            "type": "function"
        },
        {
            "inputs": [
                {
                    "internalType": "address[]",
                    "name": "_owners",
                    "type": "address[]"
                },
                {
                    "internalType": "uint256[]",
                    "name": "_ids",
                    "type": "uint256[]"
                }
            ],
            "name": "balanceOfBatch",
            "outputs": [
                {
                    "internalType": "uint256[]",
                    "name": "",
                    "type": "uint256[]"
                }
            ],
            "stateMutability": "view",
            "type": "function"
        },
        {
            "inputs": [
                {
                    "internalType": "address",
                    "name": "_to",
                    "type": "address"
                },
                {
                    "internalType": "uint256[]",
                    "name": "_ids",
                    "type": "uint256[]"
                },
                {
                    "internalType": "uint256[]",
                    "name": "_quantities",
                    "type": "uint256[]"
                },
                {
                    "internalType": "bytes",
                    "name": "_data",
                    "type": "bytes"
                }
            ],
            "name": "batchMint",
            "outputs": [],
            "stateMutability": "nonpayable",
            "type": "function"
        },
        {
            "inputs": [],
            "name": "contractName",
            "outputs": [
                {
                    "internalType": "string",
                    "name": "",
                    "type": "string"
                }
            ],
            "stateMutability": "view",
            "type": "function"
        },
        {
            "inputs": [],
            "name": "contractSymbol",
            "outputs": [
                {
                    "internalType": "string",
                    "name": "",
                    "type": "string"
                }
            ],
            "stateMutability": "view",
            "type": "function"
        },
        {
            "inputs": [],
            "name": "contractURI",
            "outputs": [
                {
                    "internalType": "string",
                    "name": "",
                    "type": "string"
                }
            ],
            "stateMutability": "pure",
            "type": "function"
        },
        {
            "inputs": [
                {
                    "internalType": "address",
                    "name": "_address",
                    "type": "address"
                },
                {
                    "internalType": "uint256",
                    "name": "_puzzleId",
                    "type": "uint256"
                }
            ],
            "name": "getPuzzlePiecesForAddress",
            "outputs": [
                {
                    "internalType": "uint256[]",
                    "name": "",
                    "type": "uint256[]"
                }
            ],
            "stateMutability": "view",
            "type": "function"
        },
        {
            "inputs": [
                {
                    "internalType": "uint256",
                    "name": "_puzzleId",
                    "type": "uint256"
                },
                {
                    "internalType": "enum Puzzles.Class",
                    "name": "_class",
                    "type": "uint8"
                }
            ],
            "name": "getTokenIdByClassForPuzzle",
            "outputs": [
                {
                    "internalType": "uint256[]",
                    "name": "",
                    "type": "uint256[]"
                }
            ],
            "stateMutability": "view",
            "type": "function"
        },
        {
            "inputs": [],
            "name": "groupCount",
            "outputs": [
                {
                    "internalType": "uint256",
                    "name": "",
                    "type": "uint256"
                }
            ],
            "stateMutability": "view",
            "type": "function"
        },
        {
            "inputs": [
                {
                    "internalType": "address",
                    "name": "_owner",
                    "type": "address"
                },
                {
                    "internalType": "address",
                    "name": "_operator",
                    "type": "address"
                }
            ],
            "name": "isApprovedForAll",
            "outputs": [
                {
                    "internalType": "bool",
                    "name": "isOperator",
                    "type": "bool"
                }
            ],
            "stateMutability": "view",
            "type": "function"
        },
        {
            "inputs": [
                {
                    "internalType": "address",
                    "name": "_to",
                    "type": "address"
                },
                {
                    "internalType": "uint256",
                    "name": "_id",
                    "type": "uint256"
                },
                {
                    "internalType": "uint256",
                    "name": "_quantity",
                    "type": "uint256"
                },
                {
                    "internalType": "bytes",
                    "name": "_data",
                    "type": "bytes"
                }
            ],
            "name": "mint",
            "outputs": [],
            "stateMutability": "nonpayable",
            "type": "function"
        },
        {
            "inputs": [],
            "name": "owner",
            "outputs": [
                {
                    "internalType": "address",
                    "name": "",
                    "type": "address"
                }
            ],
            "stateMutability": "view",
            "type": "function"
        },
        {
            "inputs": [],
            "name": "puzzleCount",
            "outputs": [
                {
                    "internalType": "uint256",
                    "name": "",
                    "type": "uint256"
                }
            ],
            "stateMutability": "view",
            "type": "function"
        },
        {
            "inputs": [
                {
                    "internalType": "uint256",
                    "name": "_puzzleId",
                    "type": "uint256"
                },
                {
                    "internalType": "uint256[]",
                    "name": "_commonPieces",
                    "type": "uint256[]"
                },
                {
                    "internalType": "uint256[]",
                    "name": "_uncommonPieces",
                    "type": "uint256[]"
                },
                {
                    "internalType": "uint256[]",
                    "name": "_rarePieces",
                    "type": "uint256[]"
                },
                {
                    "internalType": "uint256[]",
                    "name": "_epicPieces",
                    "type": "uint256[]"
                },
                {
                    "internalType": "uint256[]",
                    "name": "_legendaryPieces",
                    "type": "uint256[]"
                }
            ],
            "name": "puzzleInit",
            "outputs": [],
            "stateMutability": "nonpayable",
            "type": "function"
        },
        {
            "inputs": [],
            "name": "renounceOwnership",
            "outputs": [],
            "stateMutability": "nonpayable",
            "type": "function"
        },
        {
            "inputs": [
                {
                    "internalType": "address",
                    "name": "_from",
                    "type": "address"
                },
                {
                    "internalType": "address",
                    "name": "_to",
                    "type": "address"
                },
                {
                    "internalType": "uint256[]",
                    "name": "_ids",
                    "type": "uint256[]"
                },
                {
                    "internalType": "uint256[]",
                    "name": "_amounts",
                    "type": "uint256[]"
                },
                {
                    "internalType": "bytes",
                    "name": "_data",
                    "type": "bytes"
                }
            ],
            "name": "safeBatchTransferFrom",
            "outputs": [],
            "stateMutability": "nonpayable",
            "type": "function"
        },
        {
            "inputs": [
                {
                    "internalType": "address",
                    "name": "_from",
                    "type": "address"
                },
                {
                    "internalType": "address",
                    "name": "_to",
                    "type": "address"
                },
                {
                    "internalType": "uint256",
                    "name": "_id",
                    "type": "uint256"
                },
                {
                    "internalType": "uint256",
                    "name": "_amount",
                    "type": "uint256"
                },
                {
                    "internalType": "bytes",
                    "name": "_data",
                    "type": "bytes"
                }
            ],
            "name": "safeTransferFrom",
            "outputs": [],
            "stateMutability": "nonpayable",
            "type": "function"
        },
        {
            "inputs": [
                {
                    "internalType": "address",
                    "name": "_operator",
                    "type": "address"
                },
                {
                    "internalType": "bool",
                    "name": "_approved",
                    "type": "bool"
                }
            ],
            "name": "setApprovalForAll",
            "outputs": [],
            "stateMutability": "nonpayable",
            "type": "function"
        },
        {
            "inputs": [
                {
                    "internalType": "string",
                    "name": "_newBaseMetadataURI",
                    "type": "string"
                }
            ],
            "name": "setBaseMetadataURI",
            "outputs": [],
            "stateMutability": "nonpayable",
            "type": "function"
        },
        {
            "inputs": [
                {
                    "internalType": "uint256",
                    "name": "_id",
                    "type": "uint256"
                },
                {
                    "internalType": "bool",
                    "name": "_isActive",
                    "type": "bool"
                }
            ],
            "name": "setGroupActive",
            "outputs": [],
            "stateMutability": "nonpayable",
            "type": "function"
        },
        {
            "inputs": [
                {
                    "internalType": "uint256",
                    "name": "_puzzleId",
                    "type": "uint256"
                },
                {
                    "internalType": "bool",
                    "name": "_isActive",
                    "type": "bool"
                }
            ],
            "name": "setPuzzleActive",
            "outputs": [],
            "stateMutability": "nonpayable",
            "type": "function"
        },
        {
            "inputs": [
                {
                    "internalType": "uint256",
                    "name": "_puzzleId",
                    "type": "uint256"
                },
                {
                    "internalType": "uint256",
                    "name": "_group",
                    "type": "uint256"
                }
            ],
            "name": "setPuzzleGroup",
            "outputs": [],
            "stateMutability": "nonpayable",
            "type": "function"
        },
        {
            "inputs": [
                {
                    "internalType": "bytes4",
                    "name": "_interfaceID",
                    "type": "bytes4"
                }
            ],
            "name": "supportsInterface",
            "outputs": [
                {
                    "internalType": "bool",
                    "name": "",
                    "type": "bool"
                }
            ],
            "stateMutability": "pure",
            "type": "function"
        },
        {
            "inputs": [
                {
                    "internalType": "uint256",
                    "name": "",
                    "type": "uint256"
                }
            ],
            "name": "tokenSupply",
            "outputs": [
                {
                    "internalType": "uint256",
                    "name": "",
                    "type": "uint256"
                }
            ],
            "stateMutability": "view",
            "type": "function"
        },
        {
            "inputs": [
                {
                    "internalType": "uint256",
                    "name": "_id",
                    "type": "uint256"
                }
            ],
            "name": "totalSupply",
            "outputs": [
                {
                    "internalType": "uint256",
                    "name": "",
                    "type": "uint256"
                }
            ],
            "stateMutability": "view",
            "type": "function"
        },
        {
            "inputs": [
                {
                    "internalType": "address",
                    "name": "newOwner",
                    "type": "address"
                }
            ],
            "name": "transferOwnership",
            "outputs": [],
            "stateMutability": "nonpayable",
            "type": "function"
        },
        {
            "inputs": [
                {
                    "internalType": "uint256",
                    "name": "_id",
                    "type": "uint256"
                }
            ],
            "name": "uri",
            "outputs": [
                {
                    "internalType": "string",
                    "name": "",
                    "type": "string"
                }
            ],
            "stateMutability": "view",
            "type": "function"
        }
    ],
    "bytecode": "608060405260006005556000600a556000600c553480156200002057600080fd5b5060405162003d8c38038062003d8c833981810160405260208110156200004657600080fd5b505160408051808201825260118152704e46542050757a7a6c652050696563657360781b6020828101919091528251808401909352600383526204e50560ec1b9083015290826000620000986200017a565b600380546001600160a01b0319166001600160a01b038316908117909155604051919250906000907f8be0079c531659141344cd1fd0a4f28419497f9722a3daafe3b4186f6b6457e0908290a3508251620000fb90600790602086019062000197565b5081516200011190600890602085019062000197565b50600480546001600160a01b0319166001600160a01b0392909216919091179055505060408051808201909152601a81527f68747470733a2f2f6e667470757a7a6c652e6361742f6e66742f000000000000602082015262000173906200017e565b5062000243565b3390565b80516200019390600290602084019062000197565b5050565b828054600181600116156101000203166002900490600052602060002090601f016020900481019282620001cf57600085556200021a565b82601f10620001ea57805160ff19168380011785556200021a565b828001600101855582156200021a579182015b828111156200021a578251825591602001919060010190620001fd565b50620002289291506200022c565b5090565b5b808211156200022857600081556001016200022d565b613b3980620002536000396000f3fe608060405234801561001057600080fd5b50600436106101ef5760003560e01c80637e518ec81161010f578063cf468a22116100a2578063e985e9c511610071578063e985e9c51461106a578063e9afbcaa14611098578063f242432a146110bd578063f2fde38b14611186576101ef565b8063cf468a2214610ecb578063e1ccff3714610f9a578063e447616414610fbd578063e8a3d48514611062576101ef565b8063aaf81b27116100de578063aaf81b2714610ca8578063b222c2de14610ccd578063b48ab8b614610cf6578063bd85b03914610eae576101ef565b80637e518ec814610baa5780638da5cb5b14610c4e5780638f23b32614610c72578063a22cb46514610c7a576101ef565b80633ff50742116101875780637194bb90116101565780637194bb9014610aae578063731133e914610ab657806375d0c0dc14610b7657806379b36b5614610b7e576101ef565b80633ff5074214610850578063496995c8146108c65780634e1273f414610983578063715018a614610aa6576101ef565b80632693ebf2116101c35780632693ebf2146103ba5780632b2afaa1146103d75780632eb2c2d6146103df5780633e89721a146105a0576101ef565b8062fdd58e146101f457806301ffc9a7146102325780630e89341c1461026d5780632319ebdb146102ff575b600080fd5b6102206004803603604081101561020a57600080fd5b506001600160a01b0381351690602001356111ac565b60408051918252519081900360200190f35b6102596004803603602081101561024857600080fd5b50356001600160e01b0319166111d5565b604080519115158252519081900360200190f35b61028a6004803603602081101561028357600080fd5b50356111e8565b6040805160208082528351818301528351919283929083019185019080838360005b838110156102c45781810151838201526020016102ac565b50505050905090810190601f1680156102f15780820380516001836020036101000a031916815260200191505b509250505060405180910390f35b6103b8600480360360a081101561031557600080fd5b8135151591602081013591810190606081016040820135600160201b81111561033d57600080fd5b82018360208201111561034f57600080fd5b803590602001918460018302840111600160201b8311171561037057600080fd5b91908080601f01602080910402602001604051908101604052809392919081815260200183838082843760009201919091525092955050823593505050602001351515611287565b005b610220600480360360208110156103d057600080fd5b50356114e6565b61028a6114f8565b6103b8600480360360a08110156103f557600080fd5b6001600160a01b038235811692602081013590911691810190606081016040820135600160201b81111561042857600080fd5b82018360208201111561043a57600080fd5b803590602001918460208302840111600160201b8311171561045b57600080fd5b9190808060200260200160405190810160405280939291908181526020018383602002808284376000920191909152509295949360208101935035915050600160201b8111156104aa57600080fd5b8201836020820111156104bc57600080fd5b803590602001918460208302840111600160201b831117156104dd57600080fd5b9190808060200260200160405190810160405280939291908181526020018383602002808284376000920191909152509295949360208101935035915050600160201b81111561052c57600080fd5b82018360208201111561053e57600080fd5b803590602001918460018302840111600160201b8311171561055f57600080fd5b91908080601f016020809104026020016040519081016040528093929190818152602001838380828437600092019190915250929550611586945050505050565b6103b8600480360360c08110156105b657600080fd5b81359190810190604081016020820135600160201b8111156105d757600080fd5b8201836020820111156105e957600080fd5b803590602001918460208302840111600160201b8311171561060a57600080fd5b9190808060200260200160405190810160405280939291908181526020018383602002808284376000920191909152509295949360208101935035915050600160201b81111561065957600080fd5b82018360208201111561066b57600080fd5b803590602001918460208302840111600160201b8311171561068c57600080fd5b9190808060200260200160405190810160405280939291908181526020018383602002808284376000920191909152509295949360208101935035915050600160201b8111156106db57600080fd5b8201836020820111156106ed57600080fd5b803590602001918460208302840111600160201b8311171561070e57600080fd5b9190808060200260200160405190810160405280939291908181526020018383602002808284376000920191909152509295949360208101935035915050600160201b81111561075d57600080fd5b82018360208201111561076f57600080fd5b803590602001918460208302840111600160201b8311171561079057600080fd5b9190808060200260200160405190810160405280939291908181526020018383602002808284376000920191909152509295949360208101935035915050600160201b8111156107df57600080fd5b8201836020820111156107f157600080fd5b803590602001918460208302840111600160201b8311171561081257600080fd5b919080806020026020016040519081016040528093929190818152602001838360200280828437600092019190915250929550611643945050505050565b6108766004803603604081101561086657600080fd5b508035906020013560ff166117ad565b60408051602080825283518183015283519192839290830191858101910280838360005b838110156108b257818101518382015260200161089a565b505050509050019250505060405180910390f35b6103b8600480360360c08110156108dc57600080fd5b810190602081018135600160201b8111156108f657600080fd5b82018360208201111561090857600080fd5b803590602001918460018302840111600160201b8311171561092957600080fd5b91908080601f01602080910402602001604051908101604052809392919081815260200183838082843760009201919091525092955050823593505050602081013590604081013515159060608101359060800135611872565b6108766004803603604081101561099957600080fd5b810190602081018135600160201b8111156109b357600080fd5b8201836020820111156109c557600080fd5b803590602001918460208302840111600160201b831117156109e657600080fd5b9190808060200260200160405190810160405280939291908181526020018383602002808284376000920191909152509295949360208101935035915050600160201b811115610a3557600080fd5b820183602082011115610a4757600080fd5b803590602001918460208302840111600160201b83111715610a6857600080fd5b9190808060200260200160405190810160405280939291908181526020018383602002808284376000920191909152509295506118fd945050505050565b6103b8611a15565b610220611ac1565b6103b860048036036080811015610acc57600080fd5b6001600160a01b038235169160208101359160408201359190810190608081016060820135600160201b811115610b0257600080fd5b820183602082011115610b1457600080fd5b803590602001918460018302840111600160201b83111715610b3557600080fd5b91908080601f016020809104026020016040519081016040528093929190818152602001838380828437600092019190915250929550611ac7945050505050565b61028a611b58565b61087660048036036040811015610b9457600080fd5b506001600160a01b038135169060200135611bb3565b6103b860048036036020811015610bc057600080fd5b810190602081018135600160201b811115610bda57600080fd5b820183602082011115610bec57600080fd5b803590602001918460018302840111600160201b83111715610c0d57600080fd5b91908080601f016020809104026020016040519081016040528093929190818152602001838380828437600092019190915250929550611c57945050505050565b610c56611cc5565b604080516001600160a01b039092168252519081900360200190f35b610220611cd4565b6103b860048036036040811015610c9057600080fd5b506001600160a01b0381351690602001351515611cda565b6103b860048036036040811015610cbe57600080fd5b50803590602001351515611d48565b61022060048036036060811015610ce357600080fd5b5080359060208101359060400135611e10565b6103b860048036036080811015610d0c57600080fd5b6001600160a01b038235169190810190604081016020820135600160201b811115610d3657600080fd5b820183602082011115610d4857600080fd5b803590602001918460208302840111600160201b83111715610d6957600080fd5b9190808060200260200160405190810160405280939291908181526020018383602002808284376000920191909152509295949360208101935035915050600160201b811115610db857600080fd5b820183602082011115610dca57600080fd5b803590602001918460208302840111600160201b83111715610deb57600080fd5b9190808060200260200160405190810160405280939291908181526020018383602002808284376000920191909152509295949360208101935035915050600160201b811115610e3a57600080fd5b820183602082011115610e4c57600080fd5b803590602001918460018302840111600160201b83111715610e6d57600080fd5b91908080601f016020809104026020016040519081016040528093929190818152602001838380828437600092019190915250929550611e4e945050505050565b61022060048036036020811015610ec457600080fd5b5035611f2b565b610ee860048036036020811015610ee157600080fd5b5035611f3d565b60405180806020018a8152602001898152602001881515815260200187815260200186815260200185815260200184815260200183815260200182810382528b818151815260200191508051906020019080838360005b83811015610f57578181015183820152602001610f3f565b50505050905090810190601f168015610f845780820380516001836020036101000a031916815260200191505b509a505050505050505050505060405180910390f35b6103b860048036036040811015610fb057600080fd5b5080359060200135612015565b610fda60048036036020811015610fd357600080fd5b5035612116565b60405180806020018481526020018315158152602001828103825285818151815260200191508051906020019080838360005b8381101561102557818101518382015260200161100d565b50505050905090810190601f1680156110525780820380516001836020036101000a031916815260200191505b5094505050505060405180910390f35b61028a6121c7565b6102596004803603604081101561108057600080fd5b506001600160a01b03813581169160200135166121e7565b6103b8600480360360408110156110ae57600080fd5b50803590602001351515612296565b6103b8600480360360a08110156110d357600080fd5b6001600160a01b03823581169260208101359091169160408201359160608101359181019060a081016080820135600160201b81111561111257600080fd5b82018360208201111561112457600080fd5b803590602001918460018302840111600160201b8311171561114557600080fd5b91908080601f01602080910402602001604051908101604052809392919081815260200183838082843760009201919091525092955061236f945050505050565b6103b86004803603602081101561119c57600080fd5b50356001600160a01b0316612425565b6001600160a01b0382166000908152602081815260408083208484529091529020545b92915050565b60006111e082612528565b90505b919050565b6002805460408051602060018416156101000260001901909316849004601f81018490048402820184019092528181526060936111e093919290918301828280156112745780601f1061124957610100808354040283529160200191611274565b820191906000526020600020905b81548152906001019060200180831161125757829003601f168201915b505050505061128284612554565b612623565b61128f612666565b6001600160a01b03166112a0611cc5565b6001600160a01b0316146112e9576040805162461bcd60e51b81526020600482018190526024820152600080516020613963833981519152604482015290519081900360640190fd5b8484818061130657506000600a54118015611306575080600a5410155b6113415760405162461bcd60e51b8152600401808060200182810382526027815260200180613a646027913960400191505060405180910390fd5b6000855111611390576040805162461bcd60e51b81526020600482015260166024820152755f7469746c652063616e6e6f7420626520626c616e6b60501b604482015290519081900360640190fd5b600084116113e5576040805162461bcd60e51b815260206004820152601e60248201527f5f776569676874206d7573742062652067726561746572207468616e20300000604482015290519081900360640190fd5b8661148b576000600a5411611437576040805162461bcd60e51b81526020600482015260136024820152724e6f2067726f75707320746f2075706461746560681b604482015290519081900360640190fd5b6000600a5411801561144b5750600a548611155b6114865760405162461bcd60e51b8152600401808060200182810382526028815260200180613a0c6028913960400191505060405180910390fd5b611496565b61149361266a565b95505b600086815260096020908152604090912086516114b592880190613739565b5050506000938452600960205260409093206001810191909155600201805460ff1916921515929092179091555050565b60066020526000908152604090205481565b6008805460408051602060026001851615610100026000190190941693909304601f8101849004840282018401909252818152929183018282801561157e5780601f106115535761010080835404028352916020019161157e565b820191906000526020600020905b81548152906001019060200180831161156157829003601f168201915b505050505081565b336001600160a01b03861614806115a257506115a285336121e7565b6115dd5760405162461bcd60e51b815260040180806020018281038252602f8152602001806139dd602f913960400191505060405180910390fd5b6001600160a01b0384166116225760405162461bcd60e51b81526004018080602001828103825260308152602001806139336030913960400191505060405180910390fd5b61162e85858585612678565b61163c858585855a86612923565b5050505050565b61164b612666565b6001600160a01b031661165c611cc5565b6001600160a01b0316146116a5576040805162461bcd60e51b81526020600482018190526024820152600080516020613963833981519152604482015290519081900360640190fd5b8580600c5410156116e75760405162461bcd60e51b815260040180806020018281038252602e815260200180613983602e913960400191505060405180910390fd5b8151835185518751895160008c8152600b60205260409020600281015460019091015402910190910190910190910114611768576040805162461bcd60e51b815260206004820152601a60248201527f496e636f7272656374206e756d626572206f6620706965636573000000000000604482015290519081900360640190fd5b61177487600088612b11565b61178087600187612b11565b61178c87600286612b11565b61179887600385612b11565b6117a487600484612b11565b50505050505050565b60608280600c5410156117f15760405162461bcd60e51b815260040180806020018281038252602e815260200180613983602e913960400191505060405180910390fd5b6000848152600d602052604081209084600481111561180c57fe5b815260200190815260200160002080548060200260200160405190810160405280929190818152602001828054801561186457602002820191906000526020600020905b815481526020019060010190808311611850575b505050505091505092915050565b61187a612666565b6001600160a01b031661188b611cc5565b6001600160a01b0316146118d4576040805162461bcd60e51b81526020600482018190526024820152600080516020613963833981519152604482015290519081900360640190fd5b6118e2868686868686612bf2565b6118f56118f0858702612df9565b612e38565b505050505050565b6060815183511461193f5760405162461bcd60e51b815260040180806020018281038252602c8152602001806139b1602c913960400191505060405180910390fd5b6060835167ffffffffffffffff8111801561195957600080fd5b50604051908082528060200260200182016040528015611983578160200160208202803683370190505b50905060005b8451811015611a0d576000808683815181106119a157fe5b60200260200101516001600160a01b03166001600160a01b0316815260200190815260200160002060008583815181106119d757fe5b60200260200101518152602001908152602001600020548282815181106119fa57fe5b6020908102919091010152600101611989565b509392505050565b611a1d612666565b6001600160a01b0316611a2e611cc5565b6001600160a01b031614611a77576040805162461bcd60e51b81526020600482018190526024820152600080516020613963833981519152604482015290519081900360640190fd5b6003546040516000916001600160a01b0316907f8be0079c531659141344cd1fd0a4f28419497f9722a3daafe3b4186f6b6457e0908390a3600380546001600160a01b0319169055565b600c5481565b611acf612666565b6001600160a01b0316611ae0611cc5565b6001600160a01b031614611b29576040805162461bcd60e51b81526020600482018190526024820152600080516020613963833981519152604482015290519081900360640190fd5b611b3283612ec8565b611b3e84848484612ed7565b506000918252600660205260409091208054909101905550565b6007805460408051602060026001851615610100026000190190941693909304601f8101849004840282018401909252818152929183018282801561157e5780601f106115535761010080835404028352916020019161157e565b60608180600c541015611bf75760405162461bcd60e51b815260040180806020018281038252602e815260200180613983602e913960400191505060405180910390fd5b6000838152600b60205260409020600601546060905b6000858152600b60205260409020600701548111611c4e57611c2f86826111ac565b828281518110611c3b57fe5b6020908102919091010152600101611c0d565b50949350505050565b611c5f612666565b6001600160a01b0316611c70611cc5565b6001600160a01b031614611cb9576040805162461bcd60e51b81526020600482018190526024820152600080516020613963833981519152604482015290519081900360640190fd5b611cc281612f72565b50565b6003546001600160a01b031690565b600a5481565b3360008181526001602090815260408083206001600160a01b03871680855290835292819020805460ff1916861515908117909155815190815290519293927f17307eab39ab6107e8899845ad3d59bd9653f200f220920489ca2b5937696c31929181900390910190a35050565b611d50612666565b6001600160a01b0316611d61611cc5565b6001600160a01b031614611daa576040805162461bcd60e51b81526020600482018190526024820152600080516020613963833981519152604482015290519081900360640190fd5b8180600c541015611dec5760405162461bcd60e51b815260040180806020018281038252602e815260200180613983602e913960400191505060405180910390fd5b506000918252600b6020526040909120600301805460ff1916911515919091179055565b600d6020528260005260406000206020528160005260406000208181548110611e3857600080fd5b9060005260206000200160009250925050505481565b611e56612666565b6001600160a01b0316611e67611cc5565b6001600160a01b031614611eb0576040805162461bcd60e51b81526020600482018190526024820152600080516020613963833981519152604482015290519081900360640190fd5b60005b8351811015611f18576000848281518110611eca57fe5b602002602001015190506000848381518110611ee257fe5b6020908102919091018101516000848152600690925260409091208054820190559050611f0e82612ec8565b5050600101611eb3565b50611f2584848484612f89565b50505050565b60009081526006602052604090205490565b600b6020908152600091825260409182902080548351601f60026000196101006001861615020190931692909204918201849004840281018401909452808452909291839190830182828015611fd45780601f10611fa957610100808354040283529160200191611fd4565b820191906000526020600020905b815481529060010190602001808311611fb757829003601f168201915b50505060018401546002850154600386015460048701546005880154600689015460078a01546008909a01549899959894975060ff90931695509093909289565b61201d612666565b6001600160a01b031661202e611cc5565b6001600160a01b031614612077576040805162461bcd60e51b81526020600482018190526024820152600080516020613963833981519152604482015290519081900360640190fd5b8180600c5410156120b95760405162461bcd60e51b815260040180806020018281038252602e815260200180613983602e913960400191505060405180910390fd5b81600a541015612100576040805162461bcd60e51b815260206004820152600d60248201526c0496e76616c69642067726f757609c1b604482015290519081900360640190fd5b506000918252600b602052604090912060050155565b60096020908152600091825260409182902080548351601f600260001961010060018616150201909316929092049182018490048402810184019094528084529092918391908301828280156121ad5780601f10612182576101008083540402835291602001916121ad565b820191906000526020600020905b81548152906001019060200180831161219057829003601f168201915b50505050600183015460029093015491929160ff16905083565b606060405180606001604052806027815260200161388460279139905090565b600480546040805163c455279160e01b81526001600160a01b0386811694820194909452905160009392831692851691839163c455279191602480820192602092909190829003018186803b15801561223f57600080fd5b505afa158015612253573d6000803e3d6000fd5b505050506040513d602081101561226957600080fd5b50516001600160a01b031614156122845760019150506111cf565b61228e848461315e565b949350505050565b61229e612666565b6001600160a01b03166122af611cc5565b6001600160a01b0316146122f8576040805162461bcd60e51b81526020600482018190526024820152600080516020613963833981519152604482015290519081900360640190fd5b6000826000600a5411801561230f575080600a5410155b61234a5760405162461bcd60e51b8152600401808060200182810382526027815260200180613a646027913960400191505060405180910390fd5b5050600091825260096020526040909120600201805460ff1916911515919091179055565b336001600160a01b038616148061238b575061238b85336121e7565b6123c65760405162461bcd60e51b815260040180806020018281038252602a8152602001806138ab602a913960400191505060405180910390fd5b6001600160a01b03841661240b5760405162461bcd60e51b815260040180806020018281038252602b815260200180613833602b913960400191505060405180910390fd5b6124178585858561318c565b61163c858585855a86613268565b61242d612666565b6001600160a01b031661243e611cc5565b6001600160a01b031614612487576040805162461bcd60e51b81526020600482018190526024820152600080516020613963833981519152604482015290519081900360640190fd5b6001600160a01b0381166124cc5760405162461bcd60e51b815260040180806020018281038252602681526020018061385e6026913960400191505060405180910390fd5b6003546040516001600160a01b038084169216907f8be0079c531659141344cd1fd0a4f28419497f9722a3daafe3b4186f6b6457e090600090a3600380546001600160a01b0319166001600160a01b0392909216919091179055565b60006001600160e01b031982166303a24d0760e21b141561254b575060016111e3565b6111e0826133da565b60608161257957506040805180820190915260018152600360fc1b60208201526111e3565b8160005b811561259157600101600a8204915061257d565b60608167ffffffffffffffff811180156125aa57600080fd5b506040519080825280601f01601f1916602001820160405280156125d5576020820181803683370190505b50905060001982015b8515611c4e57600a860660300160f81b8282806001900393508151811061260157fe5b60200101906001600160f81b031916908160001a905350600a860495506125de565b606061265f8383604051806020016040528060008152506040518060200160405280600081525060405180602001604052806000815250613406565b9392505050565b3390565b600a80546001019081905590565b80518251146126b85760405162461bcd60e51b81526004018080602001828103825260358152602001806138d56035913960400191505060405180910390fd5b815160005b81811015612842576127338382815181106126d457fe5b6020026020010151600080896001600160a01b03166001600160a01b03168152602001908152602001600020600087858151811061270e57fe5b602002602001015181526020019081526020016000205461362b90919063ffffffff16565b600080886001600160a01b03166001600160a01b03168152602001908152602001600020600086848151811061276557fe5b60200260200101518152602001908152602001600020819055506127ed83828151811061278e57fe5b6020026020010151600080886001600160a01b03166001600160a01b0316815260200190815260200160002060008785815181106127c857fe5b602002602001015181526020019081526020016000205461368890919063ffffffff16565b600080876001600160a01b03166001600160a01b03168152602001908152602001600020600086848151811061281f57fe5b6020908102919091018101518252810191909152604001600020556001016126bd565b50836001600160a01b0316856001600160a01b0316336001600160a01b03167f4a39dc06d4c0dbc64b70af90fd698a233a518aa5d07e595d983b8c0526c8f7fb8686604051808060200180602001838103835285818151815260200191508051906020019060200280838360005b838110156128c85781810151838201526020016128b0565b50505050905001838103825284818151815260200191508051906020019060200280838360005b838110156129075781810151838201526020016128ef565b5050505090500194505050505060405180910390a45050505050565b612935856001600160a01b03166136db565b156118f5576000856001600160a01b031663bc197c8184338a8989886040518763ffffffff1660e01b815260040180866001600160a01b03168152602001856001600160a01b03168152602001806020018060200180602001848103845287818151815260200191508051906020019060200280838360005b838110156129c65781810151838201526020016129ae565b50505050905001848103835286818151815260200191508051906020019060200280838360005b83811015612a055781810151838201526020016129ed565b50505050905001848103825285818151815260200191508051906020019080838360005b83811015612a41578181015183820152602001612a29565b50505050905090810190601f168015612a6e5780820380516001836020036101000a031916815260200191505b5098505050505050505050602060405180830381600088803b158015612a9357600080fd5b5087f1158015612aa7573d6000803e3d6000fd5b50505050506040513d6020811015612abe57600080fd5b505190506001600160e01b0319811663bc197c8160e01b146117a45760405162461bcd60e51b815260040180806020018281038252603f815260200180613a8b603f913960400191505060405180910390fd5b612b19612666565b6001600160a01b0316612b2a611cc5565b6001600160a01b031614612b73576040805162461bcd60e51b81526020600482018190526024820152600080516020613963833981519152604482015290519081900360640190fd5b8280600c541015612bb55760405162461bcd60e51b815260040180806020018281038252602e815260200180613983602e913960400191505060405180910390fd5b6000848152600d602052604081208391856004811115612bd157fe5b8152602001908152602001600020908051906020019061163c9291906137c5565b612bfa612666565b6001600160a01b0316612c0b611cc5565b6001600160a01b031614612c54576040805162461bcd60e51b81526020600482018190526024820152600080516020613963833981519152604482015290519081900360640190fd5b81600a541015612c9b576040805162461bcd60e51b815260206004820152600d60248201526c0496e76616c69642067726f757609c1b604482015290519081900360640190fd5b6000865111612cea576040805162461bcd60e51b81526020600482015260166024820152755f7469746c652063616e6e6f7420626520626c616e6b60501b604482015290519081900360640190fd5b600085118015612cfa5750600084115b612d355760405162461bcd60e51b815260040180806020018281038252602981526020018061390a6029913960400191505060405180910390fd5b60008111612d8a576040805162461bcd60e51b815260206004820152601e60248201527f5f776569676874206d7573742062652067726561746572207468616e20300000604482015290519081900360640190fd5b6000612d94613712565b6000818152600b602090815260409091208951929350612db89290918a0190613739565b506000908152600b602052604090206001810195909555600285019390935560038401805460ff191692151592909217909155600583015560089091015550565b612e016137ff565b6005546001810190612e14908401612ec8565b612e1c6137ff565b5060408051808201909152908152600554602082015292915050565b612e40612666565b6001600160a01b0316612e51611cc5565b6001600160a01b031614612e9a576040805162461bcd60e51b81526020600482018190526024820152600080516020613963833981519152604482015290519081900360640190fd5b8051600c80546000908152600b60209081526040808320600601949094559093015190548352912060070155565b600554811115611cc257600555565b6001600160a01b038416600090815260208181526040808320868452909152902054612f039083613688565b6001600160a01b038516600081815260208181526040808320888452825280832094909455835187815290810186905283519293919233927fc3d58168c5ae7397731d063d5bbf3d657854427343f4c083240f7aacaa2d0f62928290030190a4611f2560008585855a86613268565b8051612f85906002906020840190613739565b5050565b8151835114612fc95760405162461bcd60e51b8152600401808060200182810382526030815260200180613a346030913960400191505060405180910390fd5b825160005b818110156130745761301f848281518110612fe557fe5b6020026020010151600080896001600160a01b03166001600160a01b0316815260200190815260200160002060008885815181106127c857fe5b600080886001600160a01b03166001600160a01b03168152602001908152602001600020600087848151811061305157fe5b602090810291909101810151825281019190915260400160002055600101612fce565b50846001600160a01b031660006001600160a01b0316336001600160a01b03167f4a39dc06d4c0dbc64b70af90fd698a233a518aa5d07e595d983b8c0526c8f7fb8787604051808060200180602001838103835285818151815260200191508051906020019060200280838360005b838110156130fb5781810151838201526020016130e3565b50505050905001838103825284818151815260200191508051906020019060200280838360005b8381101561313a578181015183820152602001613122565b5050505090500194505050505060405180910390a461163c60008686865a87612923565b6001600160a01b03918216600090815260016020908152604080832093909416825291909152205460ff1690565b6001600160a01b0384166000908152602081815260408083208584529091529020546131b8908261362b565b6001600160a01b03808616600090815260208181526040808320878452825280832094909455918616815280825282812085825290915220546131fb9082613688565b6001600160a01b03808516600081815260208181526040808320888452825291829020949094558051868152938401859052805191939288169233927fc3d58168c5ae7397731d063d5bbf3d657854427343f4c083240f7aacaa2d0f62929181900390910190a450505050565b61327a856001600160a01b03166136db565b156118f5576000856001600160a01b031663f23a6e6184338a8989886040518763ffffffff1660e01b815260040180866001600160a01b03168152602001856001600160a01b0316815260200184815260200183815260200180602001828103825283818151815260200191508051906020019080838360005b8381101561330c5781810151838201526020016132f4565b50505050905090810190601f1680156133395780820380516001836020036101000a031916815260200191505b509650505050505050602060405180830381600088803b15801561335c57600080fd5b5087f1158015613370573d6000803e3d6000fd5b50505050506040513d602081101561338757600080fd5b505190506001600160e01b0319811663f23a6e6160e01b146117a45760405162461bcd60e51b815260040180806020018281038252603a815260200180613aca603a913960400191505060405180910390fd5b60006001600160e01b03198216636cdb3d1360e11b14156133fd575060016111e3565b6111e082613720565b805182518451865188516060948a948a948a948a948a948a94919092019092019091010167ffffffffffffffff8111801561344057600080fd5b506040519080825280601f01601f19166020018201604052801561346b576020820181803683370190505b509050806000805b88518110156134c45788818151811061348857fe5b602001015160f81c60f81b8383806001019450815181106134a557fe5b60200101906001600160f81b031916908160001a905350600101613473565b5060005b8751811015613519578781815181106134dd57fe5b602001015160f81c60f81b8383806001019450815181106134fa57fe5b60200101906001600160f81b031916908160001a9053506001016134c8565b5060005b865181101561356e5786818151811061353257fe5b602001015160f81c60f81b83838060010194508151811061354f57fe5b60200101906001600160f81b031916908160001a90535060010161351d565b5060005b85518110156135c35785818151811061358757fe5b602001015160f81c60f81b8383806001019450815181106135a457fe5b60200101906001600160f81b031916908160001a905350600101613572565b5060005b8451811015613618578481815181106135dc57fe5b602001015160f81c60f81b8383806001019450815181106135f957fe5b60200101906001600160f81b031916908160001a9053506001016135c7565b50909d9c50505050505050505050505050565b600082821115613682576040805162461bcd60e51b815260206004820152601760248201527f536166654d617468237375623a20554e444552464c4f57000000000000000000604482015290519081900360640190fd5b50900390565b60008282018381101561265f576040805162461bcd60e51b8152602060048201526016602482015275536166654d617468236164643a204f564552464c4f5760501b604482015290519081900360640190fd5b6000813f801580159061265f57507fc5d2460186f7233c927e7db2dcc703c0e500b653ca82273b7bfad8045d85a470141592915050565b600c80546001019081905590565b6001600160e01b031981166301ffc9a760e01b14919050565b828054600181600116156101000203166002900490600052602060002090601f01602090048101928261376f57600085556137b5565b82601f1061378857805160ff19168380011785556137b5565b828001600101855582156137b5579182015b828111156137b557825182559160200191906001019061379a565b506137c192915061381d565b5090565b8280548282559060005260206000209081019282156137b557916020028201828111156137b557825182559160200191906001019061379a565b60405180604001604052806002906020820280368337509192915050565b5b808211156137c1576000815560010161381e56fe4552433131353523736166655472616e7366657246726f6d3a20494e56414c49445f524543495049454e544f776e61626c653a206e6577206f776e657220697320746865207a65726f2061646472657373687474703a2f2f6e667470757a7a6c652e6361742f636f6e74726163742f6e667470757a7a6c654552433131353523736166655472616e7366657246726f6d3a20494e56414c49445f4f50455241544f5245524331313535235f7361666542617463685472616e7366657246726f6d3a20494e56414c49445f4152524159535f4c454e4754485f776964746820616e64205f686569676874206d7573742062652067726561746572207468616e203045524331313535237361666542617463685472616e7366657246726f6d3a20494e56414c49445f524543495049454e544f776e61626c653a2063616c6c6572206973206e6f7420746865206f776e65725f70757a7a6c654964206d757374206265206c6f776572207468616e206e756d626572206f662070757a7a6c6573455243313135352362616c616e63654f6642617463683a20494e56414c49445f41525241595f4c454e47544845524331313535237361666542617463685472616e7366657246726f6d3a20494e56414c49445f4f50455241544f525f69642069732067726561746572207468616e20746865206e756d626572206f662067726f757073455243313135354d696e744275726e2362617463684d696e743a20494e56414c49445f4152524159535f4c454e4754485f6964206d757374206265206c6f776572207468616e206e756d626572206f662067726f75707345524331313535235f63616c6c6f6e45524331313535426174636852656365697665643a20494e56414c49445f4f4e5f524543454956455f4d45535341474545524331313535235f63616c6c6f6e4552433131353552656365697665643a20494e56414c49445f4f4e5f524543454956455f4d455353414745a26469706673582212206d6d54f92eb07230d565e3912ef14e90d091730458f78dedf4d9c4a4ef5af3b664736f6c63430007040033",
    "sourcePath": "c:/playground/Remix/npp_v3/contracts/NFTPuzzlePieces.sol",
    "compiler": {
        "name": "solc",
        "version": "0.7.4+commit.3f05b770"
    },
    "functionHashes": {
        "GroupStructs(uint256)": "e4476164",
        "PuzzleStructs(uint256)": "cf468a22",
        "PuzzlesToClassToTokens(uint256,uint256,uint256)": "b222c2de",
        "addPuzzle(string,uint256,uint256,bool,uint256,uint256)": "496995c8",
        "addUpdateGroup(bool,uint256,string,uint256,bool)": "2319ebdb",
        "balanceOf(address,uint256)": "00fdd58e",
        "balanceOfBatch(address[],uint256[])": "4e1273f4",
        "batchMint(address,uint256[],uint256[],bytes)": "b48ab8b6",
        "contractName()": "75d0c0dc",
        "contractSymbol()": "2b2afaa1",
        "contractURI()": "e8a3d485",
        "getPuzzlePiecesForAddress(address,uint256)": "79b36b56",
        "getTokenIdByClassForPuzzle(uint256,uint8)": "3ff50742",
        "groupCount()": "8f23b326",
        "isApprovedForAll(address,address)": "e985e9c5",
        "mint(address,uint256,uint256,bytes)": "731133e9",
        "owner()": "8da5cb5b",
        "puzzleCount()": "7194bb90",
        "puzzleInit(uint256,uint256[],uint256[],uint256[],uint256[],uint256[])": "3e89721a",
        "renounceOwnership()": "715018a6",
        "safeBatchTransferFrom(address,address,uint256[],uint256[],bytes)": "2eb2c2d6",
        "safeTransferFrom(address,address,uint256,uint256,bytes)": "f242432a",
        "setApprovalForAll(address,bool)": "a22cb465",
        "setBaseMetadataURI(string)": "7e518ec8",
        "setGroupActive(uint256,bool)": "e9afbcaa",
        "setPuzzleActive(uint256,bool)": "aaf81b27",
        "setPuzzleGroup(uint256,uint256)": "e1ccff37",
        "supportsInterface(bytes4)": "01ffc9a7",
        "tokenSupply(uint256)": "2693ebf2",
        "totalSupply(uint256)": "bd85b039",
        "transferOwnership(address)": "f2fde38b",
        "uri(uint256)": "0e89341c"
    },
    "gasEstimates": {
        "creation": {
            "codeDepositCost": "3032200",
            "executionCost": "infinite",
            "totalCost": "infinite"
        },
        "external": {
            "GroupStructs(uint256)": "infinite",
            "PuzzleStructs(uint256)": "infinite",
            "PuzzlesToClassToTokens(uint256,uint256,uint256)": "2160",
            "addPuzzle(string,uint256,uint256,bool,uint256,uint256)": "infinite",
            "addUpdateGroup(bool,uint256,string,uint256,bool)": "infinite",
            "balanceOf(address,uint256)": "1284",
            "balanceOfBatch(address[],uint256[])": "infinite",
            "batchMint(address,uint256[],uint256[],bytes)": "infinite",
            "contractName()": "infinite",
            "contractSymbol()": "infinite",
            "contractURI()": "infinite",
            "getPuzzlePiecesForAddress(address,uint256)": "infinite",
            "getTokenIdByClassForPuzzle(uint256,uint8)": "infinite",
            "groupCount()": "1088",
            "isApprovedForAll(address,address)": "infinite",
            "mint(address,uint256,uint256,bytes)": "infinite",
            "owner()": "1105",
            "puzzleCount()": "1043",
            "puzzleInit(uint256,uint256[],uint256[],uint256[],uint256[],uint256[])": "infinite",
            "renounceOwnership()": "infinite",
            "safeBatchTransferFrom(address,address,uint256[],uint256[],bytes)": "infinite",
            "safeTransferFrom(address,address,uint256,uint256,bytes)": "infinite",
            "setApprovalForAll(address,bool)": "23169",
            "setBaseMetadataURI(string)": "infinite",
            "setGroupActive(uint256,bool)": "infinite",
            "setPuzzleActive(uint256,bool)": "infinite",
            "setPuzzleGroup(uint256,uint256)": "infinite",
            "supportsInterface(bytes4)": "infinite",
            "tokenSupply(uint256)": "1152",
            "totalSupply(uint256)": "1217",
            "transferOwnership(address)": "infinite",
            "uri(uint256)": "infinite"
        }
    }
}