{
  "contractName": "ERC1155TradableWithCreators",
  "abi": [
    {
      "inputs": [
        {
          "internalType": "string",
          "name": "_name",
          "type": "string"
        },
        {
          "internalType": "string",
          "name": "_symbol",
          "type": "string"
        },
        {
          "internalType": "address",
          "name": "_proxyRegistryAddress",
          "type": "address"
        }
      ],
      "stateMutability": "nonpayable",
      "type": "constructor"
    },
    {
      "anonymous": false,
      "inputs": [
        {
          "indexed": true,
          "internalType": "address",
          "name": "_owner",
          "type": "address"
        },
        {
          "indexed": true,
          "internalType": "address",
          "name": "_operator",
          "type": "address"
        },
        {
          "indexed": false,
          "internalType": "bool",
          "name": "_approved",
          "type": "bool"
        }
      ],
      "name": "ApprovalForAll",
      "type": "event"
    },
    {
      "anonymous": false,
      "inputs": [
        {
          "indexed": true,
          "internalType": "address",
          "name": "previousOwner",
          "type": "address"
        },
        {
          "indexed": true,
          "internalType": "address",
          "name": "newOwner",
          "type": "address"
        }
      ],
      "name": "OwnershipTransferred",
      "type": "event"
    },
    {
      "anonymous": false,
      "inputs": [
        {
          "indexed": true,
          "internalType": "address",
          "name": "_operator",
          "type": "address"
        },
        {
          "indexed": true,
          "internalType": "address",
          "name": "_from",
          "type": "address"
        },
        {
          "indexed": true,
          "internalType": "address",
          "name": "_to",
          "type": "address"
        },
        {
          "indexed": false,
          "internalType": "uint256[]",
          "name": "_ids",
          "type": "uint256[]"
        },
        {
          "indexed": false,
          "internalType": "uint256[]",
          "name": "_amounts",
          "type": "uint256[]"
        }
      ],
      "name": "TransferBatch",
      "type": "event"
    },
    {
      "anonymous": false,
      "inputs": [
        {
          "indexed": true,
          "internalType": "address",
          "name": "_operator",
          "type": "address"
        },
        {
          "indexed": true,
          "internalType": "address",
          "name": "_from",
          "type": "address"
        },
        {
          "indexed": true,
          "internalType": "address",
          "name": "_to",
          "type": "address"
        },
        {
          "indexed": false,
          "internalType": "uint256",
          "name": "_id",
          "type": "uint256"
        },
        {
          "indexed": false,
          "internalType": "uint256",
          "name": "_amount",
          "type": "uint256"
        }
      ],
      "name": "TransferSingle",
      "type": "event"
    },
    {
      "anonymous": false,
      "inputs": [
        {
          "indexed": false,
          "internalType": "string",
          "name": "_uri",
          "type": "string"
        },
        {
          "indexed": true,
          "internalType": "uint256",
          "name": "_id",
          "type": "uint256"
        }
      ],
      "name": "URI",
      "type": "event"
    },
    {
      "inputs": [
        {
          "internalType": "address",
          "name": "_owner",
          "type": "address"
        },
        {
          "internalType": "uint256",
          "name": "_id",
          "type": "uint256"
        }
      ],
      "name": "balanceOf",
      "outputs": [
        {
          "internalType": "uint256",
          "name": "",
          "type": "uint256"
        }
      ],
      "stateMutability": "view",
      "type": "function"
    },
    {
      "inputs": [
        {
          "internalType": "address[]",
          "name": "_owners",
          "type": "address[]"
        },
        {
          "internalType": "uint256[]",
          "name": "_ids",
          "type": "uint256[]"
        }
      ],
      "name": "balanceOfBatch",
      "outputs": [
        {
          "internalType": "uint256[]",
          "name": "",
          "type": "uint256[]"
        }
      ],
      "stateMutability": "view",
      "type": "function"
    },
    {
      "inputs": [],
      "name": "contractName",
      "outputs": [
        {
          "internalType": "string",
          "name": "",
          "type": "string"
        }
      ],
      "stateMutability": "view",
      "type": "function"
    },
    {
      "inputs": [],
      "name": "contractSymbol",
      "outputs": [
        {
          "internalType": "string",
          "name": "",
          "type": "string"
        }
      ],
      "stateMutability": "view",
      "type": "function"
    },
    {
      "inputs": [
        {
          "internalType": "uint256",
          "name": "",
          "type": "uint256"
        }
      ],
      "name": "creators",
      "outputs": [
        {
          "internalType": "address",
          "name": "",
          "type": "address"
        }
      ],
      "stateMutability": "view",
      "type": "function"
    },
    {
      "inputs": [],
      "name": "owner",
      "outputs": [
        {
          "internalType": "address",
          "name": "",
          "type": "address"
        }
      ],
      "stateMutability": "view",
      "type": "function"
    },
    {
      "inputs": [],
      "name": "renounceOwnership",
      "outputs": [],
      "stateMutability": "nonpayable",
      "type": "function"
    },
    {
      "inputs": [
        {
          "internalType": "address",
          "name": "_from",
          "type": "address"
        },
        {
          "internalType": "address",
          "name": "_to",
          "type": "address"
        },
        {
          "internalType": "uint256[]",
          "name": "_ids",
          "type": "uint256[]"
        },
        {
          "internalType": "uint256[]",
          "name": "_amounts",
          "type": "uint256[]"
        },
        {
          "internalType": "bytes",
          "name": "_data",
          "type": "bytes"
        }
      ],
      "name": "safeBatchTransferFrom",
      "outputs": [],
      "stateMutability": "nonpayable",
      "type": "function"
    },
    {
      "inputs": [
        {
          "internalType": "address",
          "name": "_from",
          "type": "address"
        },
        {
          "internalType": "address",
          "name": "_to",
          "type": "address"
        },
        {
          "internalType": "uint256",
          "name": "_id",
          "type": "uint256"
        },
        {
          "internalType": "uint256",
          "name": "_amount",
          "type": "uint256"
        },
        {
          "internalType": "bytes",
          "name": "_data",
          "type": "bytes"
        }
      ],
      "name": "safeTransferFrom",
      "outputs": [],
      "stateMutability": "nonpayable",
      "type": "function"
    },
    {
      "inputs": [
        {
          "internalType": "address",
          "name": "_operator",
          "type": "address"
        },
        {
          "internalType": "bool",
          "name": "_approved",
          "type": "bool"
        }
      ],
      "name": "setApprovalForAll",
      "outputs": [],
      "stateMutability": "nonpayable",
      "type": "function"
    },
    {
      "inputs": [
        {
          "internalType": "uint256",
          "name": "",
          "type": "uint256"
        }
      ],
      "name": "tokenSupply",
      "outputs": [
        {
          "internalType": "uint256",
          "name": "",
          "type": "uint256"
        }
      ],
      "stateMutability": "view",
      "type": "function"
    },
    {
      "inputs": [
        {
          "internalType": "address",
          "name": "newOwner",
          "type": "address"
        }
      ],
      "name": "transferOwnership",
      "outputs": [],
      "stateMutability": "nonpayable",
      "type": "function"
    },
    {
      "inputs": [
        {
          "internalType": "bytes4",
          "name": "_interfaceID",
          "type": "bytes4"
        }
      ],
      "name": "supportsInterface",
      "outputs": [
        {
          "internalType": "bool",
          "name": "",
          "type": "bool"
        }
      ],
      "stateMutability": "pure",
      "type": "function"
    },
    {
      "inputs": [
        {
          "internalType": "uint256",
          "name": "_id",
          "type": "uint256"
        }
      ],
      "name": "uri",
      "outputs": [
        {
          "internalType": "string",
          "name": "",
          "type": "string"
        }
      ],
      "stateMutability": "view",
      "type": "function"
    },
    {
      "inputs": [
        {
          "internalType": "uint256",
          "name": "_id",
          "type": "uint256"
        }
      ],
      "name": "totalSupply",
      "outputs": [
        {
          "internalType": "uint256",
          "name": "",
          "type": "uint256"
        }
      ],
      "stateMutability": "view",
      "type": "function"
    },
    {
      "inputs": [
        {
          "internalType": "string",
          "name": "_newBaseMetadataURI",
          "type": "string"
        }
      ],
      "name": "setBaseMetadataURI",
      "outputs": [],
      "stateMutability": "nonpayable",
      "type": "function"
    },
    {
      "inputs": [
        {
          "internalType": "address",
          "name": "_initialOwner",
          "type": "address"
        },
        {
          "internalType": "uint256",
          "name": "_initialSupply",
          "type": "uint256"
        },
        {
          "internalType": "string",
          "name": "_uri",
          "type": "string"
        },
        {
          "internalType": "bytes",
          "name": "_data",
          "type": "bytes"
        }
      ],
      "name": "create",
      "outputs": [
        {
          "internalType": "uint256",
          "name": "",
          "type": "uint256"
        }
      ],
      "stateMutability": "nonpayable",
      "type": "function"
    },
    {
      "inputs": [
        {
          "internalType": "address",
          "name": "_to",
          "type": "address"
        },
        {
          "internalType": "uint256",
          "name": "_id",
          "type": "uint256"
        },
        {
          "internalType": "uint256",
          "name": "_quantity",
          "type": "uint256"
        },
        {
          "internalType": "bytes",
          "name": "_data",
          "type": "bytes"
        }
      ],
      "name": "mint",
      "outputs": [],
      "stateMutability": "nonpayable",
      "type": "function"
    },
    {
      "inputs": [
        {
          "internalType": "address",
          "name": "_to",
          "type": "address"
        },
        {
          "internalType": "uint256[]",
          "name": "_ids",
          "type": "uint256[]"
        },
        {
          "internalType": "uint256[]",
          "name": "_quantities",
          "type": "uint256[]"
        },
        {
          "internalType": "bytes",
          "name": "_data",
          "type": "bytes"
        }
      ],
      "name": "batchMint",
      "outputs": [],
      "stateMutability": "nonpayable",
      "type": "function"
    },
    {
      "inputs": [
        {
          "internalType": "address",
          "name": "_to",
          "type": "address"
        },
        {
          "internalType": "uint256[]",
          "name": "_ids",
          "type": "uint256[]"
        }
      ],
      "name": "setCreator",
      "outputs": [],
      "stateMutability": "nonpayable",
      "type": "function"
    },
    {
      "inputs": [
        {
          "internalType": "address",
          "name": "_owner",
          "type": "address"
        },
        {
          "internalType": "address",
          "name": "_operator",
          "type": "address"
        }
      ],
      "name": "isApprovedForAll",
      "outputs": [
        {
          "internalType": "bool",
          "name": "isOperator",
          "type": "bool"
        }
      ],
      "stateMutability": "view",
      "type": "function"
    },
    {
      "inputs": [
        {
          "internalType": "address",
          "name": "_to",
          "type": "address"
        },
        {
          "internalType": "uint256[]",
          "name": "_quantities",
          "type": "uint256[]"
        },
        {
          "internalType": "bytes",
          "name": "_data",
          "type": "bytes"
        }
      ],
      "name": "batchMintWithNoId",
      "outputs": [
        {
          "internalType": "uint256[]",
          "name": "",
          "type": "uint256[]"
        }
      ],
      "stateMutability": "nonpayable",
      "type": "function"
    },
    {
      "inputs": [
        {
          "internalType": "address",
          "name": "_to",
          "type": "address"
        },
        {
          "internalType": "uint256",
          "name": "_quantity",
          "type": "uint256"
        },
        {
          "internalType": "bytes",
          "name": "_data",
          "type": "bytes"
        }
      ],
      "name": "mintWithNoId",
      "outputs": [
        {
          "internalType": "uint256",
          "name": "",
          "type": "uint256"
        }
      ],
      "stateMutability": "nonpayable",
      "type": "function"
    }
  ],
  "bytecode": "0x608060405260006005553480156200001657600080fd5b50604051620045da380380620045da833981810160405260608110156200003c57600080fd5b81019080805160405193929190846401000000008211156200005d57600080fd5b838201915060208201858111156200007457600080fd5b82518660018202830111640100000000821117156200009257600080fd5b8083526020830192505050908051906020019080838360005b83811015620000c8578082015181840152602081019050620000ab565b50505050905090810190601f168015620000f65780820380516001836020036101000a031916815260200191505b50604052602001805160405193929190846401000000008211156200011a57600080fd5b838201915060208201858111156200013157600080fd5b82518660018202830111640100000000821117156200014f57600080fd5b8083526020830192505050908051906020019080838360005b838110156200018557808201518184015260208101905062000168565b50505050905090810190601f168015620001b35780820380516001836020036101000a031916815260200191505b50604052602001805190602001909291905050506000620001d9620002f460201b60201c565b905080600360006101000a81548173ffffffffffffffffffffffffffffffffffffffff021916908373ffffffffffffffffffffffffffffffffffffffff1602179055508073ffffffffffffffffffffffffffffffffffffffff16600073ffffffffffffffffffffffffffffffffffffffff167f8be0079c531659141344cd1fd0a4f28419497f9722a3daafe3b4186f6b6457e060405160405180910390a350826008908051906020019062000290929190620002fc565b508160099080519060200190620002a9929190620002fc565b5080600460006101000a81548173ffffffffffffffffffffffffffffffffffffffff021916908373ffffffffffffffffffffffffffffffffffffffff160217905550505050620003b2565b600033905090565b828054600181600116156101000203166002900490600052602060002090601f01602090048101928262000334576000855562000380565b82601f106200034f57805160ff191683800117855562000380565b8280016001018555821562000380579182015b828111156200037f57825182559160200191906001019062000362565b5b5090506200038f919062000393565b5090565b5b80821115620003ae57600081600090555060010162000394565b5090565b61421880620003c26000396000f3fe608060405234801561001057600080fd5b506004361061014c5760003560e01c806375d0c0dc116100c3578063cd53d08e1161007c578063cd53d08e14610f03578063d2a6b51a14610f5b578063e38e3b2414611033578063e985e9c51461113f578063f242432a146111b9578063f2fde38b146112c85761014c565b806375d0c0dc14610afc5780637e518ec814610b7f5780638da5cb5b14610c3a578063a22cb46514610c6e578063b48ab8b614610cbe578063bd85b03914610ec15761014c565b80632cd001c6116101155780632cd001c6146103825780632eb2c2d61461047b5780634e1273f41461069e5780636d4fefc21461083f578063715018a614610a03578063731133e914610a0d5761014c565b8062fdd58e1461015157806301ffc9a7146101b35780630e89341c146102165780632693ebf2146102bd5780632b2afaa1146102ff575b600080fd5b61019d6004803603604081101561016757600080fd5b81019080803573ffffffffffffffffffffffffffffffffffffffff1690602001909291908035906020019092919050505061130c565b6040518082815260200191505060405180910390f35b6101fe600480360360208110156101c957600080fd5b8101908080357bffffffffffffffffffffffffffffffffffffffffffffffffffffffff19169060200190929190505050611366565b60405180821515815260200191505060405180910390f35b6102426004803603602081101561022c57600080fd5b8101908080359060200190929190505050611378565b6040518080602001828103825283818151815260200191508051906020019080838360005b83811015610282578082015181840152602081019050610267565b50505050905090810190601f1680156102af5780820380516001836020036101000a031916815260200191505b509250505060405180910390f35b6102e9600480360360208110156102d357600080fd5b810190808035906020019092919050505061148b565b6040518082815260200191505060405180910390f35b6103076114a3565b6040518080602001828103825283818151815260200191508051906020019080838360005b8381101561034757808201518184015260208101905061032c565b50505050905090810190601f1680156103745780820380516001836020036101000a031916815260200191505b509250505060405180910390f35b6104656004803603606081101561039857600080fd5b81019080803573ffffffffffffffffffffffffffffffffffffffff16906020019092919080359060200190929190803590602001906401000000008111156103df57600080fd5b8201836020820111156103f157600080fd5b8035906020019184600183028401116401000000008311171561041357600080fd5b91908080601f016020809104026020016040519081016040528093929190818152602001838380828437600081840152601f19601f820116905080830192505050505050509192919290505050611541565b6040518082815260200191505060405180910390f35b61069c600480360360a081101561049157600080fd5b81019080803573ffffffffffffffffffffffffffffffffffffffff169060200190929190803573ffffffffffffffffffffffffffffffffffffffff169060200190929190803590602001906401000000008111156104ee57600080fd5b82018360208201111561050057600080fd5b8035906020019184602083028401116401000000008311171561052257600080fd5b919080806020026020016040519081016040528093929190818152602001838360200280828437600081840152601f19601f8201169050808301925050505050505091929192908035906020019064010000000081111561058257600080fd5b82018360208201111561059457600080fd5b803590602001918460208302840111640100000000831117156105b657600080fd5b919080806020026020016040519081016040528093929190818152602001838360200280828437600081840152601f19601f8201169050808301925050505050505091929192908035906020019064010000000081111561061657600080fd5b82018360208201111561062857600080fd5b8035906020019184600183028401116401000000008311171561064a57600080fd5b91908080601f016020809104026020016040519081016040528093929190818152602001838380828437600081840152601f19601f820116905080830192505050505050509192919290505050611614565b005b6107e8600480360360408110156106b457600080fd5b81019080803590602001906401000000008111156106d157600080fd5b8201836020820111156106e357600080fd5b8035906020019184602083028401116401000000008311171561070557600080fd5b919080806020026020016040519081016040528093929190818152602001838360200280828437600081840152601f19601f8201169050808301925050505050505091929192908035906020019064010000000081111561076557600080fd5b82018360208201111561077757600080fd5b8035906020019184602083028401116401000000008311171561079957600080fd5b919080806020026020016040519081016040528093929190818152602001838360200280828437600081840152601f19601f820116905080830192505050505050509192919290505050611750565b6040518080602001828103825283818151815260200191508051906020019060200280838360005b8381101561082b578082015181840152602081019050610810565b505050509050019250505060405180910390f35b6109ac6004803603606081101561085557600080fd5b81019080803573ffffffffffffffffffffffffffffffffffffffff1690602001909291908035906020019064010000000081111561089257600080fd5b8201836020820111156108a457600080fd5b803590602001918460208302840111640100000000831117156108c657600080fd5b919080806020026020016040519081016040528093929190818152602001838360200280828437600081840152601f19601f8201169050808301925050505050505091929192908035906020019064010000000081111561092657600080fd5b82018360208201111561093857600080fd5b8035906020019184600183028401116401000000008311171561095a57600080fd5b91908080601f016020809104026020016040519081016040528093929190818152602001838380828437600081840152601f19601f8201169050808301925050505050505091929192905050506118aa565b6040518080602001828103825283818151815260200191508051906020019060200280838360005b838110156109ef5780820151818401526020810190506109d4565b505050509050019250505060405180910390f35b610a0b6119fb565b005b610afa60048036036080811015610a2357600080fd5b81019080803573ffffffffffffffffffffffffffffffffffffffff169060200190929190803590602001909291908035906020019092919080359060200190640100000000811115610a7457600080fd5b820183602082011115610a8657600080fd5b80359060200191846001830284011164010000000083111715610aa857600080fd5b91908080601f016020809104026020016040519081016040528093929190818152602001838380828437600081840152601f19601f820116905080830192505050505050509192919290505050611b6b565b005b610b04611c63565b6040518080602001828103825283818151815260200191508051906020019080838360005b83811015610b44578082015181840152602081019050610b29565b50505050905090810190601f168015610b715780820380516001836020036101000a031916815260200191505b509250505060405180910390f35b610c3860048036036020811015610b9557600080fd5b8101908080359060200190640100000000811115610bb257600080fd5b820183602082011115610bc457600080fd5b80359060200191846001830284011164010000000083111715610be657600080fd5b91908080601f016020809104026020016040519081016040528093929190818152602001838380828437600081840152601f19601f820116905080830192505050505050509192919290505050611d01565b005b610c42611dbc565b604051808273ffffffffffffffffffffffffffffffffffffffff16815260200191505060405180910390f35b610cbc60048036036040811015610c8457600080fd5b81019080803573ffffffffffffffffffffffffffffffffffffffff169060200190929190803515159060200190929190505050611de6565b005b610ebf60048036036080811015610cd457600080fd5b81019080803573ffffffffffffffffffffffffffffffffffffffff16906020019092919080359060200190640100000000811115610d1157600080fd5b820183602082011115610d2357600080fd5b80359060200191846020830284011164010000000083111715610d4557600080fd5b919080806020026020016040519081016040528093929190818152602001838360200280828437600081840152601f19601f82011690508083019250505050505050919291929080359060200190640100000000811115610da557600080fd5b820183602082011115610db757600080fd5b80359060200191846020830284011164010000000083111715610dd957600080fd5b919080806020026020016040519081016040528093929190818152602001838360200280828437600081840152601f19601f82011690508083019250505050505050919291929080359060200190640100000000811115610e3957600080fd5b820183602082011115610e4b57600080fd5b80359060200191846001830284011164010000000083111715610e6d57600080fd5b91908080601f016020809104026020016040519081016040528093929190818152602001838380828437600081840152601f19601f820116905080830192505050505050509192919290505050611ee5565b005b610eed60048036036020811015610ed757600080fd5b8101908080359060200190929190505050612027565b6040518082815260200191505060405180910390f35b610f2f60048036036020811015610f1957600080fd5b8101908080359060200190929190505050612044565b604051808273ffffffffffffffffffffffffffffffffffffffff16815260200191505060405180910390f35b61103160048036036040811015610f7157600080fd5b81019080803573ffffffffffffffffffffffffffffffffffffffff16906020019092919080359060200190640100000000811115610fae57600080fd5b820183602082011115610fc057600080fd5b80359060200191846020830284011164010000000083111715610fe257600080fd5b919080806020026020016040519081016040528093929190818152602001838360200280828437600081840152601f19601f820116905080830192505050505050509192919290505050612077565b005b6111296004803603608081101561104957600080fd5b81019080803573ffffffffffffffffffffffffffffffffffffffff169060200190929190803590602001909291908035906020019064010000000081111561109057600080fd5b8201836020820111156110a257600080fd5b803590602001918460018302840111640100000000831117156110c457600080fd5b9091929391929390803590602001906401000000008111156110e557600080fd5b8201836020820111156110f757600080fd5b8035906020019184600183028401116401000000008311171561111957600080fd5b909192939192939050505061213e565b6040518082815260200191505060405180910390f35b6111a16004803603604081101561115557600080fd5b81019080803573ffffffffffffffffffffffffffffffffffffffff169060200190929190803573ffffffffffffffffffffffffffffffffffffffff16906020019092919050505061233c565b60405180821515815260200191505060405180910390f35b6112c6600480360360a08110156111cf57600080fd5b81019080803573ffffffffffffffffffffffffffffffffffffffff169060200190929190803573ffffffffffffffffffffffffffffffffffffffff16906020019092919080359060200190929190803590602001909291908035906020019064010000000081111561124057600080fd5b82018360208201111561125257600080fd5b8035906020019184600183028401116401000000008311171561127457600080fd5b91908080601f016020809104026020016040519081016040528093929190818152602001838380828437600081840152601f19601f820116905080830192505050505050509192919290505050612457565b005b61130a600480360360208110156112de57600080fd5b81019080803573ffffffffffffffffffffffffffffffffffffffff169060200190929190505050612593565b005b60008060008473ffffffffffffffffffffffffffffffffffffffff1673ffffffffffffffffffffffffffffffffffffffff168152602001908152602001600020600083815260200190815260200160002054905092915050565b600061137182612788565b9050919050565b60606113838261280a565b6113d8576040517f08c379a000000000000000000000000000000000000000000000000000000000815260040180806020018281038252602581526020018061405d6025913960400191505060405180910390fd5b61148460028054600181600116156101000203166002900480601f0160208091040260200160405190810160405280929190818152602001828054600181600116156101000203166002900480156114715780601f1061144657610100808354040283529160200191611471565b820191906000526020600020905b81548152906001019060200180831161145457829003601f168201915b505050505061147f84612876565b6129ba565b9050919050565b60076020528060005260406000206000915090505481565b60098054600181600116156101000203166002900480601f0160208091040260200160405190810160405280929190818152602001828054600181600116156101000203166002900480156115395780601f1061150e57610100808354040283529160200191611539565b820191906000526020600020905b81548152906001019060200180831161151c57829003601f168201915b505050505081565b600061154b6129fe565b73ffffffffffffffffffffffffffffffffffffffff16611569611dbc565b73ffffffffffffffffffffffffffffffffffffffff16146115f2576040517f08c379a00000000000000000000000000000000000000000000000000000000081526004018080602001828103825260208152602001807f4f776e61626c653a2063616c6c6572206973206e6f7420746865206f776e657281525060200191505060405180910390fd5b6115fa612a06565b611608846005548585611b6b565b60055490509392505050565b8473ffffffffffffffffffffffffffffffffffffffff163373ffffffffffffffffffffffffffffffffffffffff1614806116545750611653853361233c565b5b6116a9576040517f08c379a000000000000000000000000000000000000000000000000000000000815260040180806020018281038252602f8152602001806140ae602f913960400191505060405180910390fd5b600073ffffffffffffffffffffffffffffffffffffffff168473ffffffffffffffffffffffffffffffffffffffff16141561172f576040517f08c379a000000000000000000000000000000000000000000000000000000000815260040180806020018281038252603081526020018061402d6030913960400191505060405180910390fd5b61173b85858585612a1a565b611749858585855a86612d7c565b5050505050565b606081518351146117ac576040517f08c379a000000000000000000000000000000000000000000000000000000000815260040180806020018281038252602c815260200180614082602c913960400191505060405180910390fd5b6060835167ffffffffffffffff811180156117c657600080fd5b506040519080825280602002602001820160405280156117f55781602001602082028036833780820191505090505b50905060005b845181101561189f5760008086838151811061181357fe5b602002602001015173ffffffffffffffffffffffffffffffffffffffff1673ffffffffffffffffffffffffffffffffffffffff168152602001908152602001600020600085838151811061186357fe5b602002602001015181526020019081526020016000205482828151811061188657fe5b60200260200101818152505080806001019150506117fb565b508091505092915050565b60606118b46129fe565b73ffffffffffffffffffffffffffffffffffffffff166118d2611dbc565b73ffffffffffffffffffffffffffffffffffffffff161461195b576040517f08c379a00000000000000000000000000000000000000000000000000000000081526004018080602001828103825260208152602001807f4f776e61626c653a2063616c6c6572206973206e6f7420746865206f776e657281525060200191505060405180910390fd5b6060835167ffffffffffffffff8111801561197557600080fd5b506040519080825280602002602001820160405280156119a45781602001602082028036833780820191505090505b50905060005b84518110156119e3576119bb612a06565b6005548282815181106119ca57fe5b60200260200101818152505080806001019150506119aa565b506119f085828686611ee5565b809150509392505050565b611a036129fe565b73ffffffffffffffffffffffffffffffffffffffff16611a21611dbc565b73ffffffffffffffffffffffffffffffffffffffff1614611aaa576040517f08c379a00000000000000000000000000000000000000000000000000000000081526004018080602001828103825260208152602001807f4f776e61626c653a2063616c6c6572206973206e6f7420746865206f776e657281525060200191505060405180910390fd5b600073ffffffffffffffffffffffffffffffffffffffff16600360009054906101000a900473ffffffffffffffffffffffffffffffffffffffff1673ffffffffffffffffffffffffffffffffffffffff167f8be0079c531659141344cd1fd0a4f28419497f9722a3daafe3b4186f6b6457e060405160405180910390a36000600360006101000a81548173ffffffffffffffffffffffffffffffffffffffff021916908373ffffffffffffffffffffffffffffffffffffffff160217905550565b823373ffffffffffffffffffffffffffffffffffffffff166006600083815260200190815260200160002060009054906101000a900473ffffffffffffffffffffffffffffffffffffffff1673ffffffffffffffffffffffffffffffffffffffff1614611c23576040517f08c379a00000000000000000000000000000000000000000000000000000000081526004018080602001828103825260318152602001806141b26031913960400191505060405180910390fd5b611c2f8585858561300e565b8260076000868152602001908152602001600020540160076000868152602001908152602001600020819055505050505050565b60088054600181600116156101000203166002900480601f016020809104026020016040519081016040528092919081815260200182805460018160011615610100020316600290048015611cf95780601f10611cce57610100808354040283529160200191611cf9565b820191906000526020600020905b815481529060010190602001808311611cdc57829003601f168201915b505050505081565b611d096129fe565b73ffffffffffffffffffffffffffffffffffffffff16611d27611dbc565b73ffffffffffffffffffffffffffffffffffffffff1614611db0576040517f08c379a00000000000000000000000000000000000000000000000000000000081526004018080602001828103825260208152602001807f4f776e61626c653a2063616c6c6572206973206e6f7420746865206f776e657281525060200191505060405180910390fd5b611db98161315d565b50565b6000600360009054906101000a900473ffffffffffffffffffffffffffffffffffffffff16905090565b80600160003373ffffffffffffffffffffffffffffffffffffffff1673ffffffffffffffffffffffffffffffffffffffff16815260200190815260200160002060008473ffffffffffffffffffffffffffffffffffffffff1673ffffffffffffffffffffffffffffffffffffffff16815260200190815260200160002060006101000a81548160ff0219169083151502179055508173ffffffffffffffffffffffffffffffffffffffff163373ffffffffffffffffffffffffffffffffffffffff167f17307eab39ab6107e8899845ad3d59bd9653f200f220920489ca2b5937696c318360405180821515815260200191505060405180910390a35050565b60005b8351811015612014576000848281518110611eff57fe5b602002602001015190503373ffffffffffffffffffffffffffffffffffffffff166006600083815260200190815260200160002060009054906101000a900473ffffffffffffffffffffffffffffffffffffffff1673ffffffffffffffffffffffffffffffffffffffff1614611fc0576040517f08c379a000000000000000000000000000000000000000000000000000000000815260040180806020018281038252602f815260200180613f79602f913960400191505060405180910390fd5b6000848381518110611fce57fe5b6020026020010151905080600760008481526020019081526020016000205401600760008481526020019081526020016000208190555050508080600101915050611ee8565b5061202184848484613177565b50505050565b600060076000838152602001908152602001600020549050919050565b60066020528060005260406000206000915054906101000a900473ffffffffffffffffffffffffffffffffffffffff1681565b600073ffffffffffffffffffffffffffffffffffffffff168273ffffffffffffffffffffffffffffffffffffffff1614156120fd576040517f08c379a000000000000000000000000000000000000000000000000000000000815260040180806020018281038252602c815260200180614186602c913960400191505060405180910390fd5b60005b815181101561213957600082828151811061211757fe5b6020026020010151905061212b84826133fb565b508080600101915050612100565b505050565b60006121486129fe565b73ffffffffffffffffffffffffffffffffffffffff16612166611dbc565b73ffffffffffffffffffffffffffffffffffffffff16146121ef576040517f08c379a00000000000000000000000000000000000000000000000000000000081526004018080602001828103825260208152602001807f4f776e61626c653a2063616c6c6572206973206e6f7420746865206f776e657281525060200191505060405180910390fd5b60006121f961350a565b9050612203612a06565b336006600083815260200190815260200160002060006101000a81548173ffffffffffffffffffffffffffffffffffffffff021916908373ffffffffffffffffffffffffffffffffffffffff16021790555060008686905011156122c657807f6bb7ff708619ba0610cba295a58592e0451dee2622938c8755667688daf3529b878760405180806020018281038252848482818152602001925080828437600081840152601f19601f820116905080830192505050935050505060405180910390a25b61231688828987878080601f016020809104026020016040519081016040528093929190818152602001838380828437600081840152601f19601f8201169050808301925050505050505061300e565b866007600083815260200190815260200160002081905550809150509695505050505050565b600080600460009054906101000a900473ffffffffffffffffffffffffffffffffffffffff1690508273ffffffffffffffffffffffffffffffffffffffff168173ffffffffffffffffffffffffffffffffffffffff1663c4552791866040518263ffffffff1660e01b8152600401808273ffffffffffffffffffffffffffffffffffffffff16815260200191505060206040518083038186803b1580156123e257600080fd5b505afa1580156123f6573d6000803e3d6000fd5b505050506040513d602081101561240c57600080fd5b810190808051906020019092919050505073ffffffffffffffffffffffffffffffffffffffff161415612443576001915050612451565b61244d8484613517565b9150505b92915050565b8473ffffffffffffffffffffffffffffffffffffffff163373ffffffffffffffffffffffffffffffffffffffff1614806124975750612496853361233c565b5b6124ec576040517f08c379a000000000000000000000000000000000000000000000000000000000815260040180806020018281038252602a815260200180613fce602a913960400191505060405180910390fd5b600073ffffffffffffffffffffffffffffffffffffffff168473ffffffffffffffffffffffffffffffffffffffff161415612572576040517f08c379a000000000000000000000000000000000000000000000000000000000815260040180806020018281038252602b815260200180613f4e602b913960400191505060405180910390fd5b61257e858585856135ab565b61258c858585855a8661379f565b5050505050565b61259b6129fe565b73ffffffffffffffffffffffffffffffffffffffff166125b9611dbc565b73ffffffffffffffffffffffffffffffffffffffff1614612642576040517f08c379a00000000000000000000000000000000000000000000000000000000081526004018080602001828103825260208152602001807f4f776e61626c653a2063616c6c6572206973206e6f7420746865206f776e657281525060200191505060405180910390fd5b600073ffffffffffffffffffffffffffffffffffffffff168173ffffffffffffffffffffffffffffffffffffffff1614156126c8576040517f08c379a0000000000000000000000000000000000000000000000000000000008152600401808060200182810382526026815260200180613fa86026913960400191505060405180910390fd5b8073ffffffffffffffffffffffffffffffffffffffff16600360009054906101000a900473ffffffffffffffffffffffffffffffffffffffff1673ffffffffffffffffffffffffffffffffffffffff167f8be0079c531659141344cd1fd0a4f28419497f9722a3daafe3b4186f6b6457e060405160405180910390a380600360006101000a81548173ffffffffffffffffffffffffffffffffffffffff021916908373ffffffffffffffffffffffffffffffffffffffff16021790555050565b60007f0e89341c000000000000000000000000000000000000000000000000000000007bffffffffffffffffffffffffffffffffffffffffffffffffffffffff1916827bffffffffffffffffffffffffffffffffffffffffffffffffffffffff191614156127f95760019050612805565b612802826139af565b90505b919050565b60008073ffffffffffffffffffffffffffffffffffffffff166006600084815260200190815260200160002060009054906101000a900473ffffffffffffffffffffffffffffffffffffffff1673ffffffffffffffffffffffffffffffffffffffff1614159050919050565b606060008214156128be576040518060400160405280600181526020017f300000000000000000000000000000000000000000000000000000000000000081525090506129b5565b600082905060005b600082146128e8578080600101915050600a82816128e057fe5b0491506128c6565b60608167ffffffffffffffff8111801561290157600080fd5b506040519080825280601f01601f1916602001820160405280156129345781602001600182028036833780820191505090505b50905060006001830390505b600086146129ad57600a868161295257fe5b0660300160f81b8282806001900393508151811061296c57fe5b60200101907effffffffffffffffffffffffffffffffffffffffffffffffffffffffffffff1916908160001a905350600a86816129a557fe5b049550612940565b819450505050505b919050565b60606129f68383604051806020016040528060008152506040518060200160405280600081525060405180602001604052806000815250613a31565b905092915050565b600033905090565b600560008154809291906001019190505550565b8051825114612a74576040517f08c379a0000000000000000000000000000000000000000000000000000000008152600401808060200182810382526035815260200180613ff86035913960400191505060405180910390fd5b60008251905060005b81811015612c6e57612b0d838281518110612a9457fe5b60200260200101516000808973ffffffffffffffffffffffffffffffffffffffff1673ffffffffffffffffffffffffffffffffffffffff1681526020019081526020016000206000878581518110612ae857fe5b6020026020010151815260200190815260200160002054613cfb90919063ffffffff16565b6000808873ffffffffffffffffffffffffffffffffffffffff1673ffffffffffffffffffffffffffffffffffffffff1681526020019081526020016000206000868481518110612b5957fe5b6020026020010151815260200190815260200160002081905550612bfb838281518110612b8257fe5b60200260200101516000808873ffffffffffffffffffffffffffffffffffffffff1673ffffffffffffffffffffffffffffffffffffffff1681526020019081526020016000206000878581518110612bd657fe5b6020026020010151815260200190815260200160002054613d8490919063ffffffff16565b6000808773ffffffffffffffffffffffffffffffffffffffff1673ffffffffffffffffffffffffffffffffffffffff1681526020019081526020016000206000868481518110612c4757fe5b60200260200101518152602001908152602001600020819055508080600101915050612a7d565b508373ffffffffffffffffffffffffffffffffffffffff168573ffffffffffffffffffffffffffffffffffffffff163373ffffffffffffffffffffffffffffffffffffffff167f4a39dc06d4c0dbc64b70af90fd698a233a518aa5d07e595d983b8c0526c8f7fb8686604051808060200180602001838103835285818151815260200191508051906020019060200280838360005b83811015612d1e578082015181840152602081019050612d03565b50505050905001838103825284818151815260200191508051906020019060200280838360005b83811015612d60578082015181840152602081019050612d45565b5050505090500194505050505060405180910390a45050505050565b612d9b8573ffffffffffffffffffffffffffffffffffffffff16613e0c565b156130065760008573ffffffffffffffffffffffffffffffffffffffff1663bc197c8184338a8989886040518763ffffffff1660e01b8152600401808673ffffffffffffffffffffffffffffffffffffffff1681526020018573ffffffffffffffffffffffffffffffffffffffff168152602001806020018060200180602001848103845287818151815260200191508051906020019060200280838360005b83811015612e56578082015181840152602081019050612e3b565b50505050905001848103835286818151815260200191508051906020019060200280838360005b83811015612e98578082015181840152602081019050612e7d565b50505050905001848103825285818151815260200191508051906020019080838360005b83811015612ed7578082015181840152602081019050612ebc565b50505050905090810190601f168015612f045780820380516001836020036101000a031916815260200191505b5098505050505050505050602060405180830381600088803b158015612f2957600080fd5b5087f1158015612f3d573d6000803e3d6000fd5b50505050506040513d6020811015612f5457600080fd5b8101908080519060200190929190505050905063bc197c8160e01b7bffffffffffffffffffffffffffffffffffffffffffffffffffffffff1916817bffffffffffffffffffffffffffffffffffffffffffffffffffffffff191614613004576040517f08c379a000000000000000000000000000000000000000000000000000000000815260040180806020018281038252603f81526020018061410d603f913960400191505060405180910390fd5b505b505050505050565b613070826000808773ffffffffffffffffffffffffffffffffffffffff1673ffffffffffffffffffffffffffffffffffffffff168152602001908152602001600020600086815260200190815260200160002054613d8490919063ffffffff16565b6000808673ffffffffffffffffffffffffffffffffffffffff1673ffffffffffffffffffffffffffffffffffffffff1681526020019081526020016000206000858152602001908152602001600020819055508373ffffffffffffffffffffffffffffffffffffffff16600073ffffffffffffffffffffffffffffffffffffffff163373ffffffffffffffffffffffffffffffffffffffff167fc3d58168c5ae7397731d063d5bbf3d657854427343f4c083240f7aacaa2d0f628686604051808381526020018281526020019250505060405180910390a461315760008585855a8661379f565b50505050565b8060029080519060200190613173929190613ea2565b5050565b81518351146131d1576040517f08c379a00000000000000000000000000000000000000000000000000000000081526004018080602001828103825260308152602001806140dd6030913960400191505060405180910390fd5b60008351905060005b818110156132dd5761326a8482815181106131f157fe5b60200260200101516000808973ffffffffffffffffffffffffffffffffffffffff1673ffffffffffffffffffffffffffffffffffffffff168152602001908152602001600020600088858151811061324557fe5b6020026020010151815260200190815260200160002054613d8490919063ffffffff16565b6000808873ffffffffffffffffffffffffffffffffffffffff1673ffffffffffffffffffffffffffffffffffffffff16815260200190815260200160002060008784815181106132b657fe5b602002602001015181526020019081526020016000208190555080806001019150506131da565b508473ffffffffffffffffffffffffffffffffffffffff16600073ffffffffffffffffffffffffffffffffffffffff163373ffffffffffffffffffffffffffffffffffffffff167f4a39dc06d4c0dbc64b70af90fd698a233a518aa5d07e595d983b8c0526c8f7fb8787604051808060200180602001838103835285818151815260200191508051906020019060200280838360005b8381101561338e578082015181840152602081019050613373565b50505050905001838103825284818151815260200191508051906020019060200280838360005b838110156133d05780820151818401526020810190506133b5565b5050505090500194505050505060405180910390a46133f460008686865a87612d7c565b5050505050565b803373ffffffffffffffffffffffffffffffffffffffff166006600083815260200190815260200160002060009054906101000a900473ffffffffffffffffffffffffffffffffffffffff1673ffffffffffffffffffffffffffffffffffffffff16146134b3576040517f08c379a00000000000000000000000000000000000000000000000000000000081526004018080602001828103825260318152602001806141b26031913960400191505060405180910390fd5b826006600084815260200190815260200160002060006101000a81548173ffffffffffffffffffffffffffffffffffffffff021916908373ffffffffffffffffffffffffffffffffffffffff160217905550505050565b6000600160055401905090565b6000600160008473ffffffffffffffffffffffffffffffffffffffff1673ffffffffffffffffffffffffffffffffffffffff16815260200190815260200160002060008373ffffffffffffffffffffffffffffffffffffffff1673ffffffffffffffffffffffffffffffffffffffff16815260200190815260200160002060009054906101000a900460ff16905092915050565b61360d816000808773ffffffffffffffffffffffffffffffffffffffff1673ffffffffffffffffffffffffffffffffffffffff168152602001908152602001600020600085815260200190815260200160002054613cfb90919063ffffffff16565b6000808673ffffffffffffffffffffffffffffffffffffffff1673ffffffffffffffffffffffffffffffffffffffff1681526020019081526020016000206000848152602001908152602001600020819055506136c2816000808673ffffffffffffffffffffffffffffffffffffffff1673ffffffffffffffffffffffffffffffffffffffff168152602001908152602001600020600085815260200190815260200160002054613d8490919063ffffffff16565b6000808573ffffffffffffffffffffffffffffffffffffffff1673ffffffffffffffffffffffffffffffffffffffff1681526020019081526020016000206000848152602001908152602001600020819055508273ffffffffffffffffffffffffffffffffffffffff168473ffffffffffffffffffffffffffffffffffffffff163373ffffffffffffffffffffffffffffffffffffffff167fc3d58168c5ae7397731d063d5bbf3d657854427343f4c083240f7aacaa2d0f628585604051808381526020018281526020019250505060405180910390a450505050565b6137be8573ffffffffffffffffffffffffffffffffffffffff16613e0c565b156139a75760008573ffffffffffffffffffffffffffffffffffffffff1663f23a6e6184338a8989886040518763ffffffff1660e01b8152600401808673ffffffffffffffffffffffffffffffffffffffff1681526020018573ffffffffffffffffffffffffffffffffffffffff16815260200184815260200183815260200180602001828103825283818151815260200191508051906020019080838360005b8381101561387a57808201518184015260208101905061385f565b50505050905090810190601f1680156138a75780820380516001836020036101000a031916815260200191505b509650505050505050602060405180830381600088803b1580156138ca57600080fd5b5087f11580156138de573d6000803e3d6000fd5b50505050506040513d60208110156138f557600080fd5b8101908080519060200190929190505050905063f23a6e6160e01b7bffffffffffffffffffffffffffffffffffffffffffffffffffffffff1916817bffffffffffffffffffffffffffffffffffffffffffffffffffffffff1916146139a5576040517f08c379a000000000000000000000000000000000000000000000000000000000815260040180806020018281038252603a81526020018061414c603a913960400191505060405180910390fd5b505b505050505050565b60007fd9b67a26000000000000000000000000000000000000000000000000000000007bffffffffffffffffffffffffffffffffffffffffffffffffffffffff1916827bffffffffffffffffffffffffffffffffffffffffffffffffffffffff19161415613a205760019050613a2c565b613a2982613e51565b90505b919050565b60608086905060608690506060869050606086905060608690506060815183518551875189510101010167ffffffffffffffff81118015613a7157600080fd5b506040519080825280601f01601f191660200182016040528015613aa45781602001600182028036833780820191505090505b50905060608190506000805b8851811015613b1e57888181518110613ac557fe5b602001015160f81c60f81b838380600101945081518110613ae257fe5b60200101907effffffffffffffffffffffffffffffffffffffffffffffffffffffffffffff1916908160001a9053508080600101915050613ab0565b5060005b8751811015613b9057878181518110613b3757fe5b602001015160f81c60f81b838380600101945081518110613b5457fe5b60200101907effffffffffffffffffffffffffffffffffffffffffffffffffffffffffffff1916908160001a9053508080600101915050613b22565b5060005b8651811015613c0257868181518110613ba957fe5b602001015160f81c60f81b838380600101945081518110613bc657fe5b60200101907effffffffffffffffffffffffffffffffffffffffffffffffffffffffffffff1916908160001a9053508080600101915050613b94565b5060005b8551811015613c7457858181518110613c1b57fe5b602001015160f81c60f81b838380600101945081518110613c3857fe5b60200101907effffffffffffffffffffffffffffffffffffffffffffffffffffffffffffff1916908160001a9053508080600101915050613c06565b5060005b8451811015613ce657848181518110613c8d57fe5b602001015160f81c60f81b838380600101945081518110613caa57fe5b60200101907effffffffffffffffffffffffffffffffffffffffffffffffffffffffffffff1916908160001a9053508080600101915050613c78565b50819850505050505050505095945050505050565b600082821115613d73576040517f08c379a00000000000000000000000000000000000000000000000000000000081526004018080602001828103825260178152602001807f536166654d617468237375623a20554e444552464c4f5700000000000000000081525060200191505060405180910390fd5b600082840390508091505092915050565b600080828401905083811015613e02576040517f08c379a00000000000000000000000000000000000000000000000000000000081526004018080602001828103825260168152602001807f536166654d617468236164643a204f564552464c4f570000000000000000000081525060200191505060405180910390fd5b8091505092915050565b600080823f90506000801b8114158015613e4957507fc5d2460186f7233c927e7db2dcc703c0e500b653ca82273b7bfad8045d85a47060001b8114155b915050919050565b60006301ffc9a760e01b7bffffffffffffffffffffffffffffffffffffffffffffffffffffffff1916827bffffffffffffffffffffffffffffffffffffffffffffffffffffffff1916149050919050565b828054600181600116156101000203166002900490600052602060002090601f016020900481019282613ed85760008555613f1f565b82601f10613ef157805160ff1916838001178555613f1f565b82800160010185558215613f1f579182015b82811115613f1e578251825591602001919060010190613f03565b5b509050613f2c9190613f30565b5090565b5b80821115613f49576000816000905550600101613f31565b509056fe4552433131353523736166655472616e7366657246726f6d3a20494e56414c49445f524543495049454e54455243313135355472616461626c652362617463684d696e743a204f4e4c595f43524541544f525f414c4c4f5745444f776e61626c653a206e6577206f776e657220697320746865207a65726f20616464726573734552433131353523736166655472616e7366657246726f6d3a20494e56414c49445f4f50455241544f5245524331313535235f7361666542617463685472616e7366657246726f6d3a20494e56414c49445f4152524159535f4c454e47544845524331313535237361666542617463685472616e7366657246726f6d3a20494e56414c49445f524543495049454e544552433732315472616461626c65237572693a204e4f4e4558495354454e545f544f4b454e455243313135352362616c616e63654f6642617463683a20494e56414c49445f41525241595f4c454e47544845524331313535237361666542617463685472616e7366657246726f6d3a20494e56414c49445f4f50455241544f52455243313135354d696e744275726e2362617463684d696e743a20494e56414c49445f4152524159535f4c454e47544845524331313535235f63616c6c6f6e45524331313535426174636852656365697665643a20494e56414c49445f4f4e5f524543454956455f4d45535341474545524331313535235f63616c6c6f6e4552433131353552656365697665643a20494e56414c49445f4f4e5f524543454956455f4d455353414745455243313135355472616461626c652373657443726561746f723a20494e56414c49445f414444524553532e455243313135355472616461626c652363726561746f724f6e6c793a204f4e4c595f43524541544f525f414c4c4f574544a2646970667358221220ce165cb84398f1bb9a34b62e11c0e67d56bc72bda658c20d562954848abc76ba64736f6c63430007040033",
  "immutableReferences": {},
  "source": "pragma solidity ^0.7.0;\n\n// SPDX-License-Identifier: UNLICENSED\n\nimport \"openzeppelin-solidity/contracts/access/Ownable.sol\";\nimport '@0xsequence/erc-1155/contracts/tokens/ERC1155/ERC1155.sol';\nimport '@0xsequence/erc-1155/contracts/tokens/ERC1155/ERC1155Metadata.sol';\nimport '@0xsequence/erc-1155/contracts/tokens/ERC1155/ERC1155MintBurn.sol';\nimport \"./Strings.sol\";\n\ncontract OwnableDelegateProxyWithCreators { }\n\ncontract ProxyRegistryWithCreators {\n  mapping(address => OwnableDelegateProxyWithCreators) public proxies;\n}\n\n/** @title ERC1155Tradable\n * ERC1155Tradable - ERC1155 contract that whitelists an operator address, has create and mint functionality, and supports useful standards from OpenZeppelin,\n  like _exists(), name(), symbol(), and totalSupply() */\ncontract ERC1155TradableWithCreators is ERC1155, ERC1155MintBurn, ERC1155Metadata, Ownable {\n  using Strings for string;\n\n  address proxyRegistryAddress;\n  uint256 private _currentTokenID = 0;\n  mapping (uint256 => address) public creators;\n  mapping (uint256 => uint256) public tokenSupply;\n  string public contractName;\n  string public contractSymbol;\n\n  function supportsInterface(bytes4 _interfaceID) public override(ERC1155, ERC1155Metadata) pure returns (bool) {\n    return super.supportsInterface(_interfaceID);\n  }\n  \n  /** @dev Require msg.sender to be the creator of the token id */\n  modifier creatorOnly(uint256 _id) {\n    require(creators[_id] == msg.sender, \"ERC1155Tradable#creatorOnly: ONLY_CREATOR_ALLOWED\");\n    _;\n  }\n\n  constructor(string memory _name, string memory _symbol, address _proxyRegistryAddress) {\n    contractName = _name;\n    contractSymbol = _symbol;\n    proxyRegistryAddress = _proxyRegistryAddress;\n  }\n\n  function uri(uint256 _id) public virtual override view returns (string memory) {\n    require(_exists(_id), \"ERC721Tradable#uri: NONEXISTENT_TOKEN\");\n    return Strings.strConcat(baseMetadataURI, Strings.uint2str(_id));\n  }\n\n  /** @dev Returns the total quantity for a token ID\n    * @param _id uint256 ID of the token to query\n    * @return amount of token in existence */\n  function totalSupply(uint256 _id) public view returns (uint256) {\n    return tokenSupply[_id];\n  }\n\n  /** @dev Will update the base URL of token's URI @param _newBaseMetadataURI New base URL of token's URI */\n  function setBaseMetadataURI(string memory _newBaseMetadataURI) public onlyOwner {\n    _setBaseMetadataURI(_newBaseMetadataURI);\n  }\n\n  /**\n    * @dev Creates a new token type and assigns _initialSupply to an address\n    * NOTE: remove onlyOwner if you want third parties to create new tokens on your contract (which may change your IDs)\n    * @param _initialOwner address of the first owner of the token\n    * @param _initialSupply amount to supply the first owner\n    * @param _uri Optional URI for this token type\n    * @param _data Data to pass if receiver is contract\n    * @return The newly created token ID\n    */\n  function create(\n    address _initialOwner,\n    uint256 _initialSupply,\n    string calldata _uri,\n    bytes calldata _data\n  ) external onlyOwner returns (uint256) {\n\n    uint256 _id = _getNextTokenID();\n    _incrementTokenTypeId();\n    creators[_id] = msg.sender;\n\n    if (bytes(_uri).length > 0) {\n      emit URI(_uri, _id);\n    }\n\n    _mint(_initialOwner, _id, _initialSupply, _data);\n    tokenSupply[_id] = _initialSupply;\n    return _id;\n  }\n\n  /**\n    * @dev Mints some amount of tokens to an address\n    * @param _to          Address of the future owner of the token\n    * @param _id          Token ID to mint\n    * @param _quantity    Amount of tokens to mint\n    * @param _data        Data to pass if receiver is contract\n    */\n  function mint(\n    address _to,\n    uint256 _id,\n    uint256 _quantity,\n    bytes memory _data\n  ) public creatorOnly(_id) {\n    _mint(_to, _id, _quantity, _data);\n    tokenSupply[_id] = tokenSupply[_id] + _quantity;\n  }\n\n  /**\n    * @dev Mint tokens for each id in _ids\n    * @param _to          The address to mint tokens to\n    * @param _ids         Array of ids to mint\n    * @param _quantities  Array of amounts of tokens to mint per id\n    * @param _data        Data to pass if receiver is contract\n    */\n  function batchMint(\n    address _to,\n    uint256[] memory _ids,\n    uint256[] memory _quantities,\n    bytes memory _data\n  ) public {\n    for (uint256 i = 0; i < _ids.length; i++) {\n      uint256 _id = _ids[i];\n      require(creators[_id] == msg.sender, \"ERC1155Tradable#batchMint: ONLY_CREATOR_ALLOWED\");\n      uint256 quantity = _quantities[i];\n      tokenSupply[_id] = tokenSupply[_id] + quantity;\n    }\n    _batchMint(_to, _ids, _quantities, _data);\n  }\n\n  /**\n    * @dev Change the creator address for given tokens\n    * @param _to   Address of the new creator\n    * @param _ids  Array of Token IDs to change creator\n    */\n  function setCreator(\n    address _to,\n    uint256[] memory _ids\n  ) public {\n    require(_to != address(0), \"ERC1155Tradable#setCreator: INVALID_ADDRESS.\");\n    for (uint256 i = 0; i < _ids.length; i++) {\n      uint256 id = _ids[i];\n      _setCreator(_to, id);\n    }\n  }\n\n  /**\n   * Override isApprovedForAll to whitelist user's OpenSea proxy accounts to enable gas-free listings.\n   */\n  function isApprovedForAll(\n    address _owner,\n    address _operator\n  ) public view override returns (bool isOperator) {\n    // Whitelist OpenSea proxy contract for easy trading.\n    ProxyRegistryWithCreators proxyRegistry = ProxyRegistryWithCreators(proxyRegistryAddress);\n    if (address(proxyRegistry.proxies(_owner)) == _operator) {\n      return true;\n    }\n\n    return ERC1155.isApprovedForAll(_owner, _operator);\n  }\n\n  /**\n    * @dev Change the creator address for given token\n    * @param _to   Address of the new creator\n    * @param _id  Token IDs to change creator of\n    */\n  function _setCreator(address _to, uint256 _id) internal creatorOnly(_id)\n  {\n      creators[_id] = _to;\n  }\n\n  /**\n    * @dev Returns whether the specified token exists by checking to see if it has a creator\n    * @param _id uint256 ID of the token to query the existence of\n    * @return bool whether the token exists\n    */\n  function _exists(\n    uint256 _id\n  ) internal view returns (bool) {\n    return creators[_id] != address(0);\n  }\n\n  /**\n    * @dev calculates the next token ID based on value of _currentTokenID\n    * @return uint256 for the next token ID\n    */\n  function _getNextTokenID() private view returns (uint256) {\n    return _currentTokenID + 1;\n  }\n\n  /**\n    * @dev increments the value of _currentTokenID\n    */\n  function _incrementTokenTypeId() private  {\n    _currentTokenID++;\n  }\n\n  /** @dev Mint tokens, generating id for each value in _quantities\n    * @param _to          The address to mint tokens to\n    * @param _quantities  Array of amounts of tokens to mint per id\n    * @param _data        Data to pass if receiver is contract\n    * returns array of id */  \n  function batchMintWithNoId(address _to, uint256[] memory _quantities, bytes memory _data) public onlyOwner returns (uint256[] memory) {\n    uint256[] memory _ids = new uint256[](_quantities.length);\n    for (uint256 i = 0; i < _quantities.length; i++) {\n      _incrementTokenTypeId();\n      _ids[i] = _currentTokenID;\n    }\n    batchMint(_to, _ids, _quantities, _data);\n    return _ids;\n  }\n\n  /** @dev Mints some amount of tokens to an address, generating a new token id\n    * @param _to          Address of the future owner of the token\n    * @param _quantity    Amount of tokens to mint\n    * @param _data        Data to pass if receiver is contract\n    * returns id*/\n  function mintWithNoId(address _to, uint256 _quantity, bytes memory _data) public onlyOwner returns (uint256) {\n    _incrementTokenTypeId();\n    mint(_to, _currentTokenID, _quantity, _data);\n    return _currentTokenID;\n  }    \n}\n",
  "sourcePath": "C:/playground/Blockchain/npp_v3/contracts/ERC1155TradableWithCreators.sol",
  "compiler": {
    "name": "solc",
    "version": "0.7.4+commit.3f05b770.Emscripten.clang"
  },
  "schemaVersion": "3.3.4",
  "updatedAt": "2021-05-01T03:09:33.526Z",
  "devdoc": {
    "kind": "dev",
    "methods": {
      "balanceOf(address,uint256)": {
        "params": {
          "_id": "ID of the Token",
          "_owner": "The address of the token holder"
        },
        "returns": {
          "_0": "The _owner's balance of the Token type requested"
        }
      },
      "balanceOfBatch(address[],uint256[])": {
        "params": {
          "_ids": "ID of the Tokens",
          "_owners": "The addresses of the token holders"
        },
        "returns": {
          "_0": "The _owner's balance of the Token types requested (i.e. balance for each (owner, id) pair)"
        }
      },
      "batchMint(address,uint256[],uint256[],bytes)": {
        "details": "Mint tokens for each id in _ids",
        "params": {
          "_data": "Data to pass if receiver is contract",
          "_ids": "Array of ids to mint",
          "_quantities": "Array of amounts of tokens to mint per id",
          "_to": "The address to mint tokens to"
        }
      },
      "batchMintWithNoId(address,uint256[],bytes)": {
        "details": "Mint tokens, generating id for each value in _quantities",
        "params": {
          "_data": "Data to pass if receiver is contract returns array of id ",
          "_quantities": "Array of amounts of tokens to mint per id",
          "_to": "The address to mint tokens to"
        }
      },
      "create(address,uint256,string,bytes)": {
        "details": "Creates a new token type and assigns _initialSupply to an address NOTE: remove onlyOwner if you want third parties to create new tokens on your contract (which may change your IDs)",
        "params": {
          "_data": "Data to pass if receiver is contract",
          "_initialOwner": "address of the first owner of the token",
          "_initialSupply": "amount to supply the first owner",
          "_uri": "Optional URI for this token type"
        },
        "returns": {
          "_0": "The newly created token ID"
        }
      },
      "mint(address,uint256,uint256,bytes)": {
        "details": "Mints some amount of tokens to an address",
        "params": {
          "_data": "Data to pass if receiver is contract",
          "_id": "Token ID to mint",
          "_quantity": "Amount of tokens to mint",
          "_to": "Address of the future owner of the token"
        }
      },
      "mintWithNoId(address,uint256,bytes)": {
        "details": "Mints some amount of tokens to an address, generating a new token id",
        "params": {
          "_data": "Data to pass if receiver is contract returns id",
          "_quantity": "Amount of tokens to mint",
          "_to": "Address of the future owner of the token"
        }
      },
      "owner()": {
        "details": "Returns the address of the current owner."
      },
      "renounceOwnership()": {
        "details": "Leaves the contract without owner. It will not be possible to call `onlyOwner` functions anymore. Can only be called by the current owner. NOTE: Renouncing ownership will leave the contract without an owner, thereby removing any functionality that is only available to the owner."
      },
      "safeBatchTransferFrom(address,address,uint256[],uint256[],bytes)": {
        "params": {
          "_amounts": "Transfer amounts per token type",
          "_data": "Additional data with no specified format, sent in call to `_to`",
          "_from": "Source addresses",
          "_ids": "IDs of each token type",
          "_to": "Target addresses"
        }
      },
      "safeTransferFrom(address,address,uint256,uint256,bytes)": {
        "params": {
          "_amount": "Transfered amount",
          "_data": "Additional data with no specified format, sent in call to `_to`",
          "_from": "Source address",
          "_id": "ID of the token type",
          "_to": "Target address"
        }
      },
      "setApprovalForAll(address,bool)": {
        "params": {
          "_approved": "True if the operator is approved, false to revoke approval",
          "_operator": "Address to add to the set of authorized operators"
        }
      },
      "setBaseMetadataURI(string)": {
        "details": "Will update the base URL of token's URI @param _newBaseMetadataURI New base URL of token's URI "
      },
      "setCreator(address,uint256[])": {
        "details": "Change the creator address for given tokens",
        "params": {
          "_ids": "Array of Token IDs to change creator",
          "_to": "Address of the new creator"
        }
      },
      "totalSupply(uint256)": {
        "details": "Returns the total quantity for a token ID",
        "params": {
          "_id": "uint256 ID of the token to query"
        },
        "returns": {
          "_0": "amount of token in existence "
        }
      },
      "transferOwnership(address)": {
        "details": "Transfers ownership of the contract to a new account (`newOwner`). Can only be called by the current owner."
      },
      "uri(uint256)": {
        "details": "URIs are defined in RFC 3986.      URIs are assumed to be deterministically generated based on token ID",
        "returns": {
          "_0": "URI string"
        }
      }
    },
    "title": "ERC1155Tradable ERC1155Tradable - ERC1155 contract that whitelists an operator address, has create and mint functionality, and supports useful standards from OpenZeppelin, like _exists(), name(), symbol(), and totalSupply() ",
    "version": 1
  },
  "userdoc": {
    "kind": "user",
    "methods": {
      "balanceOf(address,uint256)": {
        "notice": "Get the balance of an account's Tokens"
      },
      "balanceOfBatch(address[],uint256[])": {
        "notice": "Get the balance of multiple account/token pairs"
      },
      "isApprovedForAll(address,address)": {
        "notice": "Override isApprovedForAll to whitelist user's OpenSea proxy accounts to enable gas-free listings."
      },
      "safeBatchTransferFrom(address,address,uint256[],uint256[],bytes)": {
        "notice": "Send multiple types of Tokens from the _from address to the _to address (with safety call)"
      },
      "safeTransferFrom(address,address,uint256,uint256,bytes)": {
        "notice": "Transfers amount amount of an _id from the _from address to the _to address specified"
      },
      "setApprovalForAll(address,bool)": {
        "notice": "Enable or disable approval for a third party (\"operator\") to manage all of caller's tokens"
      },
      "uri(uint256)": {
        "notice": "A distinct Uniform Resource Identifier (URI) for a given token."
      }
    },
    "version": 1
  }
}