{
  "contractName": "Groups",
  "abi": [
    {
      "inputs": [],
      "stateMutability": "nonpayable",
      "type": "constructor"
    },
    {
      "anonymous": false,
      "inputs": [
        {
          "indexed": true,
          "internalType": "address",
          "name": "previousOwner",
          "type": "address"
        },
        {
          "indexed": true,
          "internalType": "address",
          "name": "newOwner",
          "type": "address"
        }
      ],
      "name": "OwnershipTransferred",
      "type": "event"
    },
    {
      "inputs": [
        {
          "internalType": "uint256",
          "name": "",
          "type": "uint256"
        }
      ],
      "name": "GroupStructs",
      "outputs": [
        {
          "internalType": "string",
          "name": "title",
          "type": "string"
        },
        {
          "internalType": "uint256",
          "name": "weight",
          "type": "uint256"
        },
        {
          "internalType": "bool",
          "name": "isActive",
          "type": "bool"
        }
      ],
      "stateMutability": "view",
      "type": "function"
    },
    {
      "inputs": [],
      "name": "groupCount",
      "outputs": [
        {
          "internalType": "uint256",
          "name": "",
          "type": "uint256"
        }
      ],
      "stateMutability": "view",
      "type": "function"
    },
    {
      "inputs": [],
      "name": "owner",
      "outputs": [
        {
          "internalType": "address",
          "name": "",
          "type": "address"
        }
      ],
      "stateMutability": "view",
      "type": "function"
    },
    {
      "inputs": [],
      "name": "renounceOwnership",
      "outputs": [],
      "stateMutability": "nonpayable",
      "type": "function"
    },
    {
      "inputs": [
        {
          "internalType": "address",
          "name": "newOwner",
          "type": "address"
        }
      ],
      "name": "transferOwnership",
      "outputs": [],
      "stateMutability": "nonpayable",
      "type": "function"
    },
    {
      "inputs": [
        {
          "internalType": "bool",
          "name": "_isNew",
          "type": "bool"
        },
        {
          "internalType": "uint256",
          "name": "_id",
          "type": "uint256"
        },
        {
          "internalType": "string",
          "name": "_title",
          "type": "string"
        },
        {
          "internalType": "uint256",
          "name": "_weight",
          "type": "uint256"
        },
        {
          "internalType": "bool",
          "name": "_isActive",
          "type": "bool"
        }
      ],
      "name": "addUpdateGroup",
      "outputs": [],
      "stateMutability": "nonpayable",
      "type": "function"
    },
    {
      "inputs": [
        {
          "internalType": "uint256",
          "name": "_id",
          "type": "uint256"
        },
        {
          "internalType": "bool",
          "name": "_isActive",
          "type": "bool"
        }
      ],
      "name": "setGroupActive",
      "outputs": [],
      "stateMutability": "nonpayable",
      "type": "function"
    }
  ],
  "bytecode": "0x6080604052600060025534801561001557600080fd5b5060006100266100c960201b60201c565b9050806000806101000a81548173ffffffffffffffffffffffffffffffffffffffff021916908373ffffffffffffffffffffffffffffffffffffffff1602179055508073ffffffffffffffffffffffffffffffffffffffff16600073ffffffffffffffffffffffffffffffffffffffff167f8be0079c531659141344cd1fd0a4f28419497f9722a3daafe3b4186f6b6457e060405160405180910390a3506100d1565b600033905090565b610daa806100e06000396000f3fe608060405234801561001057600080fd5b506004361061007d5760003560e01c80638f23b3261161005b5780638f23b326146101a7578063e4476164146101c5578063e9afbcaa1461027c578063f2fde38b146102b65761007d565b80632319ebdb14610082578063715018a6146101695780638da5cb5b14610173575b600080fd5b610167600480360360a081101561009857600080fd5b8101908080351515906020019092919080359060200190929190803590602001906401000000008111156100cb57600080fd5b8201836020820111156100dd57600080fd5b803590602001918460018302840111640100000000831117156100ff57600080fd5b91908080601f016020809104026020016040519081016040528093929190818152602001838380828437600081840152601f19601f820116905080830192505050505050509192919290803590602001909291908035151590602001909291905050506102fa565b005b61017161067c565b005b61017b6107e9565b604051808273ffffffffffffffffffffffffffffffffffffffff16815260200191505060405180910390f35b6101af610812565b6040518082815260200191505060405180910390f35b6101f1600480360360208110156101db57600080fd5b8101908080359060200190929190505050610818565b60405180806020018481526020018315158152602001828103825285818151815260200191508051906020019080838360005b8381101561023f578082015181840152602081019050610224565b50505050905090810190601f16801561026c5780820380516001836020036101000a031916815260200191505b5094505050505060405180910390f35b6102b46004803603604081101561029257600080fd5b81019080803590602001909291908035151590602001909291905050506108e7565b005b6102f8600480360360208110156102cc57600080fd5b81019080803573ffffffffffffffffffffffffffffffffffffffff169060200190929190505050610a3e565b005b610302610c30565b73ffffffffffffffffffffffffffffffffffffffff166103206107e9565b73ffffffffffffffffffffffffffffffffffffffff16146103a9576040517f08c379a00000000000000000000000000000000000000000000000000000000081526004018080602001828103825260208152602001807f4f776e61626c653a2063616c6c6572206973206e6f7420746865206f776e657281525060200191505060405180910390fd5b848481806103c7575060006002541180156103c657508060025410155b5b61041c576040517f08c379a0000000000000000000000000000000000000000000000000000000008152600401808060200182810382526027815260200180610d4e6027913960400191505060405180910390fd5b6000855111610493576040517f08c379a00000000000000000000000000000000000000000000000000000000081526004018080602001828103825260168152602001807f5f7469746c652063616e6e6f7420626520626c616e6b0000000000000000000081525060200191505060405180910390fd5b60008411610509576040517f08c379a000000000000000000000000000000000000000000000000000000000815260040180806020018281038252601e8152602001807f5f776569676874206d7573742062652067726561746572207468616e2030000081525060200191505060405180910390fd5b866105f457600060025411610586576040517f08c379a00000000000000000000000000000000000000000000000000000000081526004018080602001828103825260138152602001807f4e6f2067726f75707320746f207570646174650000000000000000000000000081525060200191505060405180910390fd5b600060025411801561059a57506002548611155b6105ef576040517f08c379a0000000000000000000000000000000000000000000000000000000008152600401808060200182810382526028815260200180610d266028913960400191505060405180910390fd5b6105ff565b6105fc610c38565b95505b84600160008881526020019081526020016000206000019080519060200190610629929190610c54565b50836001600088815260200190815260200160002060010181905550826001600088815260200190815260200160002060020160006101000a81548160ff02191690831515021790555050505050505050565b610684610c30565b73ffffffffffffffffffffffffffffffffffffffff166106a26107e9565b73ffffffffffffffffffffffffffffffffffffffff161461072b576040517f08c379a00000000000000000000000000000000000000000000000000000000081526004018080602001828103825260208152602001807f4f776e61626c653a2063616c6c6572206973206e6f7420746865206f776e657281525060200191505060405180910390fd5b600073ffffffffffffffffffffffffffffffffffffffff1660008054906101000a900473ffffffffffffffffffffffffffffffffffffffff1673ffffffffffffffffffffffffffffffffffffffff167f8be0079c531659141344cd1fd0a4f28419497f9722a3daafe3b4186f6b6457e060405160405180910390a360008060006101000a81548173ffffffffffffffffffffffffffffffffffffffff021916908373ffffffffffffffffffffffffffffffffffffffff160217905550565b60008060009054906101000a900473ffffffffffffffffffffffffffffffffffffffff16905090565b60025481565b6001602052806000526040600020600091509050806000018054600181600116156101000203166002900480601f0160208091040260200160405190810160405280929190818152602001828054600181600116156101000203166002900480156108c45780601f10610899576101008083540402835291602001916108c4565b820191906000526020600020905b8154815290600101906020018083116108a757829003601f168201915b5050505050908060010154908060020160009054906101000a900460ff16905083565b6108ef610c30565b73ffffffffffffffffffffffffffffffffffffffff1661090d6107e9565b73ffffffffffffffffffffffffffffffffffffffff1614610996576040517f08c379a00000000000000000000000000000000000000000000000000000000081526004018080602001828103825260208152602001807f4f776e61626c653a2063616c6c6572206973206e6f7420746865206f776e657281525060200191505060405180910390fd5b60008281806109b5575060006002541180156109b457508060025410155b5b610a0a576040517f08c379a0000000000000000000000000000000000000000000000000000000008152600401808060200182810382526027815260200180610d4e6027913960400191505060405180910390fd5b826001600086815260200190815260200160002060020160006101000a81548160ff02191690831515021790555050505050565b610a46610c30565b73ffffffffffffffffffffffffffffffffffffffff16610a646107e9565b73ffffffffffffffffffffffffffffffffffffffff1614610aed576040517f08c379a00000000000000000000000000000000000000000000000000000000081526004018080602001828103825260208152602001807f4f776e61626c653a2063616c6c6572206973206e6f7420746865206f776e657281525060200191505060405180910390fd5b600073ffffffffffffffffffffffffffffffffffffffff168173ffffffffffffffffffffffffffffffffffffffff161415610b73576040517f08c379a0000000000000000000000000000000000000000000000000000000008152600401808060200182810382526026815260200180610d006026913960400191505060405180910390fd5b8073ffffffffffffffffffffffffffffffffffffffff1660008054906101000a900473ffffffffffffffffffffffffffffffffffffffff1673ffffffffffffffffffffffffffffffffffffffff167f8be0079c531659141344cd1fd0a4f28419497f9722a3daafe3b4186f6b6457e060405160405180910390a3806000806101000a81548173ffffffffffffffffffffffffffffffffffffffff021916908373ffffffffffffffffffffffffffffffffffffffff16021790555050565b600033905090565b6000600260008154809291906001019190505550600254905090565b828054600181600116156101000203166002900490600052602060002090601f016020900481019282610c8a5760008555610cd1565b82601f10610ca357805160ff1916838001178555610cd1565b82800160010185558215610cd1579182015b82811115610cd0578251825591602001919060010190610cb5565b5b509050610cde9190610ce2565b5090565b5b80821115610cfb576000816000905550600101610ce3565b509056fe4f776e61626c653a206e6577206f776e657220697320746865207a65726f20616464726573735f69642069732067726561746572207468616e20746865206e756d626572206f662067726f7570735f6964206d757374206265206c6f776572207468616e206e756d626572206f662067726f757073a26469706673582212206d1cc106e56fdefd03b27f4d0f426a81a6e5bf15c620997bf92c42a59b49225464736f6c63430007040033",
  "immutableReferences": {},
  "source": "pragma solidity ^0.7.0;\n\n// SPDX-License-Identifier: UNLICENSED\nimport \"openzeppelin-solidity/contracts/access/Ownable.sol\";\n\ncontract Groups is Ownable{\n  constructor() {}\n\n  struct Group {\n    string title;\n    uint256 weight;\n    bool isActive;\n  }\n  mapping (uint256 => Group) public GroupStructs;\n  uint256 public groupCount = 0;\n\n  modifier groupIdExists(bool _isNew, uint256 _id) {\n    require(_isNew || (groupCount > 0 && groupCount >= _id), \"_id must be lower than number of groups\");\n    _;\n  }\n\n  function addUpdateGroup(bool _isNew, uint256 _id, string memory _title, uint256 _weight, bool _isActive) public onlyOwner groupIdExists(_isNew, _id) {\n    require(bytes(_title).length > 0, \"_title cannot be blank\");\n    require(_weight > 0, \"_weight must be greater than 0\");\n    if (!_isNew) \n    {\n      require(groupCount > 0, \"No groups to update\");\n      require(groupCount > 0 && _id <= groupCount, \"_id is greater than the number of groups\");\n    }\n    else\n      _id = _incrementGroupCount();\n    GroupStructs[_id].title = _title;\n    GroupStructs[_id].weight = _weight;\n    GroupStructs[_id].isActive = _isActive;\n  }\n\n  function _incrementGroupCount() private returns(uint) {\n    groupCount++;\n    return groupCount;\n  }    \n\n  function setGroupActive(uint256 _id, bool _isActive) public onlyOwner groupIdExists(false, _id) {\n    GroupStructs[_id].isActive = _isActive;\n  }\n}\n",
  "sourcePath": "C:\\playground\\Blockchain\\npp_v3\\contracts\\Groups.sol",
  "compiler": {
    "name": "solc",
    "version": "0.7.4+commit.3f05b770.Emscripten.clang"
  },
  "schemaVersion": "3.3.4",
  "updatedAt": "2021-05-01T03:09:33.599Z",
  "devdoc": {
    "kind": "dev",
    "methods": {
      "owner()": {
        "details": "Returns the address of the current owner."
      },
      "renounceOwnership()": {
        "details": "Leaves the contract without owner. It will not be possible to call `onlyOwner` functions anymore. Can only be called by the current owner. NOTE: Renouncing ownership will leave the contract without an owner, thereby removing any functionality that is only available to the owner."
      },
      "transferOwnership(address)": {
        "details": "Transfers ownership of the contract to a new account (`newOwner`). Can only be called by the current owner."
      }
    },
    "version": 1
  },
  "userdoc": {
    "kind": "user",
    "methods": {},
    "version": 1
  }
}