{
  "contractName": "NFTPuzzlePieces",
  "abi": [
    {
      "inputs": [
        {
          "internalType": "address",
          "name": "_proxyRegistryAddress",
          "type": "address"
        }
      ],
      "stateMutability": "nonpayable",
      "type": "constructor"
    },
    {
      "anonymous": false,
      "inputs": [
        {
          "indexed": true,
          "internalType": "address",
          "name": "_owner",
          "type": "address"
        },
        {
          "indexed": true,
          "internalType": "address",
          "name": "_operator",
          "type": "address"
        },
        {
          "indexed": false,
          "internalType": "bool",
          "name": "_approved",
          "type": "bool"
        }
      ],
      "name": "ApprovalForAll",
      "type": "event"
    },
    {
      "anonymous": false,
      "inputs": [
        {
          "indexed": true,
          "internalType": "address",
          "name": "previousOwner",
          "type": "address"
        },
        {
          "indexed": true,
          "internalType": "address",
          "name": "newOwner",
          "type": "address"
        }
      ],
      "name": "OwnershipTransferred",
      "type": "event"
    },
    {
      "anonymous": false,
      "inputs": [
        {
          "indexed": true,
          "internalType": "address",
          "name": "_operator",
          "type": "address"
        },
        {
          "indexed": true,
          "internalType": "address",
          "name": "_from",
          "type": "address"
        },
        {
          "indexed": true,
          "internalType": "address",
          "name": "_to",
          "type": "address"
        },
        {
          "indexed": false,
          "internalType": "uint256[]",
          "name": "_ids",
          "type": "uint256[]"
        },
        {
          "indexed": false,
          "internalType": "uint256[]",
          "name": "_amounts",
          "type": "uint256[]"
        }
      ],
      "name": "TransferBatch",
      "type": "event"
    },
    {
      "anonymous": false,
      "inputs": [
        {
          "indexed": true,
          "internalType": "address",
          "name": "_operator",
          "type": "address"
        },
        {
          "indexed": true,
          "internalType": "address",
          "name": "_from",
          "type": "address"
        },
        {
          "indexed": true,
          "internalType": "address",
          "name": "_to",
          "type": "address"
        },
        {
          "indexed": false,
          "internalType": "uint256",
          "name": "_id",
          "type": "uint256"
        },
        {
          "indexed": false,
          "internalType": "uint256",
          "name": "_amount",
          "type": "uint256"
        }
      ],
      "name": "TransferSingle",
      "type": "event"
    },
    {
      "anonymous": false,
      "inputs": [
        {
          "indexed": false,
          "internalType": "string",
          "name": "_uri",
          "type": "string"
        },
        {
          "indexed": true,
          "internalType": "uint256",
          "name": "_id",
          "type": "uint256"
        }
      ],
      "name": "URI",
      "type": "event"
    },
    {
      "inputs": [
        {
          "internalType": "uint256",
          "name": "",
          "type": "uint256"
        }
      ],
      "name": "GroupStructs",
      "outputs": [
        {
          "internalType": "string",
          "name": "title",
          "type": "string"
        },
        {
          "internalType": "uint256",
          "name": "weight",
          "type": "uint256"
        },
        {
          "internalType": "bool",
          "name": "isActive",
          "type": "bool"
        }
      ],
      "stateMutability": "view",
      "type": "function",
      "constant": true
    },
    {
      "inputs": [
        {
          "internalType": "uint256",
          "name": "",
          "type": "uint256"
        }
      ],
      "name": "PuzzleStructs",
      "outputs": [
        {
          "internalType": "string",
          "name": "title",
          "type": "string"
        },
        {
          "internalType": "uint256",
          "name": "width",
          "type": "uint256"
        },
        {
          "internalType": "uint256",
          "name": "height",
          "type": "uint256"
        },
        {
          "internalType": "bool",
          "name": "isActive",
          "type": "bool"
        },
        {
          "internalType": "uint256",
          "name": "balance",
          "type": "uint256"
        },
        {
          "internalType": "uint256",
          "name": "group",
          "type": "uint256"
        },
        {
          "internalType": "uint256",
          "name": "minTokenId",
          "type": "uint256"
        },
        {
          "internalType": "uint256",
          "name": "maxTokenId",
          "type": "uint256"
        },
        {
          "internalType": "uint256",
          "name": "weight",
          "type": "uint256"
        }
      ],
      "stateMutability": "view",
      "type": "function",
      "constant": true
    },
    {
      "inputs": [
        {
          "internalType": "uint256",
          "name": "",
          "type": "uint256"
        },
        {
          "internalType": "uint256",
          "name": "",
          "type": "uint256"
        },
        {
          "internalType": "uint256",
          "name": "",
          "type": "uint256"
        }
      ],
      "name": "PuzzlesToClassToTokens",
      "outputs": [
        {
          "internalType": "uint256",
          "name": "",
          "type": "uint256"
        }
      ],
      "stateMutability": "view",
      "type": "function",
      "constant": true
    },
    {
      "inputs": [
        {
          "internalType": "bool",
          "name": "_isNew",
          "type": "bool"
        },
        {
          "internalType": "uint256",
          "name": "_id",
          "type": "uint256"
        },
        {
          "internalType": "string",
          "name": "_title",
          "type": "string"
        },
        {
          "internalType": "uint256",
          "name": "_weight",
          "type": "uint256"
        },
        {
          "internalType": "bool",
          "name": "_isActive",
          "type": "bool"
        }
      ],
      "name": "addUpdateGroup",
      "outputs": [],
      "stateMutability": "nonpayable",
      "type": "function"
    },
    {
      "inputs": [
        {
          "internalType": "address",
          "name": "_owner",
          "type": "address"
        },
        {
          "internalType": "uint256",
          "name": "_id",
          "type": "uint256"
        }
      ],
      "name": "balanceOf",
      "outputs": [
        {
          "internalType": "uint256",
          "name": "",
          "type": "uint256"
        }
      ],
      "stateMutability": "view",
      "type": "function",
      "constant": true
    },
    {
      "inputs": [
        {
          "internalType": "address[]",
          "name": "_owners",
          "type": "address[]"
        },
        {
          "internalType": "uint256[]",
          "name": "_ids",
          "type": "uint256[]"
        }
      ],
      "name": "balanceOfBatch",
      "outputs": [
        {
          "internalType": "uint256[]",
          "name": "",
          "type": "uint256[]"
        }
      ],
      "stateMutability": "view",
      "type": "function",
      "constant": true
    },
    {
      "inputs": [
        {
          "internalType": "address",
          "name": "_to",
          "type": "address"
        },
        {
          "internalType": "uint256[]",
          "name": "_ids",
          "type": "uint256[]"
        },
        {
          "internalType": "uint256[]",
          "name": "_quantities",
          "type": "uint256[]"
        },
        {
          "internalType": "bytes",
          "name": "_data",
          "type": "bytes"
        }
      ],
      "name": "batchMint",
      "outputs": [],
      "stateMutability": "nonpayable",
      "type": "function"
    },
    {
      "inputs": [],
      "name": "contractName",
      "outputs": [
        {
          "internalType": "string",
          "name": "",
          "type": "string"
        }
      ],
      "stateMutability": "view",
      "type": "function",
      "constant": true
    },
    {
      "inputs": [],
      "name": "contractSymbol",
      "outputs": [
        {
          "internalType": "string",
          "name": "",
          "type": "string"
        }
      ],
      "stateMutability": "view",
      "type": "function",
      "constant": true
    },
    {
      "inputs": [
        {
          "internalType": "uint256",
          "name": "_puzzleId",
          "type": "uint256"
        },
        {
          "internalType": "enum Puzzles.Class",
          "name": "_class",
          "type": "uint8"
        }
      ],
      "name": "getTokenIdByClassForPuzzle",
      "outputs": [
        {
          "internalType": "uint256[]",
          "name": "",
          "type": "uint256[]"
        }
      ],
      "stateMutability": "view",
      "type": "function",
      "constant": true
    },
    {
      "inputs": [],
      "name": "groupCount",
      "outputs": [
        {
          "internalType": "uint256",
          "name": "",
          "type": "uint256"
        }
      ],
      "stateMutability": "view",
      "type": "function",
      "constant": true
    },
    {
      "inputs": [
        {
          "internalType": "address",
          "name": "_owner",
          "type": "address"
        },
        {
          "internalType": "address",
          "name": "_operator",
          "type": "address"
        }
      ],
      "name": "isApprovedForAll",
      "outputs": [
        {
          "internalType": "bool",
          "name": "isOperator",
          "type": "bool"
        }
      ],
      "stateMutability": "view",
      "type": "function",
      "constant": true
    },
    {
      "inputs": [
        {
          "internalType": "address",
          "name": "_to",
          "type": "address"
        },
        {
          "internalType": "uint256",
          "name": "_id",
          "type": "uint256"
        },
        {
          "internalType": "uint256",
          "name": "_quantity",
          "type": "uint256"
        },
        {
          "internalType": "bytes",
          "name": "_data",
          "type": "bytes"
        }
      ],
      "name": "mint",
      "outputs": [],
      "stateMutability": "nonpayable",
      "type": "function"
    },
    {
      "inputs": [],
      "name": "owner",
      "outputs": [
        {
          "internalType": "address",
          "name": "",
          "type": "address"
        }
      ],
      "stateMutability": "view",
      "type": "function",
      "constant": true
    },
    {
      "inputs": [],
      "name": "puzzleCount",
      "outputs": [
        {
          "internalType": "uint256",
          "name": "",
          "type": "uint256"
        }
      ],
      "stateMutability": "view",
      "type": "function",
      "constant": true
    },
    {
      "inputs": [
        {
          "internalType": "uint256",
          "name": "_puzzleId",
          "type": "uint256"
        },
        {
          "internalType": "uint256[]",
          "name": "_commonPieces",
          "type": "uint256[]"
        },
        {
          "internalType": "uint256[]",
          "name": "_uncommonPieces",
          "type": "uint256[]"
        },
        {
          "internalType": "uint256[]",
          "name": "_rarePieces",
          "type": "uint256[]"
        },
        {
          "internalType": "uint256[]",
          "name": "_epicPieces",
          "type": "uint256[]"
        },
        {
          "internalType": "uint256[]",
          "name": "_legendaryPieces",
          "type": "uint256[]"
        }
      ],
      "name": "puzzleInit",
      "outputs": [],
      "stateMutability": "nonpayable",
      "type": "function"
    },
    {
      "inputs": [],
      "name": "renounceOwnership",
      "outputs": [],
      "stateMutability": "nonpayable",
      "type": "function"
    },
    {
      "inputs": [
        {
          "internalType": "address",
          "name": "_from",
          "type": "address"
        },
        {
          "internalType": "address",
          "name": "_to",
          "type": "address"
        },
        {
          "internalType": "uint256[]",
          "name": "_ids",
          "type": "uint256[]"
        },
        {
          "internalType": "uint256[]",
          "name": "_amounts",
          "type": "uint256[]"
        },
        {
          "internalType": "bytes",
          "name": "_data",
          "type": "bytes"
        }
      ],
      "name": "safeBatchTransferFrom",
      "outputs": [],
      "stateMutability": "nonpayable",
      "type": "function"
    },
    {
      "inputs": [
        {
          "internalType": "address",
          "name": "_from",
          "type": "address"
        },
        {
          "internalType": "address",
          "name": "_to",
          "type": "address"
        },
        {
          "internalType": "uint256",
          "name": "_id",
          "type": "uint256"
        },
        {
          "internalType": "uint256",
          "name": "_amount",
          "type": "uint256"
        },
        {
          "internalType": "bytes",
          "name": "_data",
          "type": "bytes"
        }
      ],
      "name": "safeTransferFrom",
      "outputs": [],
      "stateMutability": "nonpayable",
      "type": "function"
    },
    {
      "inputs": [
        {
          "internalType": "address",
          "name": "_operator",
          "type": "address"
        },
        {
          "internalType": "bool",
          "name": "_approved",
          "type": "bool"
        }
      ],
      "name": "setApprovalForAll",
      "outputs": [],
      "stateMutability": "nonpayable",
      "type": "function"
    },
    {
      "inputs": [
        {
          "internalType": "string",
          "name": "_newBaseMetadataURI",
          "type": "string"
        }
      ],
      "name": "setBaseMetadataURI",
      "outputs": [],
      "stateMutability": "nonpayable",
      "type": "function"
    },
    {
      "inputs": [
        {
          "internalType": "uint256",
          "name": "_id",
          "type": "uint256"
        },
        {
          "internalType": "bool",
          "name": "_isActive",
          "type": "bool"
        }
      ],
      "name": "setGroupActive",
      "outputs": [],
      "stateMutability": "nonpayable",
      "type": "function"
    },
    {
      "inputs": [
        {
          "internalType": "uint256",
          "name": "_puzzleId",
          "type": "uint256"
        },
        {
          "internalType": "bool",
          "name": "_isActive",
          "type": "bool"
        }
      ],
      "name": "setPuzzleActive",
      "outputs": [],
      "stateMutability": "nonpayable",
      "type": "function"
    },
    {
      "inputs": [
        {
          "internalType": "uint256",
          "name": "_puzzleId",
          "type": "uint256"
        },
        {
          "internalType": "uint256",
          "name": "_group",
          "type": "uint256"
        }
      ],
      "name": "setPuzzleGroup",
      "outputs": [],
      "stateMutability": "nonpayable",
      "type": "function"
    },
    {
      "inputs": [
        {
          "internalType": "bytes4",
          "name": "_interfaceID",
          "type": "bytes4"
        }
      ],
      "name": "supportsInterface",
      "outputs": [
        {
          "internalType": "bool",
          "name": "",
          "type": "bool"
        }
      ],
      "stateMutability": "pure",
      "type": "function",
      "constant": true
    },
    {
      "inputs": [
        {
          "internalType": "uint256",
          "name": "",
          "type": "uint256"
        }
      ],
      "name": "tokenSupply",
      "outputs": [
        {
          "internalType": "uint256",
          "name": "",
          "type": "uint256"
        }
      ],
      "stateMutability": "view",
      "type": "function",
      "constant": true
    },
    {
      "inputs": [
        {
          "internalType": "uint256",
          "name": "_id",
          "type": "uint256"
        }
      ],
      "name": "totalSupply",
      "outputs": [
        {
          "internalType": "uint256",
          "name": "",
          "type": "uint256"
        }
      ],
      "stateMutability": "view",
      "type": "function",
      "constant": true
    },
    {
      "inputs": [
        {
          "internalType": "address",
          "name": "newOwner",
          "type": "address"
        }
      ],
      "name": "transferOwnership",
      "outputs": [],
      "stateMutability": "nonpayable",
      "type": "function"
    },
    {
      "inputs": [
        {
          "internalType": "uint256",
          "name": "_id",
          "type": "uint256"
        }
      ],
      "name": "uri",
      "outputs": [
        {
          "internalType": "string",
          "name": "",
          "type": "string"
        }
      ],
      "stateMutability": "view",
      "type": "function",
      "constant": true
    },
    {
      "inputs": [],
      "name": "contractURI",
      "outputs": [
        {
          "internalType": "string",
          "name": "",
          "type": "string"
        }
      ],
      "stateMutability": "pure",
      "type": "function",
      "constant": true
    },
    {
      "inputs": [
        {
          "internalType": "string",
          "name": "_title",
          "type": "string"
        },
        {
          "internalType": "uint256",
          "name": "_width",
          "type": "uint256"
        },
        {
          "internalType": "uint256",
          "name": "_height",
          "type": "uint256"
        },
        {
          "internalType": "bool",
          "name": "_isActive",
          "type": "bool"
        },
        {
          "internalType": "uint256",
          "name": "_group",
          "type": "uint256"
        },
        {
          "internalType": "uint256",
          "name": "_weight",
          "type": "uint256"
        }
      ],
      "name": "addPuzzle",
      "outputs": [],
      "stateMutability": "nonpayable",
      "type": "function"
    },
    {
      "inputs": [
        {
          "internalType": "address",
          "name": "_address",
          "type": "address"
        },
        {
          "internalType": "uint256",
          "name": "_puzzleId",
          "type": "uint256"
        }
      ],
      "name": "getPuzzlePiecesForAddress",
      "outputs": [
        {
          "internalType": "uint256[]",
          "name": "",
          "type": "uint256[]"
        }
      ],
      "stateMutability": "view",
      "type": "function",
      "constant": true
    }
  ],
  "bytecode": "0x608060405260006005556000600a556000600c553480156200002057600080fd5b506040516200589138038062005891833981810160405260208110156200004657600080fd5b81019080805190602001909291905050506040518060400160405280601181526020017f4e46542050757a7a6c65205069656365730000000000000000000000000000008152506040518060400160405280600381526020017f4e50500000000000000000000000000000000000000000000000000000000000815250826000620000d66200023860201b60201c565b905080600360006101000a81548173ffffffffffffffffffffffffffffffffffffffff021916908373ffffffffffffffffffffffffffffffffffffffff1602179055508073ffffffffffffffffffffffffffffffffffffffff16600073ffffffffffffffffffffffffffffffffffffffff167f8be0079c531659141344cd1fd0a4f28419497f9722a3daafe3b4186f6b6457e060405160405180910390a35082600790805190602001906200018d9291906200025c565b508160089080519060200190620001a69291906200025c565b5080600460006101000a81548173ffffffffffffffffffffffffffffffffffffffff021916908373ffffffffffffffffffffffffffffffffffffffff160217905550505050620002316040518060400160405280601a81526020017f68747470733a2f2f6e667470757a7a6c652e6361742f6e66742f0000000000008152506200024060201b60201c565b5062000312565b600033905090565b8060029080519060200190620002589291906200025c565b5050565b828054600181600116156101000203166002900490600052602060002090601f016020900481019282620002945760008555620002e0565b82601f10620002af57805160ff1916838001178555620002e0565b82800160010185558215620002e0579182015b82811115620002df578251825591602001919060010190620002c2565b5b509050620002ef9190620002f3565b5090565b5b808211156200030e576000816000905550600101620002f4565b5090565b61556f80620003226000396000f3fe608060405234801561001057600080fd5b50600436106101ef5760003560e01c80637e518ec81161010f578063cf468a22116100a2578063e985e9c511610071578063e985e9c514611623578063e9afbcaa1461169d578063f242432a146116d7578063f2fde38b146117e6576101ef565b8063cf468a22146113d0578063e1ccff37146114b1578063e4476164146114e9578063e8a3d485146115a0576101ef565b8063aaf81b27116100de578063aaf81b27146110fb578063b222c2de14611135578063b48ab8b61461118b578063bd85b0391461138e576101ef565b80637e518ec814610f9e5780638da5cb5b146110595780638f23b3261461108d578063a22cb465146110ab576101ef565b80633ff50742116101875780637194bb90116101565780637194bb9014610d6b578063731133e914610d8957806375d0c0dc14610e7857806379b36b5614610efb576101ef565b80633ff5074214610a41578063496995c814610ad15780634e1273f414610bc0578063715018a614610d61576101ef565b80632693ebf2116101c35780632693ebf2146104475780632b2afaa1146104895780632eb2c2d61461050c5780633e89721a1461072f576101ef565b8062fdd58e146101f457806301ffc9a7146102565780630e89341c146102b95780632319ebdb14610360575b600080fd5b6102406004803603604081101561020a57600080fd5b81019080803573ffffffffffffffffffffffffffffffffffffffff1690602001909291908035906020019092919050505061182a565b6040518082815260200191505060405180910390f35b6102a16004803603602081101561026c57600080fd5b8101908080357bffffffffffffffffffffffffffffffffffffffffffffffffffffffff19169060200190929190505050611884565b60405180821515815260200191505060405180910390f35b6102e5600480360360208110156102cf57600080fd5b8101908080359060200190929190505050611896565b6040518080602001828103825283818151815260200191508051906020019080838360005b8381101561032557808201518184015260208101905061030a565b50505050905090810190601f1680156103525780820380516001836020036101000a031916815260200191505b509250505060405180910390f35b610445600480360360a081101561037657600080fd5b8101908080351515906020019092919080359060200190929190803590602001906401000000008111156103a957600080fd5b8201836020820111156103bb57600080fd5b803590602001918460018302840111640100000000831117156103dd57600080fd5b91908080601f016020809104026020016040519081016040528093929190818152602001838380828437600081840152601f19601f8201169050808301925050505050505091929192908035906020019092919080351515906020019092919050505061194b565b005b6104736004803603602081101561045d57600080fd5b8101908080359060200190929190505050611ccd565b6040518082815260200191505060405180910390f35b610491611ce5565b6040518080602001828103825283818151815260200191508051906020019080838360005b838110156104d15780820151818401526020810190506104b6565b50505050905090810190601f1680156104fe5780820380516001836020036101000a031916815260200191505b509250505060405180910390f35b61072d600480360360a081101561052257600080fd5b81019080803573ffffffffffffffffffffffffffffffffffffffff169060200190929190803573ffffffffffffffffffffffffffffffffffffffff1690602001909291908035906020019064010000000081111561057f57600080fd5b82018360208201111561059157600080fd5b803590602001918460208302840111640100000000831117156105b357600080fd5b919080806020026020016040519081016040528093929190818152602001838360200280828437600081840152601f19601f8201169050808301925050505050505091929192908035906020019064010000000081111561061357600080fd5b82018360208201111561062557600080fd5b8035906020019184602083028401116401000000008311171561064757600080fd5b919080806020026020016040519081016040528093929190818152602001838360200280828437600081840152601f19601f820116905080830192505050505050509192919290803590602001906401000000008111156106a757600080fd5b8201836020820111156106b957600080fd5b803590602001918460018302840111640100000000831117156106db57600080fd5b91908080601f016020809104026020016040519081016040528093929190818152602001838380828437600081840152601f19601f820116905080830192505050505050509192919290505050611d83565b005b610a3f600480360360c081101561074557600080fd5b81019080803590602001909291908035906020019064010000000081111561076c57600080fd5b82018360208201111561077e57600080fd5b803590602001918460208302840111640100000000831117156107a057600080fd5b919080806020026020016040519081016040528093929190818152602001838360200280828437600081840152601f19601f8201169050808301925050505050505091929192908035906020019064010000000081111561080057600080fd5b82018360208201111561081257600080fd5b8035906020019184602083028401116401000000008311171561083457600080fd5b919080806020026020016040519081016040528093929190818152602001838360200280828437600081840152601f19601f8201169050808301925050505050505091929192908035906020019064010000000081111561089457600080fd5b8201836020820111156108a657600080fd5b803590602001918460208302840111640100000000831117156108c857600080fd5b919080806020026020016040519081016040528093929190818152602001838360200280828437600081840152601f19601f8201169050808301925050505050505091929192908035906020019064010000000081111561092857600080fd5b82018360208201111561093a57600080fd5b8035906020019184602083028401116401000000008311171561095c57600080fd5b919080806020026020016040519081016040528093929190818152602001838360200280828437600081840152601f19601f820116905080830192505050505050509192919290803590602001906401000000008111156109bc57600080fd5b8201836020820111156109ce57600080fd5b803590602001918460208302840111640100000000831117156109f057600080fd5b919080806020026020016040519081016040528093929190818152602001838360200280828437600081840152601f19601f820116905080830192505050505050509192919290505050611ebf565b005b610a7a60048036036040811015610a5757600080fd5b8101908080359060200190929190803560ff1690602001909291905050506120bf565b6040518080602001828103825283818151815260200191508051906020019060200280838360005b83811015610abd578082015181840152602081019050610aa2565b505050509050019250505060405180910390f35b610bbe600480360360c0811015610ae757600080fd5b8101908080359060200190640100000000811115610b0457600080fd5b820183602082011115610b1657600080fd5b80359060200191846001830284011164010000000083111715610b3857600080fd5b91908080601f016020809104026020016040519081016040528093929190818152602001838380828437600081840152601f19601f820116905080830192505050505050509192919290803590602001909291908035906020019092919080351515906020019092919080359060200190929190803590602001909291905050506121a4565b005b610d0a60048036036040811015610bd657600080fd5b8101908080359060200190640100000000811115610bf357600080fd5b820183602082011115610c0557600080fd5b80359060200191846020830284011164010000000083111715610c2757600080fd5b919080806020026020016040519081016040528093929190818152602001838360200280828437600081840152601f19601f82011690508083019250505050505050919291929080359060200190640100000000811115610c8757600080fd5b820183602082011115610c9957600080fd5b80359060200191846020830284011164010000000083111715610cbb57600080fd5b919080806020026020016040519081016040528093929190818152602001838360200280828437600081840152601f19601f82011690508083019250505050505050919291929050505061227c565b6040518080602001828103825283818151815260200191508051906020019060200280838360005b83811015610d4d578082015181840152602081019050610d32565b505050509050019250505060405180910390f35b610d696123d6565b005b610d73612546565b6040518082815260200191505060405180910390f35b610e7660048036036080811015610d9f57600080fd5b81019080803573ffffffffffffffffffffffffffffffffffffffff169060200190929190803590602001909291908035906020019092919080359060200190640100000000811115610df057600080fd5b820183602082011115610e0257600080fd5b80359060200191846001830284011164010000000083111715610e2457600080fd5b91908080601f016020809104026020016040519081016040528093929190818152602001838380828437600081840152601f19601f82011690508083019250505050505050919291929050505061254c565b005b610e80612643565b6040518080602001828103825283818151815260200191508051906020019080838360005b83811015610ec0578082015181840152602081019050610ea5565b50505050905090810190601f168015610eed5780820380516001836020036101000a031916815260200191505b509250505060405180910390f35b610f4760048036036040811015610f1157600080fd5b81019080803573ffffffffffffffffffffffffffffffffffffffff169060200190929190803590602001909291905050506126e1565b6040518080602001828103825283818151815260200191508051906020019060200280838360005b83811015610f8a578082015181840152602081019050610f6f565b505050509050019250505060405180910390f35b61105760048036036020811015610fb457600080fd5b8101908080359060200190640100000000811115610fd157600080fd5b820183602082011115610fe357600080fd5b8035906020019184600183028401116401000000008311171561100557600080fd5b91908080601f016020809104026020016040519081016040528093929190818152602001838380828437600081840152601f19601f8201169050808301925050505050505091929192905050506127b5565b005b611061612870565b604051808273ffffffffffffffffffffffffffffffffffffffff16815260200191505060405180910390f35b61109561289a565b6040518082815260200191505060405180910390f35b6110f9600480360360408110156110c157600080fd5b81019080803573ffffffffffffffffffffffffffffffffffffffff1690602001909291908035151590602001909291905050506128a0565b005b6111336004803603604081101561111157600080fd5b810190808035906020019092919080351515906020019092919050505061299f565b005b6111756004803603606081101561114b57600080fd5b81019080803590602001909291908035906020019092919080359060200190929190505050612add565b6040518082815260200191505060405180910390f35b61138c600480360360808110156111a157600080fd5b81019080803573ffffffffffffffffffffffffffffffffffffffff169060200190929190803590602001906401000000008111156111de57600080fd5b8201836020820111156111f057600080fd5b8035906020019184602083028401116401000000008311171561121257600080fd5b919080806020026020016040519081016040528093929190818152602001838360200280828437600081840152601f19601f8201169050808301925050505050505091929192908035906020019064010000000081111561127257600080fd5b82018360208201111561128457600080fd5b803590602001918460208302840111640100000000831117156112a657600080fd5b919080806020026020016040519081016040528093929190818152602001838360200280828437600081840152601f19601f8201169050808301925050505050505091929192908035906020019064010000000081111561130657600080fd5b82018360208201111561131857600080fd5b8035906020019184600183028401116401000000008311171561133a57600080fd5b91908080601f016020809104026020016040519081016040528093929190818152602001838380828437600081840152601f19601f820116905080830192505050505050509192919290505050612b1b565b005b6113ba600480360360208110156113a457600080fd5b8101908080359060200190929190505050612c5e565b6040518082815260200191505060405180910390f35b6113fc600480360360208110156113e657600080fd5b8101908080359060200190929190505050612c7b565b60405180806020018a8152602001898152602001881515815260200187815260200186815260200185815260200184815260200183815260200182810382528b818151815260200191508051906020019080838360005b8381101561146e578082015181840152602081019050611453565b50505050905090810190601f16801561149b5780820380516001836020036101000a031916815260200191505b509a505050505050505050505060405180910390f35b6114e7600480360360408110156114c757600080fd5b810190808035906020019092919080359060200190929190505050612d6e565b005b611515600480360360208110156114ff57600080fd5b8101908080359060200190929190505050612f11565b60405180806020018481526020018315158152602001828103825285818151815260200191508051906020019080838360005b83811015611563578082015181840152602081019050611548565b50505050905090810190601f1680156115905780820380516001836020036101000a031916815260200191505b5094505050505060405180910390f35b6115a8612fe0565b6040518080602001828103825283818151815260200191508051906020019080838360005b838110156115e85780820151818401526020810190506115cd565b50505050905090810190601f1680156116155780820380516001836020036101000a031916815260200191505b509250505060405180910390f35b6116856004803603604081101561163957600080fd5b81019080803573ffffffffffffffffffffffffffffffffffffffff169060200190929190803573ffffffffffffffffffffffffffffffffffffffff169060200190929190505050613000565b60405180821515815260200191505060405180910390f35b6116d5600480360360408110156116b357600080fd5b810190808035906020019092919080351515906020019092919050505061311b565b005b6117e4600480360360a08110156116ed57600080fd5b81019080803573ffffffffffffffffffffffffffffffffffffffff169060200190929190803573ffffffffffffffffffffffffffffffffffffffff16906020019092919080359060200190929190803590602001909291908035906020019064010000000081111561175e57600080fd5b82018360208201111561177057600080fd5b8035906020019184600183028401116401000000008311171561179257600080fd5b91908080601f016020809104026020016040519081016040528093929190818152602001838380828437600081840152601f19601f820116905080830192505050505050509192919290505050613272565b005b611828600480360360208110156117fc57600080fd5b81019080803573ffffffffffffffffffffffffffffffffffffffff1690602001909291905050506133ae565b005b60008060008473ffffffffffffffffffffffffffffffffffffffff1673ffffffffffffffffffffffffffffffffffffffff168152602001908152602001600020600083815260200190815260200160002054905092915050565b600061188f826135a3565b9050919050565b606061194460028054600181600116156101000203166002900480601f0160208091040260200160405190810160405280929190818152602001828054600181600116156101000203166002900480156119315780601f1061190657610100808354040283529160200191611931565b820191906000526020600020905b81548152906001019060200180831161191457829003601f168201915b505050505061193f84613625565b613769565b9050919050565b6119536137ad565b73ffffffffffffffffffffffffffffffffffffffff16611971612870565b73ffffffffffffffffffffffffffffffffffffffff16146119fa576040517f08c379a00000000000000000000000000000000000000000000000000000000081526004018080602001828103825260208152602001807f4f776e61626c653a2063616c6c6572206973206e6f7420746865206f776e657281525060200191505060405180910390fd5b84848180611a1857506000600a54118015611a17575080600a5410155b5b611a6d576040517f08c379a000000000000000000000000000000000000000000000000000000000815260040180806020018281038252602781526020018061549a6027913960400191505060405180910390fd5b6000855111611ae4576040517f08c379a00000000000000000000000000000000000000000000000000000000081526004018080602001828103825260168152602001807f5f7469746c652063616e6e6f7420626520626c616e6b0000000000000000000081525060200191505060405180910390fd5b60008411611b5a576040517f08c379a000000000000000000000000000000000000000000000000000000000815260040180806020018281038252601e8152602001807f5f776569676874206d7573742062652067726561746572207468616e2030000081525060200191505060405180910390fd5b86611c45576000600a5411611bd7576040517f08c379a00000000000000000000000000000000000000000000000000000000081526004018080602001828103825260138152602001807f4e6f2067726f75707320746f207570646174650000000000000000000000000081525060200191505060405180910390fd5b6000600a54118015611beb5750600a548611155b611c40576040517f08c379a00000000000000000000000000000000000000000000000000000000081526004018080602001828103825260288152602001806154426028913960400191505060405180910390fd5b611c50565b611c4d6137b5565b95505b84600960008881526020019081526020016000206000019080519060200190611c7a92919061516e565b50836009600088815260200190815260200160002060010181905550826009600088815260200190815260200160002060020160006101000a81548160ff02191690831515021790555050505050505050565b60066020528060005260406000206000915090505481565b60088054600181600116156101000203166002900480601f016020809104026020016040519081016040528092919081815260200182805460018160011615610100020316600290048015611d7b5780601f10611d5057610100808354040283529160200191611d7b565b820191906000526020600020905b815481529060010190602001808311611d5e57829003601f168201915b505050505081565b8473ffffffffffffffffffffffffffffffffffffffff163373ffffffffffffffffffffffffffffffffffffffff161480611dc35750611dc28533613000565b5b611e18576040517f08c379a000000000000000000000000000000000000000000000000000000000815260040180806020018281038252602f815260200180615413602f913960400191505060405180910390fd5b600073ffffffffffffffffffffffffffffffffffffffff168473ffffffffffffffffffffffffffffffffffffffff161415611e9e576040517f08c379a00000000000000000000000000000000000000000000000000000000081526004018080602001828103825260308152602001806153896030913960400191505060405180910390fd5b611eaa858585856137d1565b611eb8858585855a86613b33565b5050505050565b611ec76137ad565b73ffffffffffffffffffffffffffffffffffffffff16611ee5612870565b73ffffffffffffffffffffffffffffffffffffffff1614611f6e576040517f08c379a00000000000000000000000000000000000000000000000000000000081526004018080602001828103825260208152602001807f4f776e61626c653a2063616c6c6572206973206e6f7420746865206f776e657281525060200191505060405180910390fd5b8580600c541015611fca576040517f08c379a000000000000000000000000000000000000000000000000000000000815260040180806020018281038252602e8152602001806153b9602e913960400191505060405180910390fd5b8151835185518751895101010101600b600089815260200190815260200160002060020154600b60008a815260200190815260200160002060010154021461207a576040517f08c379a000000000000000000000000000000000000000000000000000000000815260040180806020018281038252601a8152602001807f496e636f7272656374206e756d626572206f662070696563657300000000000081525060200191505060405180910390fd5b61208687600088613dc5565b61209287600187613dc5565b61209e87600286613dc5565b6120aa87600385613dc5565b6120b687600484613dc5565b50505050505050565b60608280600c54101561211d576040517f08c379a000000000000000000000000000000000000000000000000000000000815260040180806020018281038252602e8152602001806153b9602e913960400191505060405180910390fd5b600d6000858152602001908152602001600020600084600481111561213e57fe5b815260200190815260200160002080548060200260200160405190810160405280929190818152602001828054801561219657602002820191906000526020600020905b815481526020019060010190808311612182575b505050505091505092915050565b6121ac6137ad565b73ffffffffffffffffffffffffffffffffffffffff166121ca612870565b73ffffffffffffffffffffffffffffffffffffffff1614612253576040517f08c379a00000000000000000000000000000000000000000000000000000000081526004018080602001828103825260208152602001807f4f776e61626c653a2063616c6c6572206973206e6f7420746865206f776e657281525060200191505060405180910390fd5b612261868686868686613f1a565b61227461226f85870261426d565b6142b7565b505050505050565b606081518351146122d8576040517f08c379a000000000000000000000000000000000000000000000000000000000815260040180806020018281038252602c8152602001806153e7602c913960400191505060405180910390fd5b6060835167ffffffffffffffff811180156122f257600080fd5b506040519080825280602002602001820160405280156123215781602001602082028036833780820191505090505b50905060005b84518110156123cb5760008086838151811061233f57fe5b602002602001015173ffffffffffffffffffffffffffffffffffffffff1673ffffffffffffffffffffffffffffffffffffffff168152602001908152602001600020600085838151811061238f57fe5b60200260200101518152602001908152602001600020548282815181106123b257fe5b6020026020010181815250508080600101915050612327565b508091505092915050565b6123de6137ad565b73ffffffffffffffffffffffffffffffffffffffff166123fc612870565b73ffffffffffffffffffffffffffffffffffffffff1614612485576040517f08c379a00000000000000000000000000000000000000000000000000000000081526004018080602001828103825260208152602001807f4f776e61626c653a2063616c6c6572206973206e6f7420746865206f776e657281525060200191505060405180910390fd5b600073ffffffffffffffffffffffffffffffffffffffff16600360009054906101000a900473ffffffffffffffffffffffffffffffffffffffff1673ffffffffffffffffffffffffffffffffffffffff167f8be0079c531659141344cd1fd0a4f28419497f9722a3daafe3b4186f6b6457e060405160405180910390a36000600360006101000a81548173ffffffffffffffffffffffffffffffffffffffff021916908373ffffffffffffffffffffffffffffffffffffffff160217905550565b600c5481565b6125546137ad565b73ffffffffffffffffffffffffffffffffffffffff16612572612870565b73ffffffffffffffffffffffffffffffffffffffff16146125fb576040517f08c379a00000000000000000000000000000000000000000000000000000000081526004018080602001828103825260208152602001807f4f776e61626c653a2063616c6c6572206973206e6f7420746865206f776e657281525060200191505060405180910390fd5b612604836143c5565b612610848484846143da565b81600660008581526020019081526020016000205401600660008581526020019081526020016000208190555050505050565b60078054600181600116156101000203166002900480601f0160208091040260200160405190810160405280929190818152602001828054600181600116156101000203166002900480156126d95780601f106126ae576101008083540402835291602001916126d9565b820191906000526020600020905b8154815290600101906020018083116126bc57829003601f168201915b505050505081565b60608180600c54101561273f576040517f08c379a000000000000000000000000000000000000000000000000000000000815260040180806020018281038252602e8152602001806153b9602e913960400191505060405180910390fd5b60606000600b60008681526020019081526020016000206006015490505b600b60008681526020019081526020016000206007015481116127a957612784868261182a565b82828151811061279057fe5b602002602001018181525050808060010191505061275d565b50809250505092915050565b6127bd6137ad565b73ffffffffffffffffffffffffffffffffffffffff166127db612870565b73ffffffffffffffffffffffffffffffffffffffff1614612864576040517f08c379a00000000000000000000000000000000000000000000000000000000081526004018080602001828103825260208152602001807f4f776e61626c653a2063616c6c6572206973206e6f7420746865206f776e657281525060200191505060405180910390fd5b61286d81614529565b50565b6000600360009054906101000a900473ffffffffffffffffffffffffffffffffffffffff16905090565b600a5481565b80600160003373ffffffffffffffffffffffffffffffffffffffff1673ffffffffffffffffffffffffffffffffffffffff16815260200190815260200160002060008473ffffffffffffffffffffffffffffffffffffffff1673ffffffffffffffffffffffffffffffffffffffff16815260200190815260200160002060006101000a81548160ff0219169083151502179055508173ffffffffffffffffffffffffffffffffffffffff163373ffffffffffffffffffffffffffffffffffffffff167f17307eab39ab6107e8899845ad3d59bd9653f200f220920489ca2b5937696c318360405180821515815260200191505060405180910390a35050565b6129a76137ad565b73ffffffffffffffffffffffffffffffffffffffff166129c5612870565b73ffffffffffffffffffffffffffffffffffffffff1614612a4e576040517f08c379a00000000000000000000000000000000000000000000000000000000081526004018080602001828103825260208152602001807f4f776e61626c653a2063616c6c6572206973206e6f7420746865206f776e657281525060200191505060405180910390fd5b8180600c541015612aaa576040517f08c379a000000000000000000000000000000000000000000000000000000000815260040180806020018281038252602e8152602001806153b9602e913960400191505060405180910390fd5b81600b600085815260200190815260200160002060030160006101000a81548160ff021916908315150217905550505050565b600d6020528260005260406000206020528160005260406000208181548110612b0557600080fd5b9060005260206000200160009250925050505481565b612b236137ad565b73ffffffffffffffffffffffffffffffffffffffff16612b41612870565b73ffffffffffffffffffffffffffffffffffffffff1614612bca576040517f08c379a00000000000000000000000000000000000000000000000000000000081526004018080602001828103825260208152602001807f4f776e61626c653a2063616c6c6572206973206e6f7420746865206f776e657281525060200191505060405180910390fd5b60005b8351811015612c4b576000848281518110612be457fe5b602002602001015190506000848381518110612bfc57fe5b60200260200101519050806006600084815260200190815260200160002054016006600084815260200190815260200160002081905550612c3c826143c5565b50508080600101915050612bcd565b50612c5884848484614543565b50505050565b600060066000838152602001908152602001600020549050919050565b600b602052806000526040600020600091509050806000018054600181600116156101000203166002900480601f016020809104026020016040519081016040528092919081815260200182805460018160011615610100020316600290048015612d275780601f10612cfc57610100808354040283529160200191612d27565b820191906000526020600020905b815481529060010190602001808311612d0a57829003601f168201915b5050505050908060010154908060020154908060030160009054906101000a900460ff16908060040154908060050154908060060154908060070154908060080154905089565b612d766137ad565b73ffffffffffffffffffffffffffffffffffffffff16612d94612870565b73ffffffffffffffffffffffffffffffffffffffff1614612e1d576040517f08c379a00000000000000000000000000000000000000000000000000000000081526004018080602001828103825260208152602001807f4f776e61626c653a2063616c6c6572206973206e6f7420746865206f776e657281525060200191505060405180910390fd5b8180600c541015612e79576040517f08c379a000000000000000000000000000000000000000000000000000000000815260040180806020018281038252602e8152602001806153b9602e913960400191505060405180910390fd5b81600a541015612ef1576040517f08c379a000000000000000000000000000000000000000000000000000000000815260040180806020018281038252600d8152602001807f496e76616c69642067726f75700000000000000000000000000000000000000081525060200191505060405180910390fd5b81600b600085815260200190815260200160002060050181905550505050565b6009602052806000526040600020600091509050806000018054600181600116156101000203166002900480601f016020809104026020016040519081016040528092919081815260200182805460018160011615610100020316600290048015612fbd5780601f10612f9257610100808354040283529160200191612fbd565b820191906000526020600020905b815481529060010190602001808311612fa057829003601f168201915b5050505050908060010154908060020160009054906101000a900460ff16905083565b60606040518060600160405280602781526020016152da60279139905090565b600080600460009054906101000a900473ffffffffffffffffffffffffffffffffffffffff1690508273ffffffffffffffffffffffffffffffffffffffff168173ffffffffffffffffffffffffffffffffffffffff1663c4552791866040518263ffffffff1660e01b8152600401808273ffffffffffffffffffffffffffffffffffffffff16815260200191505060206040518083038186803b1580156130a657600080fd5b505afa1580156130ba573d6000803e3d6000fd5b505050506040513d60208110156130d057600080fd5b810190808051906020019092919050505073ffffffffffffffffffffffffffffffffffffffff161415613107576001915050613115565b61311184846147c7565b9150505b92915050565b6131236137ad565b73ffffffffffffffffffffffffffffffffffffffff16613141612870565b73ffffffffffffffffffffffffffffffffffffffff16146131ca576040517f08c379a00000000000000000000000000000000000000000000000000000000081526004018080602001828103825260208152602001807f4f776e61626c653a2063616c6c6572206973206e6f7420746865206f776e657281525060200191505060405180910390fd5b60008281806131e957506000600a541180156131e8575080600a5410155b5b61323e576040517f08c379a000000000000000000000000000000000000000000000000000000000815260040180806020018281038252602781526020018061549a6027913960400191505060405180910390fd5b826009600086815260200190815260200160002060020160006101000a81548160ff02191690831515021790555050505050565b8473ffffffffffffffffffffffffffffffffffffffff163373ffffffffffffffffffffffffffffffffffffffff1614806132b257506132b18533613000565b5b613307576040517f08c379a000000000000000000000000000000000000000000000000000000000815260040180806020018281038252602a815260200180615301602a913960400191505060405180910390fd5b600073ffffffffffffffffffffffffffffffffffffffff168473ffffffffffffffffffffffffffffffffffffffff16141561338d576040517f08c379a000000000000000000000000000000000000000000000000000000000815260040180806020018281038252602b815260200180615289602b913960400191505060405180910390fd5b6133998585858561485b565b6133a7858585855a86614a4f565b5050505050565b6133b66137ad565b73ffffffffffffffffffffffffffffffffffffffff166133d4612870565b73ffffffffffffffffffffffffffffffffffffffff161461345d576040517f08c379a00000000000000000000000000000000000000000000000000000000081526004018080602001828103825260208152602001807f4f776e61626c653a2063616c6c6572206973206e6f7420746865206f776e657281525060200191505060405180910390fd5b600073ffffffffffffffffffffffffffffffffffffffff168173ffffffffffffffffffffffffffffffffffffffff1614156134e3576040517f08c379a00000000000000000000000000000000000000000000000000000000081526004018080602001828103825260268152602001806152b46026913960400191505060405180910390fd5b8073ffffffffffffffffffffffffffffffffffffffff16600360009054906101000a900473ffffffffffffffffffffffffffffffffffffffff1673ffffffffffffffffffffffffffffffffffffffff167f8be0079c531659141344cd1fd0a4f28419497f9722a3daafe3b4186f6b6457e060405160405180910390a380600360006101000a81548173ffffffffffffffffffffffffffffffffffffffff021916908373ffffffffffffffffffffffffffffffffffffffff16021790555050565b60007f0e89341c000000000000000000000000000000000000000000000000000000007bffffffffffffffffffffffffffffffffffffffffffffffffffffffff1916827bffffffffffffffffffffffffffffffffffffffffffffffffffffffff191614156136145760019050613620565b61361d82614c5f565b90505b919050565b6060600082141561366d576040518060400160405280600181526020017f30000000000000000000000000000000000000000000000000000000000000008152509050613764565b600082905060005b60008214613697578080600101915050600a828161368f57fe5b049150613675565b60608167ffffffffffffffff811180156136b057600080fd5b506040519080825280601f01601f1916602001820160405280156136e35781602001600182028036833780820191505090505b50905060006001830390505b6000861461375c57600a868161370157fe5b0660300160f81b8282806001900393508151811061371b57fe5b60200101907effffffffffffffffffffffffffffffffffffffffffffffffffffffffffffff1916908160001a905350600a868161375457fe5b0495506136ef565b819450505050505b919050565b60606137a58383604051806020016040528060008152506040518060200160405280600081525060405180602001604052806000815250614ce1565b905092915050565b600033905090565b6000600a60008154809291906001019190505550600a54905090565b805182511461382b576040517f08c379a000000000000000000000000000000000000000000000000000000000815260040180806020018281038252603581526020018061532b6035913960400191505060405180910390fd5b60008251905060005b81811015613a25576138c483828151811061384b57fe5b60200260200101516000808973ffffffffffffffffffffffffffffffffffffffff1673ffffffffffffffffffffffffffffffffffffffff168152602001908152602001600020600087858151811061389f57fe5b6020026020010151815260200190815260200160002054614fab90919063ffffffff16565b6000808873ffffffffffffffffffffffffffffffffffffffff1673ffffffffffffffffffffffffffffffffffffffff168152602001908152602001600020600086848151811061391057fe5b60200260200101518152602001908152602001600020819055506139b283828151811061393957fe5b60200260200101516000808873ffffffffffffffffffffffffffffffffffffffff1673ffffffffffffffffffffffffffffffffffffffff168152602001908152602001600020600087858151811061398d57fe5b602002602001015181526020019081526020016000205461503490919063ffffffff16565b6000808773ffffffffffffffffffffffffffffffffffffffff1673ffffffffffffffffffffffffffffffffffffffff16815260200190815260200160002060008684815181106139fe57fe5b60200260200101518152602001908152602001600020819055508080600101915050613834565b508373ffffffffffffffffffffffffffffffffffffffff168573ffffffffffffffffffffffffffffffffffffffff163373ffffffffffffffffffffffffffffffffffffffff167f4a39dc06d4c0dbc64b70af90fd698a233a518aa5d07e595d983b8c0526c8f7fb8686604051808060200180602001838103835285818151815260200191508051906020019060200280838360005b83811015613ad5578082015181840152602081019050613aba565b50505050905001838103825284818151815260200191508051906020019060200280838360005b83811015613b17578082015181840152602081019050613afc565b5050505090500194505050505060405180910390a45050505050565b613b528573ffffffffffffffffffffffffffffffffffffffff166150bc565b15613dbd5760008573ffffffffffffffffffffffffffffffffffffffff1663bc197c8184338a8989886040518763ffffffff1660e01b8152600401808673ffffffffffffffffffffffffffffffffffffffff1681526020018573ffffffffffffffffffffffffffffffffffffffff168152602001806020018060200180602001848103845287818151815260200191508051906020019060200280838360005b83811015613c0d578082015181840152602081019050613bf2565b50505050905001848103835286818151815260200191508051906020019060200280838360005b83811015613c4f578082015181840152602081019050613c34565b50505050905001848103825285818151815260200191508051906020019080838360005b83811015613c8e578082015181840152602081019050613c73565b50505050905090810190601f168015613cbb5780820380516001836020036101000a031916815260200191505b5098505050505050505050602060405180830381600088803b158015613ce057600080fd5b5087f1158015613cf4573d6000803e3d6000fd5b50505050506040513d6020811015613d0b57600080fd5b8101908080519060200190929190505050905063bc197c8160e01b7bffffffffffffffffffffffffffffffffffffffffffffffffffffffff1916817bffffffffffffffffffffffffffffffffffffffffffffffffffffffff191614613dbb576040517f08c379a000000000000000000000000000000000000000000000000000000000815260040180806020018281038252603f8152602001806154c1603f913960400191505060405180910390fd5b505b505050505050565b613dcd6137ad565b73ffffffffffffffffffffffffffffffffffffffff16613deb612870565b73ffffffffffffffffffffffffffffffffffffffff1614613e74576040517f08c379a00000000000000000000000000000000000000000000000000000000081526004018080602001828103825260208152602001807f4f776e61626c653a2063616c6c6572206973206e6f7420746865206f776e657281525060200191505060405180910390fd5b8280600c541015613ed0576040517f08c379a000000000000000000000000000000000000000000000000000000000815260040180806020018281038252602e8152602001806153b9602e913960400191505060405180910390fd5b81600d60008681526020019081526020016000206000856004811115613ef257fe5b81526020019081526020016000209080519060200190613f139291906151fc565b5050505050565b613f226137ad565b73ffffffffffffffffffffffffffffffffffffffff16613f40612870565b73ffffffffffffffffffffffffffffffffffffffff1614613fc9576040517f08c379a00000000000000000000000000000000000000000000000000000000081526004018080602001828103825260208152602001807f4f776e61626c653a2063616c6c6572206973206e6f7420746865206f776e657281525060200191505060405180910390fd5b81600a541015614041576040517f08c379a000000000000000000000000000000000000000000000000000000000815260040180806020018281038252600d8152602001807f496e76616c69642067726f75700000000000000000000000000000000000000081525060200191505060405180910390fd5b60008651116140b8576040517f08c379a00000000000000000000000000000000000000000000000000000000081526004018080602001828103825260168152602001807f5f7469746c652063616e6e6f7420626520626c616e6b0000000000000000000081525060200191505060405180910390fd5b6000851180156140c85750600084115b61411d576040517f08c379a00000000000000000000000000000000000000000000000000000000081526004018080602001828103825260298152602001806153606029913960400191505060405180910390fd5b60008111614193576040517f08c379a000000000000000000000000000000000000000000000000000000000815260040180806020018281038252601e8152602001807f5f776569676874206d7573742062652067726561746572207468616e2030000081525060200191505060405180910390fd5b600061419d615101565b905086600b600083815260200190815260200160002060000190805190602001906141c992919061516e565b5085600b60008381526020019081526020016000206001018190555084600b60008381526020019081526020016000206002018190555083600b600083815260200190815260200160002060030160006101000a81548160ff02191690831515021790555082600b60008381526020019081526020016000206005018190555081600b60008381526020019081526020016000206008018190555050505050505050565b614275615249565b6000600160055401905061428c83600554016143c5565b614294615249565b604051806040016040528083815260200160055481525090508092505050919050565b6142bf6137ad565b73ffffffffffffffffffffffffffffffffffffffff166142dd612870565b73ffffffffffffffffffffffffffffffffffffffff1614614366576040517f08c379a00000000000000000000000000000000000000000000000000000000081526004018080602001828103825260208152602001807f4f776e61626c653a2063616c6c6572206973206e6f7420746865206f776e657281525060200191505060405180910390fd5b8060006002811061437357fe5b6020020151600b6000600c54815260200190815260200160002060060181905550806001600281106143a157fe5b6020020151600b6000600c5481526020019081526020016000206007018190555050565b6005548111156143d757806005819055505b50565b61443c826000808773ffffffffffffffffffffffffffffffffffffffff1673ffffffffffffffffffffffffffffffffffffffff16815260200190815260200160002060008681526020019081526020016000205461503490919063ffffffff16565b6000808673ffffffffffffffffffffffffffffffffffffffff1673ffffffffffffffffffffffffffffffffffffffff1681526020019081526020016000206000858152602001908152602001600020819055508373ffffffffffffffffffffffffffffffffffffffff16600073ffffffffffffffffffffffffffffffffffffffff163373ffffffffffffffffffffffffffffffffffffffff167fc3d58168c5ae7397731d063d5bbf3d657854427343f4c083240f7aacaa2d0f628686604051808381526020018281526020019250505060405180910390a461452360008585855a86614a4f565b50505050565b806002908051906020019061453f92919061516e565b5050565b815183511461459d576040517f08c379a000000000000000000000000000000000000000000000000000000000815260040180806020018281038252603081526020018061546a6030913960400191505060405180910390fd5b60008351905060005b818110156146a9576146368482815181106145bd57fe5b60200260200101516000808973ffffffffffffffffffffffffffffffffffffffff1673ffffffffffffffffffffffffffffffffffffffff168152602001908152602001600020600088858151811061461157fe5b602002602001015181526020019081526020016000205461503490919063ffffffff16565b6000808873ffffffffffffffffffffffffffffffffffffffff1673ffffffffffffffffffffffffffffffffffffffff168152602001908152602001600020600087848151811061468257fe5b602002602001015181526020019081526020016000208190555080806001019150506145a6565b508473ffffffffffffffffffffffffffffffffffffffff16600073ffffffffffffffffffffffffffffffffffffffff163373ffffffffffffffffffffffffffffffffffffffff167f4a39dc06d4c0dbc64b70af90fd698a233a518aa5d07e595d983b8c0526c8f7fb8787604051808060200180602001838103835285818151815260200191508051906020019060200280838360005b8381101561475a57808201518184015260208101905061473f565b50505050905001838103825284818151815260200191508051906020019060200280838360005b8381101561479c578082015181840152602081019050614781565b5050505090500194505050505060405180910390a46147c060008686865a87613b33565b5050505050565b6000600160008473ffffffffffffffffffffffffffffffffffffffff1673ffffffffffffffffffffffffffffffffffffffff16815260200190815260200160002060008373ffffffffffffffffffffffffffffffffffffffff1673ffffffffffffffffffffffffffffffffffffffff16815260200190815260200160002060009054906101000a900460ff16905092915050565b6148bd816000808773ffffffffffffffffffffffffffffffffffffffff1673ffffffffffffffffffffffffffffffffffffffff168152602001908152602001600020600085815260200190815260200160002054614fab90919063ffffffff16565b6000808673ffffffffffffffffffffffffffffffffffffffff1673ffffffffffffffffffffffffffffffffffffffff168152602001908152602001600020600084815260200190815260200160002081905550614972816000808673ffffffffffffffffffffffffffffffffffffffff1673ffffffffffffffffffffffffffffffffffffffff16815260200190815260200160002060008581526020019081526020016000205461503490919063ffffffff16565b6000808573ffffffffffffffffffffffffffffffffffffffff1673ffffffffffffffffffffffffffffffffffffffff1681526020019081526020016000206000848152602001908152602001600020819055508273ffffffffffffffffffffffffffffffffffffffff168473ffffffffffffffffffffffffffffffffffffffff163373ffffffffffffffffffffffffffffffffffffffff167fc3d58168c5ae7397731d063d5bbf3d657854427343f4c083240f7aacaa2d0f628585604051808381526020018281526020019250505060405180910390a450505050565b614a6e8573ffffffffffffffffffffffffffffffffffffffff166150bc565b15614c575760008573ffffffffffffffffffffffffffffffffffffffff1663f23a6e6184338a8989886040518763ffffffff1660e01b8152600401808673ffffffffffffffffffffffffffffffffffffffff1681526020018573ffffffffffffffffffffffffffffffffffffffff16815260200184815260200183815260200180602001828103825283818151815260200191508051906020019080838360005b83811015614b2a578082015181840152602081019050614b0f565b50505050905090810190601f168015614b575780820380516001836020036101000a031916815260200191505b509650505050505050602060405180830381600088803b158015614b7a57600080fd5b5087f1158015614b8e573d6000803e3d6000fd5b50505050506040513d6020811015614ba557600080fd5b8101908080519060200190929190505050905063f23a6e6160e01b7bffffffffffffffffffffffffffffffffffffffffffffffffffffffff1916817bffffffffffffffffffffffffffffffffffffffffffffffffffffffff191614614c55576040517f08c379a000000000000000000000000000000000000000000000000000000000815260040180806020018281038252603a815260200180615500603a913960400191505060405180910390fd5b505b505050505050565b60007fd9b67a26000000000000000000000000000000000000000000000000000000007bffffffffffffffffffffffffffffffffffffffffffffffffffffffff1916827bffffffffffffffffffffffffffffffffffffffffffffffffffffffff19161415614cd05760019050614cdc565b614cd98261511d565b90505b919050565b60608086905060608690506060869050606086905060608690506060815183518551875189510101010167ffffffffffffffff81118015614d2157600080fd5b506040519080825280601f01601f191660200182016040528015614d545781602001600182028036833780820191505090505b50905060608190506000805b8851811015614dce57888181518110614d7557fe5b602001015160f81c60f81b838380600101945081518110614d9257fe5b60200101907effffffffffffffffffffffffffffffffffffffffffffffffffffffffffffff1916908160001a9053508080600101915050614d60565b5060005b8751811015614e4057878181518110614de757fe5b602001015160f81c60f81b838380600101945081518110614e0457fe5b60200101907effffffffffffffffffffffffffffffffffffffffffffffffffffffffffffff1916908160001a9053508080600101915050614dd2565b5060005b8651811015614eb257868181518110614e5957fe5b602001015160f81c60f81b838380600101945081518110614e7657fe5b60200101907effffffffffffffffffffffffffffffffffffffffffffffffffffffffffffff1916908160001a9053508080600101915050614e44565b5060005b8551811015614f2457858181518110614ecb57fe5b602001015160f81c60f81b838380600101945081518110614ee857fe5b60200101907effffffffffffffffffffffffffffffffffffffffffffffffffffffffffffff1916908160001a9053508080600101915050614eb6565b5060005b8451811015614f9657848181518110614f3d57fe5b602001015160f81c60f81b838380600101945081518110614f5a57fe5b60200101907effffffffffffffffffffffffffffffffffffffffffffffffffffffffffffff1916908160001a9053508080600101915050614f28565b50819850505050505050505095945050505050565b600082821115615023576040517f08c379a00000000000000000000000000000000000000000000000000000000081526004018080602001828103825260178152602001807f536166654d617468237375623a20554e444552464c4f5700000000000000000081525060200191505060405180910390fd5b600082840390508091505092915050565b6000808284019050838110156150b2576040517f08c379a00000000000000000000000000000000000000000000000000000000081526004018080602001828103825260168152602001807f536166654d617468236164643a204f564552464c4f570000000000000000000081525060200191505060405180910390fd5b8091505092915050565b600080823f90506000801b81141580156150f957507fc5d2460186f7233c927e7db2dcc703c0e500b653ca82273b7bfad8045d85a47060001b8114155b915050919050565b6000600c60008154809291906001019190505550600c54905090565b60006301ffc9a760e01b7bffffffffffffffffffffffffffffffffffffffffffffffffffffffff1916827bffffffffffffffffffffffffffffffffffffffffffffffffffffffff1916149050919050565b828054600181600116156101000203166002900490600052602060002090601f0160209004810192826151a457600085556151eb565b82601f106151bd57805160ff19168380011785556151eb565b828001600101855582156151eb579182015b828111156151ea5782518255916020019190600101906151cf565b5b5090506151f8919061526b565b5090565b828054828255906000526020600020908101928215615238579160200282015b8281111561523757825182559160200191906001019061521c565b5b509050615245919061526b565b5090565b6040518060400160405280600290602082028036833780820191505090505090565b5b8082111561528457600081600090555060010161526c565b509056fe4552433131353523736166655472616e7366657246726f6d3a20494e56414c49445f524543495049454e544f776e61626c653a206e6577206f776e657220697320746865207a65726f2061646472657373687474703a2f2f6e667470757a7a6c652e6361742f636f6e74726163742f6e667470757a7a6c654552433131353523736166655472616e7366657246726f6d3a20494e56414c49445f4f50455241544f5245524331313535235f7361666542617463685472616e7366657246726f6d3a20494e56414c49445f4152524159535f4c454e4754485f776964746820616e64205f686569676874206d7573742062652067726561746572207468616e203045524331313535237361666542617463685472616e7366657246726f6d3a20494e56414c49445f524543495049454e545f70757a7a6c654964206d757374206265206c6f776572207468616e206e756d626572206f662070757a7a6c6573455243313135352362616c616e63654f6642617463683a20494e56414c49445f41525241595f4c454e47544845524331313535237361666542617463685472616e7366657246726f6d3a20494e56414c49445f4f50455241544f525f69642069732067726561746572207468616e20746865206e756d626572206f662067726f757073455243313135354d696e744275726e2362617463684d696e743a20494e56414c49445f4152524159535f4c454e4754485f6964206d757374206265206c6f776572207468616e206e756d626572206f662067726f75707345524331313535235f63616c6c6f6e45524331313535426174636852656365697665643a20494e56414c49445f4f4e5f524543454956455f4d45535341474545524331313535235f63616c6c6f6e4552433131353552656365697665643a20494e56414c49445f4f4e5f524543454956455f4d455353414745a26469706673582212209e85fcbac4e08cd2258431d211dcac495d6206d7c5440c070d5cb3e92fd955c164736f6c63430007040033",
  "immutableReferences": {},
  "source": "pragma solidity ^0.7.0;\n\n// SPDX-License-Identifier: UNLICENSED\n\nimport \"./ERC1155Tradable.sol\";\nimport \"./Puzzles.sol\";\n\ncontract NFTPuzzlePieces is ERC1155Tradable, Puzzles {\n  constructor(address _proxyRegistryAddress)\n  ERC1155Tradable(\"NFT Puzzle Pieces\", \"NPP\", _proxyRegistryAddress) {\n    _setBaseMetadataURI(\"https://nftpuzzle.cat/nft/\");\n  }\n\n  function contractURI() public pure returns (string memory) {\n    return \"http://nftpuzzle.cat/contract/nftpuzzle\";\n  }\n\n  /* Adding a puzzle does not mint the pieces. The min/max ids are reserved and set in the puzzle struct. */\n  /* puzzleInit MUST be called with the id range for each rarity. */\n  /* This is handled outside the contract because it could be very costly to generate in the contract */\n  function addPuzzle(string memory _title, uint256 _width, uint256 _height, bool _isActive, uint256 _group, uint256 _weight) public onlyOwner {\n    _addPuzzle(_title, _width, _height, _isActive, _group, _weight);\n    _setMinMaxTokenIds(_getTokenIds(_width * _height));\n  }\n\n  /* returns array of token count suquentially from min to max */\n  function getPuzzlePiecesForAddress(address _address, uint256 _puzzleId) external view idExists(_puzzleId) returns (uint256[] memory) {\n    uint[] memory result;\n    for (uint256 i = PuzzleStructs[_puzzleId].minTokenId; i <= PuzzleStructs[_puzzleId].maxTokenId; i++) {\n      result[i] = balanceOf(_address, i);\n    }\n    return result;\n  }\n}\n",
  "sourcePath": "C:/playground/Blockchain/npp_v3/contracts/NFTPuzzlePieces.sol",
  "compiler": {
    "name": "solc",
    "version": "0.7.4+commit.3f05b770.Emscripten.clang"
  },
  "schemaVersion": "3.3.4",
  "updatedAt": "2021-05-01T03:09:40.056Z",
  "networkType": "ethereum",
  "devdoc": {
    "kind": "dev",
    "methods": {
      "balanceOf(address,uint256)": {
        "params": {
          "_id": "ID of the Token",
          "_owner": "The address of the token holder"
        },
        "returns": {
          "_0": "The _owner's balance of the Token type requested"
        }
      },
      "balanceOfBatch(address[],uint256[])": {
        "params": {
          "_ids": "ID of the Tokens",
          "_owners": "The addresses of the token holders"
        },
        "returns": {
          "_0": "The _owner's balance of the Token types requested (i.e. balance for each (owner, id) pair)"
        }
      },
      "batchMint(address,uint256[],uint256[],bytes)": {
        "details": "Mint tokens for each id in _ids",
        "params": {
          "_data": "Data to pass if receiver is contract ",
          "_ids": "Array of ids to mint",
          "_quantities": "Array of amounts of tokens to mint per id",
          "_to": "The address to mint tokens to"
        }
      },
      "mint(address,uint256,uint256,bytes)": {
        "details": "Mints some amount of tokens to an address",
        "params": {
          "_data": "Data to pass if receiver is contract ",
          "_id": "Token ID to mint",
          "_quantity": "Amount of tokens to mint",
          "_to": "Address of the future owner of the token"
        }
      },
      "owner()": {
        "details": "Returns the address of the current owner."
      },
      "renounceOwnership()": {
        "details": "Leaves the contract without owner. It will not be possible to call `onlyOwner` functions anymore. Can only be called by the current owner. NOTE: Renouncing ownership will leave the contract without an owner, thereby removing any functionality that is only available to the owner."
      },
      "safeBatchTransferFrom(address,address,uint256[],uint256[],bytes)": {
        "params": {
          "_amounts": "Transfer amounts per token type",
          "_data": "Additional data with no specified format, sent in call to `_to`",
          "_from": "Source addresses",
          "_ids": "IDs of each token type",
          "_to": "Target addresses"
        }
      },
      "safeTransferFrom(address,address,uint256,uint256,bytes)": {
        "params": {
          "_amount": "Transfered amount",
          "_data": "Additional data with no specified format, sent in call to `_to`",
          "_from": "Source address",
          "_id": "ID of the token type",
          "_to": "Target address"
        }
      },
      "setApprovalForAll(address,bool)": {
        "params": {
          "_approved": "True if the operator is approved, false to revoke approval",
          "_operator": "Address to add to the set of authorized operators"
        }
      },
      "setBaseMetadataURI(string)": {
        "details": "Will update the base URL of token's URI @param _newBaseMetadataURI New base URL of token's URI "
      },
      "totalSupply(uint256)": {
        "details": "Returns the total quantity for a token ID",
        "params": {
          "_id": "uint256 ID of the token to query"
        },
        "returns": {
          "_0": "amount of token in existence "
        }
      },
      "transferOwnership(address)": {
        "details": "Transfers ownership of the contract to a new account (`newOwner`). Can only be called by the current owner."
      },
      "uri(uint256)": {
        "details": "URIs are defined in RFC 3986.      URIs are assumed to be deterministically generated based on token ID",
        "returns": {
          "_0": "URI string"
        }
      }
    },
    "version": 1
  },
  "userdoc": {
    "kind": "user",
    "methods": {
      "balanceOf(address,uint256)": {
        "notice": "Get the balance of an account's Tokens"
      },
      "balanceOfBatch(address[],uint256[])": {
        "notice": "Get the balance of multiple account/token pairs"
      },
      "isApprovedForAll(address,address)": {
        "notice": "Override isApprovedForAll to whitelist user's OpenSea proxy accounts to enable gas-free listings. "
      },
      "safeBatchTransferFrom(address,address,uint256[],uint256[],bytes)": {
        "notice": "Send multiple types of Tokens from the _from address to the _to address (with safety call)"
      },
      "safeTransferFrom(address,address,uint256,uint256,bytes)": {
        "notice": "Transfers amount amount of an _id from the _from address to the _to address specified"
      },
      "setApprovalForAll(address,bool)": {
        "notice": "Enable or disable approval for a third party (\"operator\") to manage all of caller's tokens"
      },
      "uri(uint256)": {
        "notice": "A distinct Uniform Resource Identifier (URI) for a given token."
      }
    },
    "version": 1
  }
}