{
  "contractName": "ProxyRegistry",
  "abi": [
    {
      "inputs": [
        {
          "internalType": "address",
          "name": "",
          "type": "address"
        }
      ],
      "name": "proxies",
      "outputs": [
        {
          "internalType": "contract OwnableDelegateProxy",
          "name": "",
          "type": "address"
        }
      ],
      "stateMutability": "view",
      "type": "function"
    }
  ],
  "bytecode": "0x608060405234801561001057600080fd5b50610101806100206000396000f3fe6080604052348015600f57600080fd5b506004361060285760003560e01c8063c455279114602d575b600080fd5b606c60048036036020811015604157600080fd5b81019080803573ffffffffffffffffffffffffffffffffffffffff1690602001909291905050506098565b604051808273ffffffffffffffffffffffffffffffffffffffff16815260200191505060405180910390f35b60006020528060005260406000206000915054906101000a900473ffffffffffffffffffffffffffffffffffffffff168156fea264697066735822122059868152d7a391ae5b496b713e5dd785c498d21196ddb8c9b907c4b62442839064736f6c63430007040033",
  "immutableReferences": {},
  "source": "pragma solidity ^0.7.0;\n\n// SPDX-License-Identifier: UNLICENSED\n\nimport \"openzeppelin-solidity/contracts/access/Ownable.sol\";\nimport '@0xsequence/erc-1155/contracts/tokens/ERC1155/ERC1155.sol';\nimport '@0xsequence/erc-1155/contracts/tokens/ERC1155/ERC1155Metadata.sol';\nimport '@0xsequence/erc-1155/contracts/tokens/ERC1155/ERC1155MintBurn.sol';\nimport \"./Strings.sol\";\n\ncontract OwnableDelegateProxy { }\n\ncontract ProxyRegistry {\n  mapping(address => OwnableDelegateProxy) public proxies;\n}\n\n/** @title ERC1155Tradable\n * ERC1155Tradable - ERC1155 contract that whitelists an operator address, has create and mint functionality, and supports useful standards from OpenZeppelin,\n  like _exists(), name(), symbol(), and totalSupply() */\ncontract ERC1155Tradable is ERC1155, ERC1155MintBurn, ERC1155Metadata, Ownable {\n  using Strings for string;\n\n  address proxyRegistryAddress;\n  uint256 private _currentTokenID = 0;\n  mapping (uint256 => uint256) public tokenSupply;\n  string public contractName;\n  string public contractSymbol;\n\n  function supportsInterface(bytes4 _interfaceID) public override(ERC1155, ERC1155Metadata) pure returns (bool) {\n    return super.supportsInterface(_interfaceID);\n  }\n  \n  constructor(string memory _name, string memory _symbol, address _proxyRegistryAddress) {\n    contractName = _name;\n    contractSymbol = _symbol;\n    proxyRegistryAddress = _proxyRegistryAddress;\n  }\n\n  /** @dev Returns the total quantity for a token ID\n    * @param _id uint256 ID of the token to query\n    * @return amount of token in existence */\n  function totalSupply(uint256 _id) public view returns (uint256) {\n    return tokenSupply[_id];\n  }\n\n  /** @dev Will update the base URL of token's URI @param _newBaseMetadataURI New base URL of token's URI */\n  function setBaseMetadataURI(string memory _newBaseMetadataURI) public onlyOwner {\n    _setBaseMetadataURI(_newBaseMetadataURI);\n  }\n\n  function uri(uint256 _id) public virtual override view returns (string memory) {\n    return Strings.strConcat(baseMetadataURI, Strings.uint2str(_id));\n  }\n\n  /** @dev Mints some amount of tokens to an address\n    * @param _to          Address of the future owner of the token\n    * @param _id          Token ID to mint\n    * @param _quantity    Amount of tokens to mint\n    * @param _data        Data to pass if receiver is contract */\n  function mint(address _to, uint256 _id, uint256 _quantity, bytes memory _data) public onlyOwner {\n    _setMaxTokenId(_id);\n    _mint(_to, _id, _quantity, _data);\n    tokenSupply[_id] = tokenSupply[_id] + _quantity;\n  }\n\n  /** @dev Mint tokens for each id in _ids\n    * @param _to          The address to mint tokens to\n    * @param _ids         Array of ids to mint\n    * @param _quantities  Array of amounts of tokens to mint per id\n    * @param _data        Data to pass if receiver is contract */\n  function batchMint(address _to, uint256[] memory _ids, uint256[] memory _quantities, bytes memory _data) public onlyOwner {\n    for (uint256 i = 0; i < _ids.length; i++) {\n      uint256 _id = _ids[i];\n      uint256 quantity = _quantities[i];\n      tokenSupply[_id] = tokenSupply[_id] + quantity;\n      _setMaxTokenId(_id);\n    }\n    _batchMint(_to, _ids, _quantities, _data);\n  }\n\n  /** Override isApprovedForAll to whitelist user's OpenSea proxy accounts to enable gas-free listings. */\n  function isApprovedForAll(address _owner, address _operator) public view override returns (bool isOperator) {\n    // Whitelist OpenSea proxy contract for easy trading.\n    ProxyRegistry proxyRegistry = ProxyRegistry(proxyRegistryAddress);\n    if (address(proxyRegistry.proxies(_owner)) == _operator) {\n      return true;\n    }\n\n    return ERC1155.isApprovedForAll(_owner, _operator);\n  }\n\n  /** @dev increments the value of _currentTokenID */\n  function _incrementTokenTypeId() private  {\n    _currentTokenID++;\n  }\n\n  function _setMaxTokenId(uint _id) private {\n    if (_id > _currentTokenID) \n      _currentTokenID = _id; //update _currentTokenId\n  }\n\n  /* returns min/max token ids */\n  function _getTokenIds(uint _quantity) internal returns (uint[2] memory) {\n    uint minTokenId = _currentTokenID + 1;\n    _setMaxTokenId(_currentTokenID + _quantity);\n    uint[2] memory result = [minTokenId, _currentTokenID];\n    return result;\n  }\n}\n",
  "sourcePath": "C:\\playground\\Blockchain\\npp_v3\\contracts\\ERC1155Tradable.sol",
  "compiler": {
    "name": "solc",
    "version": "0.7.4+commit.3f05b770.Emscripten.clang"
  },
  "schemaVersion": "3.3.4",
  "updatedAt": "2021-05-01T03:09:33.500Z",
  "devdoc": {
    "kind": "dev",
    "methods": {},
    "version": 1
  },
  "userdoc": {
    "kind": "user",
    "methods": {},
    "version": 1
  }
}