{
  "contractName": "Puzzles",
  "abi": [
    {
      "inputs": [],
      "stateMutability": "nonpayable",
      "type": "constructor"
    },
    {
      "anonymous": false,
      "inputs": [
        {
          "indexed": true,
          "internalType": "address",
          "name": "previousOwner",
          "type": "address"
        },
        {
          "indexed": true,
          "internalType": "address",
          "name": "newOwner",
          "type": "address"
        }
      ],
      "name": "OwnershipTransferred",
      "type": "event"
    },
    {
      "inputs": [
        {
          "internalType": "uint256",
          "name": "",
          "type": "uint256"
        }
      ],
      "name": "GroupStructs",
      "outputs": [
        {
          "internalType": "string",
          "name": "title",
          "type": "string"
        },
        {
          "internalType": "uint256",
          "name": "weight",
          "type": "uint256"
        },
        {
          "internalType": "bool",
          "name": "isActive",
          "type": "bool"
        }
      ],
      "stateMutability": "view",
      "type": "function"
    },
    {
      "inputs": [
        {
          "internalType": "uint256",
          "name": "",
          "type": "uint256"
        }
      ],
      "name": "PuzzleStructs",
      "outputs": [
        {
          "internalType": "string",
          "name": "title",
          "type": "string"
        },
        {
          "internalType": "uint256",
          "name": "width",
          "type": "uint256"
        },
        {
          "internalType": "uint256",
          "name": "height",
          "type": "uint256"
        },
        {
          "internalType": "bool",
          "name": "isActive",
          "type": "bool"
        },
        {
          "internalType": "uint256",
          "name": "balance",
          "type": "uint256"
        },
        {
          "internalType": "uint256",
          "name": "group",
          "type": "uint256"
        },
        {
          "internalType": "uint256",
          "name": "minTokenId",
          "type": "uint256"
        },
        {
          "internalType": "uint256",
          "name": "maxTokenId",
          "type": "uint256"
        },
        {
          "internalType": "uint256",
          "name": "weight",
          "type": "uint256"
        }
      ],
      "stateMutability": "view",
      "type": "function"
    },
    {
      "inputs": [
        {
          "internalType": "uint256",
          "name": "",
          "type": "uint256"
        },
        {
          "internalType": "uint256",
          "name": "",
          "type": "uint256"
        },
        {
          "internalType": "uint256",
          "name": "",
          "type": "uint256"
        }
      ],
      "name": "PuzzlesToClassToTokens",
      "outputs": [
        {
          "internalType": "uint256",
          "name": "",
          "type": "uint256"
        }
      ],
      "stateMutability": "view",
      "type": "function"
    },
    {
      "inputs": [
        {
          "internalType": "bool",
          "name": "_isNew",
          "type": "bool"
        },
        {
          "internalType": "uint256",
          "name": "_id",
          "type": "uint256"
        },
        {
          "internalType": "string",
          "name": "_title",
          "type": "string"
        },
        {
          "internalType": "uint256",
          "name": "_weight",
          "type": "uint256"
        },
        {
          "internalType": "bool",
          "name": "_isActive",
          "type": "bool"
        }
      ],
      "name": "addUpdateGroup",
      "outputs": [],
      "stateMutability": "nonpayable",
      "type": "function"
    },
    {
      "inputs": [],
      "name": "groupCount",
      "outputs": [
        {
          "internalType": "uint256",
          "name": "",
          "type": "uint256"
        }
      ],
      "stateMutability": "view",
      "type": "function"
    },
    {
      "inputs": [],
      "name": "owner",
      "outputs": [
        {
          "internalType": "address",
          "name": "",
          "type": "address"
        }
      ],
      "stateMutability": "view",
      "type": "function"
    },
    {
      "inputs": [],
      "name": "puzzleCount",
      "outputs": [
        {
          "internalType": "uint256",
          "name": "",
          "type": "uint256"
        }
      ],
      "stateMutability": "view",
      "type": "function"
    },
    {
      "inputs": [],
      "name": "renounceOwnership",
      "outputs": [],
      "stateMutability": "nonpayable",
      "type": "function"
    },
    {
      "inputs": [
        {
          "internalType": "uint256",
          "name": "_id",
          "type": "uint256"
        },
        {
          "internalType": "bool",
          "name": "_isActive",
          "type": "bool"
        }
      ],
      "name": "setGroupActive",
      "outputs": [],
      "stateMutability": "nonpayable",
      "type": "function"
    },
    {
      "inputs": [
        {
          "internalType": "address",
          "name": "newOwner",
          "type": "address"
        }
      ],
      "name": "transferOwnership",
      "outputs": [],
      "stateMutability": "nonpayable",
      "type": "function"
    },
    {
      "inputs": [
        {
          "internalType": "uint256",
          "name": "_puzzleId",
          "type": "uint256"
        },
        {
          "internalType": "bool",
          "name": "_isActive",
          "type": "bool"
        }
      ],
      "name": "setPuzzleActive",
      "outputs": [],
      "stateMutability": "nonpayable",
      "type": "function"
    },
    {
      "inputs": [
        {
          "internalType": "uint256",
          "name": "_puzzleId",
          "type": "uint256"
        },
        {
          "internalType": "uint256",
          "name": "_group",
          "type": "uint256"
        }
      ],
      "name": "setPuzzleGroup",
      "outputs": [],
      "stateMutability": "nonpayable",
      "type": "function"
    },
    {
      "inputs": [
        {
          "internalType": "uint256",
          "name": "_puzzleId",
          "type": "uint256"
        },
        {
          "internalType": "uint256[]",
          "name": "_commonPieces",
          "type": "uint256[]"
        },
        {
          "internalType": "uint256[]",
          "name": "_uncommonPieces",
          "type": "uint256[]"
        },
        {
          "internalType": "uint256[]",
          "name": "_rarePieces",
          "type": "uint256[]"
        },
        {
          "internalType": "uint256[]",
          "name": "_epicPieces",
          "type": "uint256[]"
        },
        {
          "internalType": "uint256[]",
          "name": "_legendaryPieces",
          "type": "uint256[]"
        }
      ],
      "name": "puzzleInit",
      "outputs": [],
      "stateMutability": "nonpayable",
      "type": "function"
    },
    {
      "inputs": [
        {
          "internalType": "uint256",
          "name": "_puzzleId",
          "type": "uint256"
        },
        {
          "internalType": "enum Puzzles.Class",
          "name": "_class",
          "type": "uint8"
        }
      ],
      "name": "getTokenIdByClassForPuzzle",
      "outputs": [
        {
          "internalType": "uint256[]",
          "name": "",
          "type": "uint256[]"
        }
      ],
      "stateMutability": "view",
      "type": "function"
    }
  ],
  "bytecode": "0x60806040526000600255600060045534801561001a57600080fd5b50600061002b6100ce60201b60201c565b9050806000806101000a81548173ffffffffffffffffffffffffffffffffffffffff021916908373ffffffffffffffffffffffffffffffffffffffff1602179055508073ffffffffffffffffffffffffffffffffffffffff16600073ffffffffffffffffffffffffffffffffffffffff167f8be0079c531659141344cd1fd0a4f28419497f9722a3daafe3b4186f6b6457e060405160405180910390a3506100d6565b600033905090565b611c4d806100e56000396000f3fe608060405234801561001057600080fd5b50600436106100ea5760003560e01c8063aaf81b271161008c578063e1ccff3711610066578063e1ccff3714610763578063e44761641461079b578063e9afbcaa14610852578063f2fde38b1461088c576100ea565b8063aaf81b27146105f2578063b222c2de1461062c578063cf468a2214610682576100ea565b8063715018a6116100c8578063715018a6146105785780637194bb90146105825780638da5cb5b146105a05780638f23b326146105d4576100ea565b80632319ebdb146100ef5780633e89721a146101d65780633ff50742146104e8575b600080fd5b6101d4600480360360a081101561010557600080fd5b81019080803515159060200190929190803590602001909291908035906020019064010000000081111561013857600080fd5b82018360208201111561014a57600080fd5b8035906020019184600183028401116401000000008311171561016c57600080fd5b91908080601f016020809104026020016040519081016040528093929190818152602001838380828437600081840152601f19601f820116905080830192505050505050509192919290803590602001909291908035151590602001909291905050506108d0565b005b6104e6600480360360c08110156101ec57600080fd5b81019080803590602001909291908035906020019064010000000081111561021357600080fd5b82018360208201111561022557600080fd5b8035906020019184602083028401116401000000008311171561024757600080fd5b919080806020026020016040519081016040528093929190818152602001838360200280828437600081840152601f19601f820116905080830192505050505050509192919290803590602001906401000000008111156102a757600080fd5b8201836020820111156102b957600080fd5b803590602001918460208302840111640100000000831117156102db57600080fd5b919080806020026020016040519081016040528093929190818152602001838360200280828437600081840152601f19601f8201169050808301925050505050505091929192908035906020019064010000000081111561033b57600080fd5b82018360208201111561034d57600080fd5b8035906020019184602083028401116401000000008311171561036f57600080fd5b919080806020026020016040519081016040528093929190818152602001838360200280828437600081840152601f19601f820116905080830192505050505050509192919290803590602001906401000000008111156103cf57600080fd5b8201836020820111156103e157600080fd5b8035906020019184602083028401116401000000008311171561040357600080fd5b919080806020026020016040519081016040528093929190818152602001838360200280828437600081840152601f19601f8201169050808301925050505050505091929192908035906020019064010000000081111561046357600080fd5b82018360208201111561047557600080fd5b8035906020019184602083028401116401000000008311171561049757600080fd5b919080806020026020016040519081016040528093929190818152602001838360200280828437600081840152601f19601f820116905080830192505050505050509192919290505050610c52565b005b610521600480360360408110156104fe57600080fd5b8101908080359060200190929190803560ff169060200190929190505050610e52565b6040518080602001828103825283818151815260200191508051906020019060200280838360005b83811015610564578082015181840152602081019050610549565b505050509050019250505060405180910390f35b610580610f37565b005b61058a6110a4565b6040518082815260200191505060405180910390f35b6105a86110aa565b604051808273ffffffffffffffffffffffffffffffffffffffff16815260200191505060405180910390f35b6105dc6110d3565b6040518082815260200191505060405180910390f35b61062a6004803603604081101561060857600080fd5b81019080803590602001909291908035151590602001909291905050506110d9565b005b61066c6004803603606081101561064257600080fd5b81019080803590602001909291908035906020019092919080359060200190929190505050611217565b6040518082815260200191505060405180910390f35b6106ae6004803603602081101561069857600080fd5b8101908080359060200190929190505050611255565b60405180806020018a8152602001898152602001881515815260200187815260200186815260200185815260200184815260200183815260200182810382528b818151815260200191508051906020019080838360005b83811015610720578082015181840152602081019050610705565b50505050905090810190601f16801561074d5780820380516001836020036101000a031916815260200191505b509a505050505050505050505060405180910390f35b6107996004803603604081101561077957600080fd5b810190808035906020019092919080359060200190929190505050611348565b005b6107c7600480360360208110156107b157600080fd5b81019080803590602001909291905050506114eb565b60405180806020018481526020018315158152602001828103825285818151815260200191508051906020019080838360005b838110156108155780820151818401526020810190506107fa565b50505050905090810190601f1680156108425780820380516001836020036101000a031916815260200191505b5094505050505060405180910390f35b61088a6004803603604081101561086857600080fd5b81019080803590602001909291908035151590602001909291905050506115ba565b005b6108ce600480360360208110156108a257600080fd5b81019080803573ffffffffffffffffffffffffffffffffffffffff169060200190929190505050611711565b005b6108d8611903565b73ffffffffffffffffffffffffffffffffffffffff166108f66110aa565b73ffffffffffffffffffffffffffffffffffffffff161461097f576040517f08c379a00000000000000000000000000000000000000000000000000000000081526004018080602001828103825260208152602001807f4f776e61626c653a2063616c6c6572206973206e6f7420746865206f776e657281525060200191505060405180910390fd5b8484818061099d5750600060025411801561099c57508060025410155b5b6109f2576040517f08c379a0000000000000000000000000000000000000000000000000000000008152600401808060200182810382526027815260200180611bf16027913960400191505060405180910390fd5b6000855111610a69576040517f08c379a00000000000000000000000000000000000000000000000000000000081526004018080602001828103825260168152602001807f5f7469746c652063616e6e6f7420626520626c616e6b0000000000000000000081525060200191505060405180910390fd5b60008411610adf576040517f08c379a000000000000000000000000000000000000000000000000000000000815260040180806020018281038252601e8152602001807f5f776569676874206d7573742062652067726561746572207468616e2030000081525060200191505060405180910390fd5b86610bca57600060025411610b5c576040517f08c379a00000000000000000000000000000000000000000000000000000000081526004018080602001828103825260138152602001807f4e6f2067726f75707320746f207570646174650000000000000000000000000081525060200191505060405180910390fd5b6000600254118015610b7057506002548611155b610bc5576040517f08c379a0000000000000000000000000000000000000000000000000000000008152600401808060200182810382526028815260200180611bc96028913960400191505060405180910390fd5b610bd5565b610bd261190b565b95505b84600160008881526020019081526020016000206000019080519060200190610bff929190611a7c565b50836001600088815260200190815260200160002060010181905550826001600088815260200190815260200160002060020160006101000a81548160ff02191690831515021790555050505050505050565b610c5a611903565b73ffffffffffffffffffffffffffffffffffffffff16610c786110aa565b73ffffffffffffffffffffffffffffffffffffffff1614610d01576040517f08c379a00000000000000000000000000000000000000000000000000000000081526004018080602001828103825260208152602001807f4f776e61626c653a2063616c6c6572206973206e6f7420746865206f776e657281525060200191505060405180910390fd5b85806004541015610d5d576040517f08c379a000000000000000000000000000000000000000000000000000000000815260040180806020018281038252602e815260200180611b9b602e913960400191505060405180910390fd5b81518351855187518951010101016003600089815260200190815260200160002060020154600360008a8152602001908152602001600020600101540214610e0d576040517f08c379a000000000000000000000000000000000000000000000000000000000815260040180806020018281038252601a8152602001807f496e636f7272656374206e756d626572206f662070696563657300000000000081525060200191505060405180910390fd5b610e1987600088611927565b610e2587600187611927565b610e3187600286611927565b610e3d87600385611927565b610e4987600484611927565b50505050505050565b606082806004541015610eb0576040517f08c379a000000000000000000000000000000000000000000000000000000000815260040180806020018281038252602e815260200180611b9b602e913960400191505060405180910390fd5b600560008581526020019081526020016000206000846004811115610ed157fe5b8152602001908152602001600020805480602002602001604051908101604052809291908181526020018280548015610f2957602002820191906000526020600020905b815481526020019060010190808311610f15575b505050505091505092915050565b610f3f611903565b73ffffffffffffffffffffffffffffffffffffffff16610f5d6110aa565b73ffffffffffffffffffffffffffffffffffffffff1614610fe6576040517f08c379a00000000000000000000000000000000000000000000000000000000081526004018080602001828103825260208152602001807f4f776e61626c653a2063616c6c6572206973206e6f7420746865206f776e657281525060200191505060405180910390fd5b600073ffffffffffffffffffffffffffffffffffffffff1660008054906101000a900473ffffffffffffffffffffffffffffffffffffffff1673ffffffffffffffffffffffffffffffffffffffff167f8be0079c531659141344cd1fd0a4f28419497f9722a3daafe3b4186f6b6457e060405160405180910390a360008060006101000a81548173ffffffffffffffffffffffffffffffffffffffff021916908373ffffffffffffffffffffffffffffffffffffffff160217905550565b60045481565b60008060009054906101000a900473ffffffffffffffffffffffffffffffffffffffff16905090565b60025481565b6110e1611903565b73ffffffffffffffffffffffffffffffffffffffff166110ff6110aa565b73ffffffffffffffffffffffffffffffffffffffff1614611188576040517f08c379a00000000000000000000000000000000000000000000000000000000081526004018080602001828103825260208152602001807f4f776e61626c653a2063616c6c6572206973206e6f7420746865206f776e657281525060200191505060405180910390fd5b818060045410156111e4576040517f08c379a000000000000000000000000000000000000000000000000000000000815260040180806020018281038252602e815260200180611b9b602e913960400191505060405180910390fd5b816003600085815260200190815260200160002060030160006101000a81548160ff021916908315150217905550505050565b6005602052826000526040600020602052816000526040600020818154811061123f57600080fd5b9060005260206000200160009250925050505481565b6003602052806000526040600020600091509050806000018054600181600116156101000203166002900480601f0160208091040260200160405190810160405280929190818152602001828054600181600116156101000203166002900480156113015780601f106112d657610100808354040283529160200191611301565b820191906000526020600020905b8154815290600101906020018083116112e457829003601f168201915b5050505050908060010154908060020154908060030160009054906101000a900460ff16908060040154908060050154908060060154908060070154908060080154905089565b611350611903565b73ffffffffffffffffffffffffffffffffffffffff1661136e6110aa565b73ffffffffffffffffffffffffffffffffffffffff16146113f7576040517f08c379a00000000000000000000000000000000000000000000000000000000081526004018080602001828103825260208152602001807f4f776e61626c653a2063616c6c6572206973206e6f7420746865206f776e657281525060200191505060405180910390fd5b81806004541015611453576040517f08c379a000000000000000000000000000000000000000000000000000000000815260040180806020018281038252602e815260200180611b9b602e913960400191505060405180910390fd5b8160025410156114cb576040517f08c379a000000000000000000000000000000000000000000000000000000000815260040180806020018281038252600d8152602001807f496e76616c69642067726f75700000000000000000000000000000000000000081525060200191505060405180910390fd5b816003600085815260200190815260200160002060050181905550505050565b6001602052806000526040600020600091509050806000018054600181600116156101000203166002900480601f0160208091040260200160405190810160405280929190818152602001828054600181600116156101000203166002900480156115975780601f1061156c57610100808354040283529160200191611597565b820191906000526020600020905b81548152906001019060200180831161157a57829003601f168201915b5050505050908060010154908060020160009054906101000a900460ff16905083565b6115c2611903565b73ffffffffffffffffffffffffffffffffffffffff166115e06110aa565b73ffffffffffffffffffffffffffffffffffffffff1614611669576040517f08c379a00000000000000000000000000000000000000000000000000000000081526004018080602001828103825260208152602001807f4f776e61626c653a2063616c6c6572206973206e6f7420746865206f776e657281525060200191505060405180910390fd5b60008281806116885750600060025411801561168757508060025410155b5b6116dd576040517f08c379a0000000000000000000000000000000000000000000000000000000008152600401808060200182810382526027815260200180611bf16027913960400191505060405180910390fd5b826001600086815260200190815260200160002060020160006101000a81548160ff02191690831515021790555050505050565b611719611903565b73ffffffffffffffffffffffffffffffffffffffff166117376110aa565b73ffffffffffffffffffffffffffffffffffffffff16146117c0576040517f08c379a00000000000000000000000000000000000000000000000000000000081526004018080602001828103825260208152602001807f4f776e61626c653a2063616c6c6572206973206e6f7420746865206f776e657281525060200191505060405180910390fd5b600073ffffffffffffffffffffffffffffffffffffffff168173ffffffffffffffffffffffffffffffffffffffff161415611846576040517f08c379a0000000000000000000000000000000000000000000000000000000008152600401808060200182810382526026815260200180611b756026913960400191505060405180910390fd5b8073ffffffffffffffffffffffffffffffffffffffff1660008054906101000a900473ffffffffffffffffffffffffffffffffffffffff1673ffffffffffffffffffffffffffffffffffffffff167f8be0079c531659141344cd1fd0a4f28419497f9722a3daafe3b4186f6b6457e060405160405180910390a3806000806101000a81548173ffffffffffffffffffffffffffffffffffffffff021916908373ffffffffffffffffffffffffffffffffffffffff16021790555050565b600033905090565b6000600260008154809291906001019190505550600254905090565b61192f611903565b73ffffffffffffffffffffffffffffffffffffffff1661194d6110aa565b73ffffffffffffffffffffffffffffffffffffffff16146119d6576040517f08c379a00000000000000000000000000000000000000000000000000000000081526004018080602001828103825260208152602001807f4f776e61626c653a2063616c6c6572206973206e6f7420746865206f776e657281525060200191505060405180910390fd5b82806004541015611a32576040517f08c379a000000000000000000000000000000000000000000000000000000000815260040180806020018281038252602e815260200180611b9b602e913960400191505060405180910390fd5b81600560008681526020019081526020016000206000856004811115611a5457fe5b81526020019081526020016000209080519060200190611a75929190611b0a565b5050505050565b828054600181600116156101000203166002900490600052602060002090601f016020900481019282611ab25760008555611af9565b82601f10611acb57805160ff1916838001178555611af9565b82800160010185558215611af9579182015b82811115611af8578251825591602001919060010190611add565b5b509050611b069190611b57565b5090565b828054828255906000526020600020908101928215611b46579160200282015b82811115611b45578251825591602001919060010190611b2a565b5b509050611b539190611b57565b5090565b5b80821115611b70576000816000905550600101611b58565b509056fe4f776e61626c653a206e6577206f776e657220697320746865207a65726f20616464726573735f70757a7a6c654964206d757374206265206c6f776572207468616e206e756d626572206f662070757a7a6c65735f69642069732067726561746572207468616e20746865206e756d626572206f662067726f7570735f6964206d757374206265206c6f776572207468616e206e756d626572206f662067726f757073a26469706673582212202877196cad85ec7b905e8c11680c202f7b1a4e7cbb501a176a3aaf2f3b49c84564736f6c63430007040033",
  "immutableReferences": {},
  "source": "pragma solidity ^0.7.0;\n\n// SPDX-License-Identifier: UNLICENSED\nimport \"openzeppelin-solidity/contracts/access/Ownable.sol\";\nimport \"./Groups.sol\";\nimport \"./Strings.sol\";\n\ncontract Puzzles is Ownable, Groups{\n  using Strings for string;\n  \n  constructor() {}\n\n  enum Class {\n    Common,\n    Uncommon,\n    Rare,\n    Epic,\n    Legendary\n  }\n\n  struct Puzzle {\n    string title;\n    uint256 width;\n    uint256 height;\n    bool isActive;\n    uint256 balance;\n    uint256 group;\n    uint256 minTokenId;//token ids for a puzzle must be sequential from minTokenId to maxTokenId\n    uint256 maxTokenId;//token ids for a puzzle must be sequential from minTokenId to maxTokenId\n    uint256 weight;\n  }\n\n  mapping (uint256 => Puzzle) public PuzzleStructs;\n  uint256 public puzzleCount = 0;\n  mapping (uint256 => mapping (uint256 => uint256[])) public PuzzlesToClassToTokens;\n\n  modifier idExists(uint256 _puzzleId) {\n    require(puzzleCount >= _puzzleId, \"_puzzleId must be lower than number of puzzles\");\n    _;\n  }\n\n  function _addPuzzle(string memory _title, uint256 _width, uint256 _height, bool _isActive, uint256 _group, uint256 _weight) internal onlyOwner {\n    require(Groups.groupCount >= _group, \"Invalid group\");\n    require(bytes(_title).length > 0, \"_title cannot be blank\");\n    require(_width > 0 && _height > 0, \"_width and _height must be greater than 0\");\n    require(_weight > 0, \"_weight must be greater than 0\");\n    uint256 _id = _incrementPuzzleCount(); \n    PuzzleStructs[_id].title = _title;\n    PuzzleStructs[_id].width = _width;\n    PuzzleStructs[_id].height = _height;\n    PuzzleStructs[_id].isActive = _isActive;\n    PuzzleStructs[_id].group = _group;\n    PuzzleStructs[_id].weight = _weight;\n  }\n\n  function _assignTokenIdsForClass(uint256 _puzzleId, Class _class, uint256[] memory _tokenIds) internal onlyOwner idExists(_puzzleId) {\n    PuzzlesToClassToTokens[_puzzleId][uint256(_class)] = _tokenIds;\n  }\n\n  function setPuzzleActive(uint256 _puzzleId, bool _isActive) public onlyOwner idExists(_puzzleId) {\n    PuzzleStructs[_puzzleId].isActive = _isActive;\n  }\n\n  function setPuzzleGroup(uint256 _puzzleId, uint256 _group) public onlyOwner idExists(_puzzleId) {\n    require(Groups.groupCount >= _group, \"Invalid group\");\n    PuzzleStructs[_puzzleId].group = _group;\n  }\n\n  function _incrementPuzzleCount() private returns(uint) {\n    puzzleCount++;\n    return puzzleCount;\n  }    \n\n  /* Assigns token ids to each rarity class for a puzzle */\n  function puzzleInit(uint256 _puzzleId, uint256[] memory _commonPieces, uint256[] memory _uncommonPieces, uint256[] memory _rarePieces, uint256[] memory _epicPieces, uint256[] memory _legendaryPieces) public onlyOwner idExists(_puzzleId) {\n    require((Puzzles.PuzzleStructs[_puzzleId].width * Puzzles.PuzzleStructs[_puzzleId].height) == \n      (_commonPieces.length + _uncommonPieces.length + _rarePieces.length + _epicPieces.length + _legendaryPieces.length), \"Incorrect number of pieces\");\n    _assignTokenIdsForClass(_puzzleId, Class.Common, _commonPieces);\n    _assignTokenIdsForClass(_puzzleId, Class.Uncommon, _uncommonPieces);\n    _assignTokenIdsForClass(_puzzleId, Class.Rare, _rarePieces);\n    _assignTokenIdsForClass(_puzzleId, Class.Epic, _epicPieces);\n    _assignTokenIdsForClass(_puzzleId, Class.Legendary, _legendaryPieces);\n  }  \n\n  function _setMinMaxTokenIds(uint256[2] memory _minMaxIds) internal onlyOwner {\n    PuzzleStructs[puzzleCount].minTokenId = _minMaxIds[0];\n    PuzzleStructs[puzzleCount].maxTokenId = _minMaxIds[1];    \n  }\n\n  function getTokenIdByClassForPuzzle(uint256 _puzzleId, Class _class) external view idExists(_puzzleId) returns (uint256[] memory) {\n    return PuzzlesToClassToTokens[_puzzleId][uint256(_class)];\n  }\n}\n",
  "sourcePath": "C:\\playground\\Blockchain\\npp_v3\\contracts\\Puzzles.sol",
  "compiler": {
    "name": "solc",
    "version": "0.7.4+commit.3f05b770.Emscripten.clang"
  },
  "schemaVersion": "3.3.4",
  "updatedAt": "2021-05-01T03:09:33.643Z",
  "devdoc": {
    "kind": "dev",
    "methods": {
      "owner()": {
        "details": "Returns the address of the current owner."
      },
      "renounceOwnership()": {
        "details": "Leaves the contract without owner. It will not be possible to call `onlyOwner` functions anymore. Can only be called by the current owner. NOTE: Renouncing ownership will leave the contract without an owner, thereby removing any functionality that is only available to the owner."
      },
      "transferOwnership(address)": {
        "details": "Transfers ownership of the contract to a new account (`newOwner`). Can only be called by the current owner."
      }
    },
    "version": 1
  },
  "userdoc": {
    "kind": "user",
    "methods": {},
    "version": 1
  }
}